{
	"contracts/KipuBankV3.sol": {
		"KipuBankV3": {
			"abi": [
				{
					"inputs": [
						{
							"internalType": "uint128",
							"name": "_banckCap",
							"type": "uint128"
						},
						{
							"internalType": "address",
							"name": "_feed",
							"type": "address"
						},
						{
							"internalType": "address",
							"name": "_factory",
							"type": "address"
						}
					],
					"stateMutability": "nonpayable",
					"type": "constructor"
				},
				{
					"inputs": [
						{
							"internalType": "address",
							"name": "to",
							"type": "address"
						},
						{
							"internalType": "uint256",
							"name": "amount",
							"type": "uint256"
						}
					],
					"name": "DepositNotAllowed",
					"type": "error"
				},
				{
					"inputs": [
						{
							"internalType": "address",
							"name": "to",
							"type": "address"
						},
						{
							"internalType": "address",
							"name": "tokenAddress",
							"type": "address"
						},
						{
							"internalType": "uint256",
							"name": "amount",
							"type": "uint256"
						}
					],
					"name": "ERC20DepositNotAllowed",
					"type": "error"
				},
				{
					"inputs": [
						{
							"internalType": "address",
							"name": "to",
							"type": "address"
						},
						{
							"internalType": "address",
							"name": "tokenAddress",
							"type": "address"
						},
						{
							"internalType": "uint256",
							"name": "amount",
							"type": "uint256"
						}
					],
					"name": "ERC20ExtractionNotAllowed",
					"type": "error"
				},
				{
					"inputs": [
						{
							"internalType": "address",
							"name": "to",
							"type": "address"
						},
						{
							"internalType": "uint256",
							"name": "amount",
							"type": "uint256"
						}
					],
					"name": "ExtractionNotAllowed",
					"type": "error"
				},
				{
					"inputs": [
						{
							"internalType": "address",
							"name": "to",
							"type": "address"
						},
						{
							"internalType": "uint256",
							"name": "amount",
							"type": "uint256"
						},
						{
							"internalType": "bytes",
							"name": "errorData",
							"type": "bytes"
						}
					],
					"name": "ExtractionReverted",
					"type": "error"
				},
				{
					"inputs": [],
					"name": "OracleCompromised",
					"type": "error"
				},
				{
					"inputs": [
						{
							"internalType": "address",
							"name": "owner",
							"type": "address"
						}
					],
					"name": "OwnableInvalidOwner",
					"type": "error"
				},
				{
					"inputs": [
						{
							"internalType": "address",
							"name": "account",
							"type": "address"
						}
					],
					"name": "OwnableUnauthorizedAccount",
					"type": "error"
				},
				{
					"inputs": [
						{
							"internalType": "address",
							"name": "token",
							"type": "address"
						}
					],
					"name": "SafeERC20FailedOperation",
					"type": "error"
				},
				{
					"inputs": [],
					"name": "StalePrice",
					"type": "error"
				},
				{
					"inputs": [],
					"name": "SwapModule_InsufficientLiquidity",
					"type": "error"
				},
				{
					"inputs": [],
					"name": "SwapModule_InsufficientOutputAmount",
					"type": "error"
				},
				{
					"inputs": [],
					"name": "SwapModule_InvalidAddress",
					"type": "error"
				},
				{
					"inputs": [],
					"name": "SwapModule_InvalidAmount",
					"type": "error"
				},
				{
					"inputs": [],
					"name": "SwapModule_PairDoesNotExist",
					"type": "error"
				},
				{
					"anonymous": false,
					"inputs": [
						{
							"indexed": false,
							"internalType": "contract AggregatorV3Interface",
							"name": "oldFeed",
							"type": "address"
						},
						{
							"indexed": false,
							"internalType": "contract AggregatorV3Interface",
							"name": "newFeed",
							"type": "address"
						}
					],
					"name": "ChainlinkFeedUpdated",
					"type": "event"
				},
				{
					"anonymous": false,
					"inputs": [
						{
							"indexed": false,
							"internalType": "address",
							"name": "from",
							"type": "address"
						},
						{
							"indexed": false,
							"internalType": "uint256",
							"name": "amount",
							"type": "uint256"
						}
					],
					"name": "Deposited",
					"type": "event"
				},
				{
					"anonymous": false,
					"inputs": [
						{
							"indexed": false,
							"internalType": "address",
							"name": "from",
							"type": "address"
						},
						{
							"indexed": false,
							"internalType": "address",
							"name": "tokenAddress",
							"type": "address"
						},
						{
							"indexed": false,
							"internalType": "uint256",
							"name": "amount",
							"type": "uint256"
						}
					],
					"name": "ERC20Deposited",
					"type": "event"
				},
				{
					"anonymous": false,
					"inputs": [
						{
							"indexed": false,
							"internalType": "address",
							"name": "to",
							"type": "address"
						},
						{
							"indexed": false,
							"internalType": "address",
							"name": "tokenAddress",
							"type": "address"
						},
						{
							"indexed": false,
							"internalType": "uint256",
							"name": "amount",
							"type": "uint256"
						}
					],
					"name": "ERC20Extracted",
					"type": "event"
				},
				{
					"anonymous": false,
					"inputs": [
						{
							"indexed": false,
							"internalType": "address",
							"name": "to",
							"type": "address"
						},
						{
							"indexed": false,
							"internalType": "uint256",
							"name": "amount",
							"type": "uint256"
						}
					],
					"name": "Extracted",
					"type": "event"
				},
				{
					"anonymous": false,
					"inputs": [
						{
							"indexed": true,
							"internalType": "address",
							"name": "previousOwner",
							"type": "address"
						},
						{
							"indexed": true,
							"internalType": "address",
							"name": "newOwner",
							"type": "address"
						}
					],
					"name": "OwnershipTransferred",
					"type": "event"
				},
				{
					"anonymous": false,
					"inputs": [
						{
							"indexed": true,
							"internalType": "address",
							"name": "user",
							"type": "address"
						},
						{
							"indexed": true,
							"internalType": "address",
							"name": "tokenIn",
							"type": "address"
						},
						{
							"indexed": true,
							"internalType": "address",
							"name": "tokenOut",
							"type": "address"
						},
						{
							"indexed": false,
							"internalType": "uint256",
							"name": "amountIn",
							"type": "uint256"
						},
						{
							"indexed": false,
							"internalType": "uint256",
							"name": "amountOut",
							"type": "uint256"
						}
					],
					"name": "SwapModule_SwapExecuted",
					"type": "event"
				},
				{
					"inputs": [],
					"name": "FACTORY",
					"outputs": [
						{
							"internalType": "contract IUniswapV2Factory",
							"name": "",
							"type": "address"
						}
					],
					"stateMutability": "view",
					"type": "function"
				},
				{
					"inputs": [
						{
							"internalType": "address",
							"name": "_tokenAddress",
							"type": "address"
						},
						{
							"internalType": "uint256",
							"name": "_amount",
							"type": "uint256"
						}
					],
					"name": "depositERC20",
					"outputs": [],
					"stateMutability": "nonpayable",
					"type": "function"
				},
				{
					"inputs": [],
					"name": "depositEth",
					"outputs": [],
					"stateMutability": "payable",
					"type": "function"
				},
				{
					"inputs": [
						{
							"internalType": "uint256",
							"name": "amountIn",
							"type": "uint256"
						},
						{
							"internalType": "uint256",
							"name": "reserveIn",
							"type": "uint256"
						},
						{
							"internalType": "uint256",
							"name": "reserveOut",
							"type": "uint256"
						}
					],
					"name": "getAmountOut",
					"outputs": [
						{
							"internalType": "uint256",
							"name": "amountOut",
							"type": "uint256"
						}
					],
					"stateMutability": "pure",
					"type": "function"
				},
				{
					"inputs": [],
					"name": "getBalance",
					"outputs": [
						{
							"internalType": "uint256",
							"name": "balance_",
							"type": "uint256"
						}
					],
					"stateMutability": "view",
					"type": "function"
				},
				{
					"inputs": [
						{
							"internalType": "address",
							"name": "user_",
							"type": "address"
						}
					],
					"name": "getBalance",
					"outputs": [
						{
							"internalType": "uint256",
							"name": "balance_",
							"type": "uint256"
						}
					],
					"stateMutability": "view",
					"type": "function"
				},
				{
					"inputs": [
						{
							"internalType": "address",
							"name": "user_",
							"type": "address"
						}
					],
					"name": "getBalanceInUSD",
					"outputs": [
						{
							"internalType": "uint256",
							"name": "balance_",
							"type": "uint256"
						}
					],
					"stateMutability": "view",
					"type": "function"
				},
				{
					"inputs": [],
					"name": "getBalanceInUSD",
					"outputs": [
						{
							"internalType": "uint256",
							"name": "balance_",
							"type": "uint256"
						}
					],
					"stateMutability": "view",
					"type": "function"
				},
				{
					"inputs": [],
					"name": "getDeposits",
					"outputs": [
						{
							"internalType": "uint256",
							"name": "deposits_",
							"type": "uint256"
						}
					],
					"stateMutability": "view",
					"type": "function"
				},
				{
					"inputs": [
						{
							"internalType": "address",
							"name": "user_",
							"type": "address"
						}
					],
					"name": "getDeposits",
					"outputs": [
						{
							"internalType": "uint256",
							"name": "deposits_",
							"type": "uint256"
						}
					],
					"stateMutability": "view",
					"type": "function"
				},
				{
					"inputs": [
						{
							"internalType": "address",
							"name": "_tokenAddress",
							"type": "address"
						}
					],
					"name": "getERC20Balance",
					"outputs": [
						{
							"internalType": "uint256",
							"name": "balance_",
							"type": "uint256"
						}
					],
					"stateMutability": "view",
					"type": "function"
				},
				{
					"inputs": [
						{
							"internalType": "address",
							"name": "user_",
							"type": "address"
						},
						{
							"internalType": "address",
							"name": "_tokenAddress",
							"type": "address"
						}
					],
					"name": "getERC20Balance",
					"outputs": [
						{
							"internalType": "uint256",
							"name": "balance_",
							"type": "uint256"
						}
					],
					"stateMutability": "view",
					"type": "function"
				},
				{
					"inputs": [
						{
							"internalType": "address",
							"name": "user_",
							"type": "address"
						},
						{
							"internalType": "address",
							"name": "_tokenAddress",
							"type": "address"
						}
					],
					"name": "getERC20Deposits",
					"outputs": [
						{
							"internalType": "uint256",
							"name": "deposits_",
							"type": "uint256"
						}
					],
					"stateMutability": "view",
					"type": "function"
				},
				{
					"inputs": [
						{
							"internalType": "address",
							"name": "_tokenAddress",
							"type": "address"
						}
					],
					"name": "getERC20Deposits",
					"outputs": [
						{
							"internalType": "uint256",
							"name": "deposits_",
							"type": "uint256"
						}
					],
					"stateMutability": "view",
					"type": "function"
				},
				{
					"inputs": [
						{
							"internalType": "address",
							"name": "user_",
							"type": "address"
						},
						{
							"internalType": "address",
							"name": "_tokenAddress",
							"type": "address"
						}
					],
					"name": "getERC20Withdrawals",
					"outputs": [
						{
							"internalType": "uint256",
							"name": "withdrawals_",
							"type": "uint256"
						}
					],
					"stateMutability": "view",
					"type": "function"
				},
				{
					"inputs": [
						{
							"internalType": "address",
							"name": "_tokenAddress",
							"type": "address"
						}
					],
					"name": "getERC20Withdrawals",
					"outputs": [
						{
							"internalType": "uint256",
							"name": "withdrawals_",
							"type": "uint256"
						}
					],
					"stateMutability": "view",
					"type": "function"
				},
				{
					"inputs": [
						{
							"internalType": "address",
							"name": "tokenA",
							"type": "address"
						},
						{
							"internalType": "address",
							"name": "tokenB",
							"type": "address"
						}
					],
					"name": "getPair",
					"outputs": [
						{
							"internalType": "address",
							"name": "pair",
							"type": "address"
						}
					],
					"stateMutability": "view",
					"type": "function"
				},
				{
					"inputs": [
						{
							"internalType": "address",
							"name": "user_",
							"type": "address"
						}
					],
					"name": "getWithdrawals",
					"outputs": [
						{
							"internalType": "uint256",
							"name": "withdrawals_",
							"type": "uint256"
						}
					],
					"stateMutability": "view",
					"type": "function"
				},
				{
					"inputs": [],
					"name": "getWithdrawals",
					"outputs": [
						{
							"internalType": "uint256",
							"name": "withdrawals_",
							"type": "uint256"
						}
					],
					"stateMutability": "view",
					"type": "function"
				},
				{
					"inputs": [],
					"name": "owner",
					"outputs": [
						{
							"internalType": "address",
							"name": "",
							"type": "address"
						}
					],
					"stateMutability": "view",
					"type": "function"
				},
				{
					"inputs": [],
					"name": "renounceOwnership",
					"outputs": [],
					"stateMutability": "nonpayable",
					"type": "function"
				},
				{
					"inputs": [],
					"name": "s_bankCap",
					"outputs": [
						{
							"internalType": "uint128",
							"name": "",
							"type": "uint128"
						}
					],
					"stateMutability": "view",
					"type": "function"
				},
				{
					"inputs": [],
					"name": "s_feeds",
					"outputs": [
						{
							"internalType": "contract AggregatorV3Interface",
							"name": "",
							"type": "address"
						}
					],
					"stateMutability": "view",
					"type": "function"
				},
				{
					"inputs": [],
					"name": "s_withdrawLimit",
					"outputs": [
						{
							"internalType": "uint128",
							"name": "",
							"type": "uint128"
						}
					],
					"stateMutability": "view",
					"type": "function"
				},
				{
					"inputs": [
						{
							"internalType": "address",
							"name": "_feed",
							"type": "address"
						}
					],
					"name": "setFeeds",
					"outputs": [],
					"stateMutability": "nonpayable",
					"type": "function"
				},
				{
					"inputs": [
						{
							"internalType": "address",
							"name": "tokenIn",
							"type": "address"
						},
						{
							"internalType": "address",
							"name": "tokenOut",
							"type": "address"
						},
						{
							"internalType": "uint256",
							"name": "amountIn",
							"type": "uint256"
						},
						{
							"internalType": "uint256",
							"name": "amountOutMin",
							"type": "uint256"
						}
					],
					"name": "swapExactInputSingle",
					"outputs": [
						{
							"internalType": "uint256",
							"name": "amountOut",
							"type": "uint256"
						}
					],
					"stateMutability": "nonpayable",
					"type": "function"
				},
				{
					"inputs": [
						{
							"internalType": "address",
							"name": "newOwner",
							"type": "address"
						}
					],
					"name": "transferOwnership",
					"outputs": [],
					"stateMutability": "nonpayable",
					"type": "function"
				},
				{
					"inputs": [
						{
							"internalType": "address",
							"name": "_tokenAddress",
							"type": "address"
						},
						{
							"internalType": "uint256",
							"name": "_amount",
							"type": "uint256"
						}
					],
					"name": "withdrawERC20",
					"outputs": [],
					"stateMutability": "nonpayable",
					"type": "function"
				},
				{
					"inputs": [
						{
							"internalType": "uint256",
							"name": "_amount",
							"type": "uint256"
						}
					],
					"name": "withdrawEth",
					"outputs": [],
					"stateMutability": "nonpayable",
					"type": "function"
				},
				{
					"stateMutability": "payable",
					"type": "receive"
				}
			],
			"devdoc": {
				"author": "Erik Borgnia",
				"errors": {
					"OwnableInvalidOwner(address)": [
						{
							"details": "The owner is not a valid owner account. (eg. `address(0)`)"
						}
					],
					"OwnableUnauthorizedAccount(address)": [
						{
							"details": "The caller account is not authorized to perform an operation."
						}
					],
					"SafeERC20FailedOperation(address)": [
						{
							"details": "An operation with an ERC-20 token failed."
						}
					]
				},
				"kind": "dev",
				"methods": {
					"depositERC20(address,uint256)": {
						"params": {
							"_amount": "La cantidad a depositar de USDC",
							"_tokenAddress": "La dirección del contrato del token a depositar"
						}
					},
					"getAmountOut(uint256,uint256,uint256)": {
						"details": "Implementa la fórmula AMM de Uniswap V2: amountOut = (amountIn * 997 * reserveOut) / (reserveIn * 1000 + amountIn * 997)",
						"params": {
							"amountIn": "Cantidad de entrada",
							"reserveIn": "Reserva del token de entrada",
							"reserveOut": "Reserva del token de salida"
						},
						"returns": {
							"amountOut": "Cantidad calculada de salida"
						}
					},
					"getBalance(address)": {
						"details": "Esta función garantiza que toda la información es auditable",
						"params": {
							"user_": "Usuario que se quiere auditar"
						}
					},
					"getBalanceInUSD(address)": {
						"details": "Esta función garantiza que toda la información es auditable",
						"params": {
							"user_": "Usuario que se quiere auditar"
						}
					},
					"getDeposits(address)": {
						"details": "Esta función garantiza que toda la información es auditable",
						"params": {
							"user_": "Usuario que se quiere auditar"
						}
					},
					"getERC20Balance(address)": {
						"params": {
							"_tokenAddress": "La dirección del contrato del token a consultar"
						}
					},
					"getERC20Balance(address,address)": {
						"details": "Esta función garantiza que toda la información es auditable",
						"params": {
							"_tokenAddress": "La dirección del contrato del token a consultar",
							"user_": "Usuario que se quiere auditar"
						}
					},
					"getERC20Deposits(address)": {
						"params": {
							"_tokenAddress": "La dirección del contrato del token a consultar"
						}
					},
					"getERC20Deposits(address,address)": {
						"details": "Esta función garantiza que toda la información es auditable",
						"params": {
							"_tokenAddress": "La dirección del contrato del token a consultar",
							"user_": "Usuario que se quiere auditar"
						}
					},
					"getERC20Withdrawals(address)": {
						"params": {
							"_tokenAddress": "La dirección del contrato del token a consultar"
						}
					},
					"getERC20Withdrawals(address,address)": {
						"details": "Esta función garantiza que toda la información es auditable",
						"params": {
							"_tokenAddress": "La dirección del contrato del token a consultar",
							"user_": "Usuario que se quiere auditar"
						}
					},
					"getPair(address,address)": {
						"params": {
							"tokenA": "Primer token",
							"tokenB": "Segundo token"
						},
						"returns": {
							"pair": "Dirección del par"
						}
					},
					"getWithdrawals(address)": {
						"details": "Esta función garantiza que toda la información es auditable",
						"params": {
							"user_": "Usuario que se quiere auditar"
						}
					},
					"owner()": {
						"details": "Returns the address of the current owner."
					},
					"renounceOwnership()": {
						"details": "Leaves the contract without owner. It will not be possible to call `onlyOwner` functions. Can only be called by the current owner. NOTE: Renouncing ownership will leave the contract without an owner, thereby disabling any functionality that is only available to the owner."
					},
					"setFeeds(address)": {
						"details": "Sólo puede ser llamada por el propietario",
						"params": {
							"_feed": "La nueva dirección del Price Feed"
						}
					},
					"swapExactInputSingle(address,address,uint256,uint256)": {
						"details": "Esta función sigue las mejores prácticas de Uniswap V2",
						"params": {
							"amountIn": "La cantidad a intercambiar",
							"amountOutMin": "La cantidad mínima aceptada después de un swap",
							"tokenIn": "La dirección del token de entrada",
							"tokenOut": "La dirección del token de salida"
						},
						"returns": {
							"amountOut": "cantidad de tokens recibidos"
						}
					},
					"transferOwnership(address)": {
						"details": "Transfers ownership of the contract to a new account (`newOwner`). Can only be called by the current owner."
					},
					"withdrawERC20(address,uint256)": {
						"details": "Sólo se puede depositar un valor mayor a 0, siempre que no se supere el bankCap",
						"params": {
							"_amount": "Cantidad que se quiere extraer. Debe ser <= al balance y al límite de extracción",
							"_tokenAddress": "La dirección del contrato del token a extraer"
						}
					},
					"withdrawEth(uint256)": {
						"details": "Sólo se puede depositar un valor mayor a 0, siempre que no se supere el bankCap",
						"params": {
							"_amount": "Cantidad que se quiere extraer. Debe ser <= al balance y al límite de extracción"
						}
					}
				},
				"title": "KipuBank V3",
				"version": 1
			},
			"evm": {
				"assembly": "    /* \"contracts/KipuBankV3.sol\":1105:22487  contract KipuBankV3 is Ownable{... */\n  0xe0\n  jumpi(tag_8, callvalue)\n  0x1f\n  bytecodeSize\n  codesize\n  dup2\n  swap1\n  sub\n  swap2\n  dup3\n  add\n  not(0x1f)\n  and\n  dup4\n  add\n  swap2\n  sub(shl(0x40, 0x01), 0x01)\n  dup4\n  gt\n  dup5\n  dup5\n  lt\n  or\n  tag_4\n  jumpi\n  dup1\n  dup5\n  swap3\n  0x60\n  swap5\n  0x40\n  mstore\n  dup4\n  codecopy\n  dup2\n  add\n  sub\n  slt\n  tag_8\n  jumpi\n  dup1\n  mload\n  swap1\n  sub(shl(0x80, 0x01), 0x01)\n  dup3\n  and\n  dup3\n  sub\n  tag_8\n  jumpi\n  tag_10\n  0x40\n  tag_11\n  0x20\n  dup5\n  add\n  tag_1\n  jump\t// in\ntag_11:\n  swap3\n  add\n  tag_1\n  jump\t// in\ntag_10:\n    /* \"contracts/KipuBankV3.sol\":7065:7075  msg.sender */\n  swap2\n  caller\n    /* \"@openzeppelin/contracts/access/Ownable.sol\":1273:1299  initialOwner == address(0) */\n  iszero\n    /* \"@openzeppelin/contracts/access/Ownable.sol\":1269:1364  if (initialOwner == address(0)) {... */\n  tag_12\n  jumpi\n  0x00\n    /* \"contracts/KipuBankV3.sol\":1105:22487  contract KipuBankV3 is Ownable{... */\n  dup1\n  sload\n    /* \"contracts/KipuBankV3.sol\":7065:7075  msg.sender */\n  caller\n  not(sub(shl(0xa0, 0x01), 0x01))\n    /* \"contracts/KipuBankV3.sol\":1105:22487  contract KipuBankV3 is Ownable{... */\n  dup3\n  and\n  dup2\n  or\n  dup4\n  sstore\n  mload(0x40)\n  swap6\n  swap3\n    /* \"contracts/KipuBankV3.sol\":7065:7075  msg.sender */\n  swap1\n  swap2\n  sub(shl(0xa0, 0x01), 0x01)\n    /* \"contracts/KipuBankV3.sol\":1105:22487  contract KipuBankV3 is Ownable{... */\n  and\n  swap1\n    /* \"@openzeppelin/contracts/access/Ownable.sol\":3052:3092  OwnershipTransferred(oldOwner, newOwner) */\n  0x8be0079c531659141344cd1fd0a4f28419497f9722a3daafe3b4186f6b6457e0\n  swap1\n  dup1\n  log3\n    /* \"contracts/KipuBankV3.sol\":2792:2800  1*10**18 */\n  mstore(0xc0, 0x0de0b6b3a7640000)\n  sub(shl(0xa0, 0x01), 0x01)\n    /* \"contracts/KipuBankV3.sol\":1105:22487  contract KipuBankV3 is Ownable{... */\n  swap1\n  dup2\n  and\n    /* \"contracts/KipuBankV3.sol\":7088:7125  FACTORY = IUniswapV2Factory(_factory) */\n  0x80\n  mstore\n    /* \"contracts/KipuBankV3.sol\":1105:22487  contract KipuBankV3 is Ownable{... */\n  0xa0\n    /* \"contracts/KipuBankV3.sol\":7136:7157  s_bankCap = _banckCap */\n  swap2\n  swap1\n  swap2\n  mstore\n    /* \"contracts/KipuBankV3.sol\":1105:22487  contract KipuBankV3 is Ownable{... */\n  0x01\n  dup1\n  sload\n  not(sub(shl(0xa0, 0x01), 0x01))\n  and\n  swap3\n  swap1\n  swap2\n  and\n  swap2\n  swap1\n  swap2\n  or\n  swap1\n  sstore\n  dataSize(sub_0)\n  swap1\n  dup2\n  dataOffset(sub_0)\n  dup3\n  codecopy\n    /* \"contracts/KipuBankV3.sol\":7088:7125  FACTORY = IUniswapV2Factory(_factory) */\n  0x80\n    /* \"contracts/KipuBankV3.sol\":1105:22487  contract KipuBankV3 is Ownable{... */\n  mload\n  dup2\n  assignImmutable(\"0x8ab194f5003348d2cd0d4b61d744b75b908a68a30dccd1d09f9663c874063bc9\")\n    /* \"contracts/KipuBankV3.sol\":7136:7157  s_bankCap = _banckCap */\n  0xa0\n    /* \"contracts/KipuBankV3.sol\":1105:22487  contract KipuBankV3 is Ownable{... */\n  mload\n  dup2\n  assignImmutable(\"0xd2f7726eb1d129c4ce63d49cbf6bc48740d44f5a10e2fb1f680386f1a976123a\")\n    /* \"contracts/KipuBankV3.sol\":2792:2800  1*10**18 */\n  0xc0\n    /* \"contracts/KipuBankV3.sol\":1105:22487  contract KipuBankV3 is Ownable{... */\n  mload\n  dup2\n  assignImmutable(\"0xf5e5f362c88d870042340181c8ba3c810faeaf69b620e2b6c1b44f2a54634680\")\n  return\n    /* \"@openzeppelin/contracts/access/Ownable.sol\":1269:1364  if (initialOwner == address(0)) {... */\ntag_12:\n    /* \"@openzeppelin/contracts/access/Ownable.sol\":1322:1353  OwnableInvalidOwner(address(0)) */\n  mstore(0x00, shl(0xe0, 0x1e4fbdf7))\n  0x00\n  0x04\n    /* \"contracts/KipuBankV3.sol\":1105:22487  contract KipuBankV3 is Ownable{... */\n  mstore\n  0x24\n  0x00\n    /* \"@openzeppelin/contracts/access/Ownable.sol\":1322:1353  OwnableInvalidOwner(address(0)) */\n  revert\n    /* \"contracts/KipuBankV3.sol\":1105:22487  contract KipuBankV3 is Ownable{... */\ntag_8:\n  0x00\n  dup1\n  revert\ntag_4:\n  mstore(0x00, shl(0xe0, 0x4e487b71))\n  mstore(0x04, 0x41)\n  revert(0x00, 0x24)\ntag_1:\n  mload\n  swap1\n  sub(shl(0xa0, 0x01), 0x01)\n  dup3\n  and\n  dup3\n  sub\n  tag_8\n  jumpi\n  jump\t// out\nstop\n\nsub_0: assembly {\n        /* \"contracts/KipuBankV3.sol\":1105:22487  contract KipuBankV3 is Ownable{... */\n      mstore(0x40, 0x80)\n      jumpi(tag_23, iszero(lt(calldatasize, 0x04)))\n    tag_24:\n      jumpi(tag_25, iszero(calldatasize))\n      0x00\n      dup1\n      revert\n    tag_25:\n        /* \"contracts/KipuBankV3.sol\":7385:7443  receive() external payable {... */\n      tag_27\n      tag_9\n      jump\t// in\n    tag_27:\n        /* \"contracts/KipuBankV3.sol\":1105:22487  contract KipuBankV3 is Ownable{... */\n      stop\n    tag_23:\n      0x00\n      shr(0xe0, calldataload(0x00))\n      dup1\n      0x054d50d4\n      eq\n      tag_28\n      jumpi\n      dup1\n      0x12065fe0\n      eq\n      tag_30\n      jumpi\n      dup1\n      0x21d60805\n      eq\n      tag_32\n      jumpi\n      dup1\n      0x297beb3c\n      eq\n      tag_34\n      jumpi\n      dup1\n      0x2dd31000\n      eq\n      tag_36\n      jumpi\n      dup1\n      0x3a2b643a\n      eq\n      tag_38\n      jumpi\n      dup1\n      0x439370b1\n      eq\n      tag_40\n      jumpi\n      dup1\n      0x50d6c1e8\n      eq\n      tag_42\n      jumpi\n      dup1\n      0x6b149d87\n      eq\n      tag_44\n      jumpi\n      dup1\n      0x715018a6\n      eq\n      tag_46\n      jumpi\n      dup1\n      0x7dc532c5\n      eq\n      tag_48\n      jumpi\n      dup1\n      0x7f86ee43\n      eq\n      tag_50\n      jumpi\n      dup1\n      0x80ef10ed\n      eq\n      tag_52\n      jumpi\n      dup1\n      0x8da5cb5b\n      eq\n      tag_54\n      jumpi\n      dup1\n      0x94f649dd\n      eq\n      tag_56\n      jumpi\n      dup1\n      0x962b9bcc\n      eq\n      tag_58\n      jumpi\n      dup1\n      0x97feb926\n      eq\n      tag_60\n      jumpi\n      dup1\n      0xa1db9782\n      eq\n      tag_62\n      jumpi\n      dup1\n      0xa2abecd3\n      eq\n      tag_64\n      jumpi\n      dup1\n      0xb588d225\n      eq\n      tag_66\n      jumpi\n      dup1\n      0xba25d3e9\n      eq\n      tag_68\n      jumpi\n      dup1\n      0xc311d049\n      eq\n      tag_70\n      jumpi\n      dup1\n      0xc3a8962c\n      eq\n      tag_72\n      jumpi\n      dup1\n      0xc77e551b\n      eq\n      tag_74\n      jumpi\n      dup1\n      0xd2706c91\n      eq\n      tag_76\n      jumpi\n      dup1\n      0xe6a43905\n      eq\n      tag_78\n      jumpi\n      dup1\n      0xef649249\n      eq\n      tag_80\n      jumpi\n      dup1\n      0xf2fde38b\n      eq\n      tag_82\n      jumpi\n      0xf8b2cb4f\n      eq\n      tag_84\n      jumpi\n      pop\n      jump(tag_24)\n    tag_84:\n      jumpi(tag_88, callvalue)\n      jumpi(tag_88, slt(add(not(0x03), calldatasize), 0x20))\n      0x40\n      swap1\n      tag_90\n      tag_1\n      jump\t// in\n    tag_90:\n        /* \"@openzeppelin/contracts/access/Ownable.sol\":1500:1562  modifier onlyOwner() {... */\n      tag_91\n      tag_19\n      jump\t// in\n    tag_91:\n        /* \"contracts/KipuBankV3.sol\":1105:22487  contract KipuBankV3 is Ownable{... */\n      0x01\n      dup1\n      0xa0\n      shl\n      sub\n      and\n      dup2\n      mstore\n        /* \"contracts/KipuBankV3.sol\":15731:15741  s_balances */\n      0x02\n        /* \"contracts/KipuBankV3.sol\":1105:22487  contract KipuBankV3 is Ownable{... */\n      0x20\n      mstore\n      keccak256\n      0x00\n      dup1\n      mstore\n      0x20\n      mstore\n      0x20\n      sload(keccak256(0x00, 0x40))\n      mload(0x40)\n      swap1\n      dup2\n      mstore\n      return\n    tag_88:\n      dup1\n      revert\n    tag_82:\n      pop\n      jumpi(tag_88, callvalue)\n      jumpi(tag_88, slt(add(not(0x03), calldatasize), 0x20))\n      tag_96\n      tag_1\n      jump\t// in\n    tag_96:\n        /* \"@openzeppelin/contracts/access/Ownable.sol\":1500:1562  modifier onlyOwner() {... */\n      tag_97\n      tag_19\n      jump\t// in\n    tag_97:\n      sub(shl(0xa0, 0x01), 0x01)\n        /* \"contracts/KipuBankV3.sol\":1105:22487  contract KipuBankV3 is Ownable{... */\n      and\n        /* \"@openzeppelin/contracts/access/Ownable.sol\":2627:2649  newOwner == address(0) */\n      dup1\n      iszero\n        /* \"@openzeppelin/contracts/access/Ownable.sol\":2623:2714  if (newOwner == address(0)) {... */\n      tag_98\n      jumpi\n        /* \"contracts/KipuBankV3.sol\":1105:22487  contract KipuBankV3 is Ownable{... */\n      dup2\n      sload\n      not(sub(shl(0xa0, 0x01), 0x01))\n      dup2\n      and\n      dup3\n      or\n      dup4\n      sstore\n      sub(shl(0xa0, 0x01), 0x01)\n      and\n        /* \"@openzeppelin/contracts/access/Ownable.sol\":3052:3092  OwnershipTransferred(oldOwner, newOwner) */\n      0x8be0079c531659141344cd1fd0a4f28419497f9722a3daafe3b4186f6b6457e0\n        /* \"contracts/KipuBankV3.sol\":1105:22487  contract KipuBankV3 is Ownable{... */\n      dup4\n      dup1\n        /* \"@openzeppelin/contracts/access/Ownable.sol\":3052:3092  OwnershipTransferred(oldOwner, newOwner) */\n      log3\n        /* \"contracts/KipuBankV3.sol\":1105:22487  contract KipuBankV3 is Ownable{... */\n      dup1\n      return\n        /* \"@openzeppelin/contracts/access/Ownable.sol\":2623:2714  if (newOwner == address(0)) {... */\n    tag_98:\n      shl(0xe0, 0x1e4fbdf7)\n        /* \"@openzeppelin/contracts/access/Ownable.sol\":2672:2703  OwnableInvalidOwner(address(0)) */\n      dup3\n      mstore\n        /* \"contracts/KipuBankV3.sol\":1105:22487  contract KipuBankV3 is Ownable{... */\n      0x04\n      dup3\n      swap1\n      mstore\n      0x24\n        /* \"@openzeppelin/contracts/access/Ownable.sol\":2672:2703  OwnableInvalidOwner(address(0)) */\n      dup3\n      revert\n        /* \"contracts/KipuBankV3.sol\":1105:22487  contract KipuBankV3 is Ownable{... */\n    tag_80:\n      pop\n      jumpi(tag_88, callvalue)\n      dup1\n      add(calldatasize, not(0x03))\n      slt\n      tag_88\n      jumpi\n      0x40\n        /* \"contracts/KipuBankV3.sol\":13641:13651  msg.sender */\n      swap1\n      caller\n        /* \"contracts/KipuBankV3.sol\":1105:22487  contract KipuBankV3 is Ownable{... */\n      dup2\n      mstore\n        /* \"contracts/KipuBankV3.sol\":13630:13640  s_balances */\n      0x02\n        /* \"contracts/KipuBankV3.sol\":1105:22487  contract KipuBankV3 is Ownable{... */\n      0x20\n      mstore\n      keccak256\n      0x00\n      dup1\n      mstore\n      0x20\n      mstore\n      0x20\n        /* \"contracts/KipuBankV3.sol\":13614:13665  convertEthInUSD(s_balances[msg.sender][address(0)]) */\n      tag_104\n        /* \"contracts/KipuBankV3.sol\":1105:22487  contract KipuBankV3 is Ownable{... */\n      sload(keccak256(0x00, 0x40))\n        /* \"contracts/KipuBankV3.sol\":13614:13665  convertEthInUSD(s_balances[msg.sender][address(0)]) */\n      tag_18\n      jump\t// in\n    tag_104:\n        /* \"contracts/KipuBankV3.sol\":1105:22487  contract KipuBankV3 is Ownable{... */\n      mload(0x40)\n      swap1\n      dup2\n      mstore\n      return\n    tag_78:\n      pop\n      jumpi(tag_88, callvalue)\n      jumpi(tag_88, slt(add(not(0x03), calldatasize), 0x40))\n        /* \"contracts/KipuBankV3.sol\":13145:13176  FACTORY.getPair(tokenA, tokenB) */\n      tag_109\n        /* \"contracts/KipuBankV3.sol\":1105:22487  contract KipuBankV3 is Ownable{... */\n      0x20\n      tag_110\n      tag_1\n      jump\t// in\n    tag_110:\n      tag_111\n      tag_2\n      jump\t// in\n    tag_111:\n      mload(0x40)\n      shl(0xe0, 0xe6a43905)\n        /* \"contracts/KipuBankV3.sol\":13145:13176  FACTORY.getPair(tokenA, tokenB) */\n      dup2\n      mstore\n      sub(shl(0xa0, 0x01), 0x01)\n        /* \"contracts/KipuBankV3.sol\":1105:22487  contract KipuBankV3 is Ownable{... */\n      swap3\n      dup4\n      and\n      0x04\n        /* \"contracts/KipuBankV3.sol\":13145:13176  FACTORY.getPair(tokenA, tokenB) */\n      dup3\n      add\n        /* \"contracts/KipuBankV3.sol\":1105:22487  contract KipuBankV3 is Ownable{... */\n      mstore\n      swap2\n      and\n      0x24\n      dup3\n      add\n      mstore\n      swap2\n      dup3\n      swap1\n      dup2\n      swap1\n      0x44\n      dup3\n      add\n      swap1\n      jump\n        /* \"contracts/KipuBankV3.sol\":13145:13176  FACTORY.getPair(tokenA, tokenB) */\n    tag_109:\n      sub\n        /* \"contracts/KipuBankV3.sol\":1105:22487  contract KipuBankV3 is Ownable{... */\n      dup2\n        /* \"contracts/KipuBankV3.sol\":13145:13152  FACTORY */\n      immutable(\"0x8ab194f5003348d2cd0d4b61d744b75b908a68a30dccd1d09f9663c874063bc9\")\n      sub(shl(0xa0, 0x01), 0x01)\n        /* \"contracts/KipuBankV3.sol\":1105:22487  contract KipuBankV3 is Ownable{... */\n      and\n        /* \"contracts/KipuBankV3.sol\":13145:13176  FACTORY.getPair(tokenA, tokenB) */\n      gas\n      staticcall\n      swap1\n      dup2\n      iszero\n      tag_112\n      jumpi\n        /* \"contracts/KipuBankV3.sol\":1105:22487  contract KipuBankV3 is Ownable{... */\n      0x20\n        /* \"contracts/KipuBankV3.sol\":13145:13176  FACTORY.getPair(tokenA, tokenB) */\n      swap3\n      swap2\n      tag_114\n      jumpi\n        /* \"contracts/KipuBankV3.sol\":1105:22487  contract KipuBankV3 is Ownable{... */\n    tag_115:\n      pop\n      mload(0x40)\n      sub(shl(0xa0, 0x01), 0x01)\n      swap1\n      swap2\n      and\n      dup2\n      mstore\n      return\n        /* \"contracts/KipuBankV3.sol\":13145:13176  FACTORY.getPair(tokenA, tokenB) */\n    tag_114:\n      tag_116\n      swap2\n      pop\n      dup3\n      returndatasize\n      dup5\n      gt\n      tag_117\n      jumpi\n    tag_118:\n      tag_119\n      dup2\n      dup4\n      tag_13\n      jump\t// in\n    tag_119:\n      dup2\n      add\n      swap1\n      tag_14\n      jump\t// in\n    tag_116:\n      0x00\n      jump(tag_115)\n    tag_117:\n      pop\n      returndatasize\n      jump(tag_118)\n    tag_112:\n        /* \"contracts/KipuBankV3.sol\":1105:22487  contract KipuBankV3 is Ownable{... */\n      mload(0x40)\n      returndatasize\n      dup5\n      dup3\n      returndatacopy\n      returndatasize\n      swap1\n      revert\n    tag_76:\n      pop\n      jumpi(tag_88, callvalue)\n      jumpi(tag_88, slt(add(not(0x03), calldatasize), 0x20))\n      0x40\n      tag_124\n      tag_1\n      jump\t// in\n    tag_124:\n        /* \"contracts/KipuBankV3.sol\":15252:15262  msg.sender */\n      swap2\n      caller\n        /* \"contracts/KipuBankV3.sol\":1105:22487  contract KipuBankV3 is Ownable{... */\n      dup2\n      mstore\n      mstore(0x20, 0x04)\n      keccak256\n        /* \"contracts/KipuBankV3.sol\":15238:15278  s_withdrawals[msg.sender][_tokenAddress] */\n      swap1\n        /* \"contracts/KipuBankV3.sol\":1105:22487  contract KipuBankV3 is Ownable{... */\n      0x01\n      dup1\n      0xa0\n      shl\n      sub\n      and\n      0x00\n      mstore\n      0x20\n      mstore\n      0x20\n      and(sload(keccak256(0x00, 0x40)), 0xffffffff)\n      mload(0x40)\n      swap1\n      dup2\n      mstore\n      return\n    tag_74:\n      pop\n      jumpi(tag_88, callvalue)\n      dup1\n      add(calldatasize, not(0x03))\n      slt\n      tag_88\n      jumpi\n      sload(0x01)\n      mload(0x40)\n      sub(shl(0xa0, 0x01), 0x01)\n      swap1\n      swap2\n      and\n      dup2\n      mstore\n      0x20\n      swap1\n      return\n    tag_72:\n      pop\n      jumpi(tag_88, callvalue)\n      jumpi(tag_88, slt(add(not(0x03), calldatasize), 0x40))\n      0x40\n      tag_133\n      tag_1\n      jump\t// in\n    tag_133:\n      swap2\n      tag_134\n      tag_2\n      jump\t// in\n    tag_134:\n        /* \"@openzeppelin/contracts/access/Ownable.sol\":1500:1562  modifier onlyOwner() {... */\n      swap3\n      tag_135\n      tag_19\n      jump\t// in\n    tag_135:\n        /* \"contracts/KipuBankV3.sol\":1105:22487  contract KipuBankV3 is Ownable{... */\n      0x01\n      dup1\n      0xa0\n      shl\n      sub\n      and\n      dup2\n      mstore\n        /* \"contracts/KipuBankV3.sol\":17423:17433  s_balances */\n      0x02\n        /* \"contracts/KipuBankV3.sol\":1105:22487  contract KipuBankV3 is Ownable{... */\n      0x20\n      mstore\n      keccak256\n        /* \"contracts/KipuBankV3.sol\":17423:17455  s_balances[user_][_tokenAddress] */\n      swap1\n        /* \"contracts/KipuBankV3.sol\":1105:22487  contract KipuBankV3 is Ownable{... */\n      0x01\n      dup1\n      0xa0\n      shl\n      sub\n      and\n      0x00\n      mstore\n      0x20\n      mstore\n      0x20\n      sload(keccak256(0x00, 0x40))\n      mload(0x40)\n      swap1\n      dup2\n      mstore\n      return\n    tag_70:\n      pop\n      jumpi(tag_88, callvalue)\n      jumpi(tag_88, slt(add(not(0x03), calldatasize), 0x20))\n      calldataload(0x04)\n        /* \"contracts/KipuBankV3.sol\":19248:19311  require(_amount > 0, ExtractionNotAllowed(msg.sender, _amount)) */\n      tag_140\n        /* \"contracts/KipuBankV3.sol\":19290:19300  msg.sender */\n      dup2\n      caller\n        /* \"contracts/KipuBankV3.sol\":19256:19267  _amount > 0 */\n      dup2\n      iszero\n      iszero\n        /* \"contracts/KipuBankV3.sol\":19248:19311  require(_amount > 0, ExtractionNotAllowed(msg.sender, _amount)) */\n      tag_17\n      jump\t// in\n    tag_140:\n        /* \"contracts/KipuBankV3.sol\":19290:19300  msg.sender */\n      caller\n        /* \"contracts/KipuBankV3.sol\":1105:22487  contract KipuBankV3 is Ownable{... */\n      dup3\n      mstore\n        /* \"contracts/KipuBankV3.sol\":19341:19351  s_balances */\n      0x02\n        /* \"contracts/KipuBankV3.sol\":1105:22487  contract KipuBankV3 is Ownable{... */\n      0x20\n      mstore\n      0x40\n      dup3\n      keccak256\n      0x00\n      dup1\n      mstore\n      0x20\n      mstore\n        /* \"contracts/KipuBankV3.sol\":19322:19419  require(_amount <= s_balances[msg.sender][address(0)], ExtractionNotAllowed(msg.sender, _amount)) */\n      tag_141\n        /* \"contracts/KipuBankV3.sol\":1105:22487  contract KipuBankV3 is Ownable{... */\n      dup2\n      keccak256(0x00, 0x40)\n        /* \"contracts/KipuBankV3.sol\":19290:19300  msg.sender */\n      caller\n        /* \"contracts/KipuBankV3.sol\":1105:22487  contract KipuBankV3 is Ownable{... */\n      swap1\n      sload\n        /* \"contracts/KipuBankV3.sol\":19330:19375  _amount <= s_balances[msg.sender][address(0)] */\n      dup3\n      gt\n      iszero\n        /* \"contracts/KipuBankV3.sol\":19322:19419  require(_amount <= s_balances[msg.sender][address(0)], ExtractionNotAllowed(msg.sender, _amount)) */\n      tag_17\n      jump\t// in\n    tag_141:\n        /* \"contracts/KipuBankV3.sol\":19430:19508  require(_amount <= s_withdrawLimit, ExtractionNotAllowed(msg.sender, _amount)) */\n      tag_142\n        /* \"contracts/KipuBankV3.sol\":19290:19300  msg.sender */\n      dup2\n      caller\n      sub(shl(0x80, 0x01), 0x01)\n        /* \"contracts/KipuBankV3.sol\":19449:19464  s_withdrawLimit */\n      immutable(\"0xf5e5f362c88d870042340181c8ba3c810faeaf69b620e2b6c1b44f2a54634680\")\n        /* \"contracts/KipuBankV3.sol\":1105:22487  contract KipuBankV3 is Ownable{... */\n      and\n        /* \"contracts/KipuBankV3.sol\":19438:19464  _amount <= s_withdrawLimit */\n      dup3\n      gt\n      iszero\n        /* \"contracts/KipuBankV3.sol\":19430:19508  require(_amount <= s_withdrawLimit, ExtractionNotAllowed(msg.sender, _amount)) */\n      tag_17\n      jump\t// in\n    tag_142:\n        /* \"contracts/KipuBankV3.sol\":19290:19300  msg.sender */\n      caller\n        /* \"contracts/KipuBankV3.sol\":1105:22487  contract KipuBankV3 is Ownable{... */\n      dup3\n      mstore\n        /* \"contracts/KipuBankV3.sol\":19341:19351  s_balances */\n      0x02\n        /* \"contracts/KipuBankV3.sol\":1105:22487  contract KipuBankV3 is Ownable{... */\n      0x20\n      mstore\n      0x40\n      dup3\n      keccak256\n      0x00\n      dup1\n      mstore\n      0x20\n      mstore\n      keccak256(0x00, 0x40)\n        /* \"contracts/KipuBankV3.sol\":19521:19566  s_balances[msg.sender][address(0)] -= _amount */\n      tag_143\n        /* \"contracts/KipuBankV3.sol\":1105:22487  contract KipuBankV3 is Ownable{... */\n      dup3\n      dup3\n      sload\n        /* \"contracts/KipuBankV3.sol\":19521:19566  s_balances[msg.sender][address(0)] -= _amount */\n      tag_12\n      jump\t// in\n    tag_143:\n        /* \"contracts/KipuBankV3.sol\":1105:22487  contract KipuBankV3 is Ownable{... */\n      swap1\n      sstore\n        /* \"contracts/KipuBankV3.sol\":19290:19300  msg.sender */\n      caller\n        /* \"contracts/KipuBankV3.sol\":1105:22487  contract KipuBankV3 is Ownable{... */\n      dup3\n      mstore\n      mstore(0x20, 0x04)\n      0x40\n      dup3\n      keccak256\n      0x00\n      dup1\n      mstore\n      0x20\n      mstore\n      keccak256(0x00, 0x40)\n      0xffffffff\n        /* \"contracts/KipuBankV3.sol\":19577:19616  s_withdrawals[msg.sender][address(0)]++ */\n      tag_144\n        /* \"contracts/KipuBankV3.sol\":1105:22487  contract KipuBankV3 is Ownable{... */\n      dup2\n      dup4\n      sload\n      and\n        /* \"contracts/KipuBankV3.sol\":19577:19616  s_withdrawals[msg.sender][address(0)]++ */\n      tag_8\n      jump\t// in\n    tag_144:\n        /* \"contracts/KipuBankV3.sol\":1105:22487  contract KipuBankV3 is Ownable{... */\n      and\n      not(0xffffffff)\n      dup3\n      sload\n      and\n      or\n      swap1\n      sstore\n        /* \"contracts/KipuBankV3.sol\":19290:19300  msg.sender */\n      dup2\n      dup1\n      dup1\n      dup1\n      dup5\n      caller\n        /* \"contracts/KipuBankV3.sol\":21887:21922  msg.sender.call{value: _amount}(\"\") */\n      gas\n      call\n        /* \"contracts/KipuBankV3.sol\":1105:22487  contract KipuBankV3 is Ownable{... */\n      jumpi(tag_145, iszero(returndatasize))\n      returndatasize\n      swap1\n      0xffffffffffffffff\n      dup3\n      gt\n      tag_147\n      jumpi\n      mload(0x40)\n      swap2\n      tag_149\n        /* \"@openzeppelin/contracts/token/ERC20/utils/SafeERC20.sol\":1328:1371  abi.encodeCall(token.transfer, (to, value)) */\n      0x1f\n        /* \"contracts/KipuBankV3.sol\":1105:22487  contract KipuBankV3 is Ownable{... */\n      dup3\n      add\n      not(0x1f)\n      and\n      0x20\n      add\n      dup5\n      tag_13\n      jump\t// in\n    tag_149:\n      dup3\n      mstore\n      returndatasize\n      dup5\n      0x20\n      dup5\n      add\n      returndatacopy\n    tag_150:\n      iszero\n      tag_151\n      jumpi\n      pop\n      0x40\n      dup1\n      mload\n        /* \"contracts/KipuBankV3.sol\":19290:19300  msg.sender */\n      caller\n        /* \"contracts/KipuBankV3.sol\":1105:22487  contract KipuBankV3 is Ownable{... */\n      dup2\n      mstore\n      0x20\n      dup2\n      add\n      swap3\n      swap1\n      swap3\n      mstore\n        /* \"contracts/KipuBankV3.sol\":19683:19713  Extracted(msg.sender, _amount) */\n      0x69c169e5c85af54e1ca7e16608ccc812437821387924fb3353a7d053264ddaa0\n      swap2\n      log1\n        /* \"contracts/KipuBankV3.sol\":1105:22487  contract KipuBankV3 is Ownable{... */\n      dup1\n      return\n    tag_151:\n      0x84\n      dup3\n      0x20\n      dup6\n      mload(0x40)\n      swap5\n      dup6\n      swap4\n      shl(0xe0, 0x3fd18b85)\n      dup6\n      mstore\n        /* \"contracts/KipuBankV3.sol\":19290:19300  msg.sender */\n      caller\n        /* \"contracts/KipuBankV3.sol\":1105:22487  contract KipuBankV3 is Ownable{... */\n      0x04\n      dup7\n      add\n      mstore\n      0x24\n      dup6\n      add\n      mstore\n      0x60\n      0x44\n      dup6\n      add\n      mstore\n      dup1\n      mload\n      swap3\n      dup4\n      swap2\n      dup3\n      0x64\n      dup8\n      add\n      mstore\n      add\n      dup6\n      dup6\n      add\n      mcopy\n      dup3\n      dup3\n      add\n      dup5\n      add\n      mstore\n      0x1f\n      add\n      not(0x1f)\n      and\n      dup2\n      add\n      sub\n      add\n      swap1\n      revert\n    tag_147:\n      shl(0xe0, 0x4e487b71)\n      dup5\n      mstore\n      mstore(0x04, 0x41)\n      0x24\n      dup5\n      revert\n    tag_145:\n      0x60\n      swap1\n      jump(tag_150)\n    tag_68:\n      pop\n      jumpi(tag_224, callvalue)\n      jumpi(tag_224, slt(add(not(0x03), calldatasize), 0x80))\n      tag_158\n      tag_1\n      jump\t// in\n    tag_158:\n      tag_159\n      tag_2\n      jump\t// in\n    tag_159:\n      calldataload(0x64)\n      swap2\n      swap1\n      sub(shl(0xa0, 0x01), 0x01)\n      dup3\n      and\n      swap1\n      calldataload(0x44)\n      swap1\n        /* \"contracts/KipuBankV3.sol\":5851:5871  tokenA == address(0) */\n      dup3\n      iszero\n        /* \"contracts/KipuBankV3.sol\":5851:5895  tokenA == address(0) || tokenB == address(0) */\n      dup1\n      iszero\n      tag_160\n      jumpi\n        /* \"contracts/KipuBankV3.sol\":1105:22487  contract KipuBankV3 is Ownable{... */\n    tag_161:\n        /* \"contracts/KipuBankV3.sol\":5847:5958  if (tokenA == address(0) || tokenB == address(0)) {... */\n      tag_164\n      jumpi\n      sub(shl(0xa0, 0x01), 0x01)\n        /* \"contracts/KipuBankV3.sol\":1105:22487  contract KipuBankV3 is Ownable{... */\n      dup2\n      and\n      swap4\n        /* \"contracts/KipuBankV3.sol\":5972:5988  tokenA == tokenB */\n      dup4\n      dup6\n      eq\n        /* \"contracts/KipuBankV3.sol\":5968:6051  if (tokenA == tokenB) {... */\n      tag_164\n      jumpi\n        /* \"contracts/KipuBankV3.sol\":6229:6240  amount == 0 */\n      dup3\n      iszero\n        /* \"contracts/KipuBankV3.sol\":6225:6302  if (amount == 0) {... */\n      tag_166\n      jumpi\n        /* \"contracts/KipuBankV3.sol\":1105:22487  contract KipuBankV3 is Ownable{... */\n      mload(0x40)\n      shl(0xe0, 0xe6a43905)\n        /* \"contracts/KipuBankV3.sol\":6546:6577  FACTORY.getPair(tokenA, tokenB) */\n      dup2\n      mstore\n      sub(shl(0xa0, 0x01), 0x01)\n        /* \"contracts/KipuBankV3.sol\":1105:22487  contract KipuBankV3 is Ownable{... */\n      dup3\n      dup2\n      and\n      0x04\n        /* \"contracts/KipuBankV3.sol\":6546:6577  FACTORY.getPair(tokenA, tokenB) */\n      dup4\n      add\n        /* \"contracts/KipuBankV3.sol\":1105:22487  contract KipuBankV3 is Ownable{... */\n      mstore\n      dup4\n      dup2\n      and\n      0x24\n      dup4\n      add\n      mstore\n        /* \"contracts/KipuBankV3.sol\":6546:6553  FACTORY */\n      immutable(\"0x8ab194f5003348d2cd0d4b61d744b75b908a68a30dccd1d09f9663c874063bc9\")\n        /* \"contracts/KipuBankV3.sol\":1105:22487  contract KipuBankV3 is Ownable{... */\n      and\n      swap3\n      swap1\n      0x20\n      dup2\n      0x44\n      dup2\n      dup8\n        /* \"contracts/KipuBankV3.sol\":6546:6577  FACTORY.getPair(tokenA, tokenB) */\n      gas\n      staticcall\n      swap1\n      dup2\n      iszero\n      tag_207\n      jumpi\n        /* \"contracts/KipuBankV3.sol\":1105:22487  contract KipuBankV3 is Ownable{... */\n      0x00\n        /* \"contracts/KipuBankV3.sol\":6546:6577  FACTORY.getPair(tokenA, tokenB) */\n      swap2\n      tag_171\n      jumpi\n        /* \"contracts/KipuBankV3.sol\":1105:22487  contract KipuBankV3 is Ownable{... */\n    tag_172:\n      pop\n      sub(shl(0xa0, 0x01), 0x01)\n      and\n        /* \"contracts/KipuBankV3.sol\":6592:6610  pair == address(0) */\n      iszero\n        /* \"contracts/KipuBankV3.sol\":6588:6675  if (pair == address(0)) {... */\n      tag_173\n      jumpi\n        /* \"contracts/KipuBankV3.sol\":1105:22487  contract KipuBankV3 is Ownable{... */\n      mload(0x40)\n      shl(0xe0, 0xe6a43905)\n        /* \"contracts/KipuBankV3.sol\":9669:9703  FACTORY.getPair(tokenIn, tokenOut) */\n      dup2\n      mstore\n      sub(shl(0xa0, 0x01), 0x01)\n        /* \"contracts/KipuBankV3.sol\":1105:22487  contract KipuBankV3 is Ownable{... */\n      swap3\n      dup4\n      and\n      0x04\n        /* \"contracts/KipuBankV3.sol\":9669:9703  FACTORY.getPair(tokenIn, tokenOut) */\n      dup3\n      add\n        /* \"contracts/KipuBankV3.sol\":1105:22487  contract KipuBankV3 is Ownable{... */\n      mstore\n      swap2\n      and\n      0x24\n      dup3\n      add\n      mstore\n      swap1\n      0x20\n      swap1\n      dup3\n      swap1\n      0x44\n      swap1\n      dup3\n      swap1\n        /* \"contracts/KipuBankV3.sol\":9669:9703  FACTORY.getPair(tokenIn, tokenOut) */\n      gas\n      staticcall\n      swap1\n      dup2\n      iszero\n      tag_207\n      jumpi\n        /* \"contracts/KipuBankV3.sol\":1105:22487  contract KipuBankV3 is Ownable{... */\n      0x00\n        /* \"contracts/KipuBankV3.sol\":9669:9703  FACTORY.getPair(tokenIn, tokenOut) */\n      swap2\n      tag_178\n      jumpi\n        /* \"contracts/KipuBankV3.sol\":1105:22487  contract KipuBankV3 is Ownable{... */\n    tag_179:\n      pop\n      mload(0x40)\n      shl(0xe2, 0x0240bc6b)\n        /* \"contracts/KipuBankV3.sol\":9820:9854  IUniswapV2Pair(pair).getReserves() */\n      dup2\n      mstore\n        /* \"contracts/KipuBankV3.sol\":1105:22487  contract KipuBankV3 is Ownable{... */\n      swap1\n      sub(shl(0xa0, 0x01), 0x01)\n      dup2\n      and\n      swap1\n      0x60\n      dup4\n      0x04\n      dup2\n      dup6\n        /* \"contracts/KipuBankV3.sol\":9820:9854  IUniswapV2Pair(pair).getReserves() */\n      gas\n      staticcall\n      swap3\n      dup4\n      iszero\n      tag_207\n      jumpi\n        /* \"contracts/KipuBankV3.sol\":1105:22487  contract KipuBankV3 is Ownable{... */\n      0x00\n      swap1\n      0x00\n        /* \"contracts/KipuBankV3.sol\":9820:9854  IUniswapV2Pair(pair).getReserves() */\n      swap5\n      tag_182\n      jumpi\n        /* \"contracts/KipuBankV3.sol\":1105:22487  contract KipuBankV3 is Ownable{... */\n    tag_183:\n      pop\n      mload(0x40)\n      shl(0xe0, 0x0dfe1681)\n        /* \"contracts/KipuBankV3.sol\":9938:9967  IUniswapV2Pair(pair).token0() */\n      dup2\n      mstore\n      sub(shl(0x70, 0x01), 0x01)\n        /* \"contracts/KipuBankV3.sol\":1105:22487  contract KipuBankV3 is Ownable{... */\n      swap5\n      dup6\n      and\n      swap5\n      swap1\n      swap2\n      and\n      0x20\n      dup3\n      0x04\n      dup2\n        /* \"contracts/KipuBankV3.sol\":9938:9967  IUniswapV2Pair(pair).token0() */\n      dup8\n      gas\n      staticcall\n      swap2\n      dup3\n      iszero\n      tag_207\n      jumpi\n        /* \"contracts/KipuBankV3.sol\":10114:10214  getAmountOut(amountIn, token0IsTokenIn ? reserve0 : reserve1, token0IsTokenIn ? reserve1 : reserve0) */\n      tag_186\n        /* \"contracts/KipuBankV3.sol\":9938:9967  IUniswapV2Pair(pair).token0() */\n      swap3\n      dup9\n      swap2\n        /* \"contracts/KipuBankV3.sol\":1105:22487  contract KipuBankV3 is Ownable{... */\n      0x00\n        /* \"contracts/KipuBankV3.sol\":9938:9967  IUniswapV2Pair(pair).token0() */\n      swap2\n      tag_187\n      jumpi\n        /* \"contracts/KipuBankV3.sol\":1105:22487  contract KipuBankV3 is Ownable{... */\n    tag_188:\n      pop\n      sub(shl(0xa0, 0x01), 0x01)\n      and\n        /* \"contracts/KipuBankV3.sol\":10001:10018  token0 == tokenIn */\n      eq\n      swap5\n        /* \"contracts/KipuBankV3.sol\":10137:10174  token0IsTokenIn ? reserve0 : reserve1 */\n      dup6\n      iszero\n      tag_189\n      jumpi\n      dup2\n    tag_191:\n        /* \"contracts/KipuBankV3.sol\":10176:10213  token0IsTokenIn ? reserve1 : reserve0 */\n      dup7\n      iszero\n      tag_192\n      jumpi\n      pop\n      swap1\n    tag_194:\n        /* \"contracts/KipuBankV3.sol\":10114:10214  getAmountOut(amountIn, token0IsTokenIn ? reserve0 : reserve1, token0IsTokenIn ? reserve1 : reserve0) */\n      dup7\n      tag_5\n      jump\t// in\n    tag_186:\n        /* \"contracts/KipuBankV3.sol\":10306:10338  amountOutExpected < amountOutMin */\n      swap1\n      dup8\n      dup3\n      lt\n        /* \"contracts/KipuBankV3.sol\":10302:10411  if (amountOutExpected < amountOutMin) {... */\n      tag_195\n      jumpi\n        /* \"contracts/KipuBankV3.sol\":10525:10535  msg.sender */\n      dup5\n        /* \"contracts/KipuBankV3.sol\":10543:10551  amountIn */\n      tag_197\n        /* \"contracts/KipuBankV3.sol\":10525:10535  msg.sender */\n      swap2\n      caller\n        /* \"contracts/KipuBankV3.sol\":10543:10551  amountIn */\n      dup9\n      tag_20\n      jump\t// in\n    tag_197:\n        /* \"contracts/KipuBankV3.sol\":1105:22487  contract KipuBankV3 is Ownable{... */\n      mload(0x40)\n      shl(0xe0, 0x70a08231)\n        /* \"contracts/KipuBankV3.sol\":10656:10697  IERC20(tokenOut).balanceOf(address(this)) */\n      dup2\n      mstore\n        /* \"contracts/KipuBankV3.sol\":10691:10695  this */\n      address\n        /* \"contracts/KipuBankV3.sol\":1105:22487  contract KipuBankV3 is Ownable{... */\n      0x04\n        /* \"contracts/KipuBankV3.sol\":10656:10697  IERC20(tokenOut).balanceOf(address(this)) */\n      dup3\n      add\n        /* \"contracts/KipuBankV3.sol\":1105:22487  contract KipuBankV3 is Ownable{... */\n      mstore\n      swap3\n      0x20\n      dup5\n      0x24\n      dup2\n        /* \"contracts/KipuBankV3.sol\":10656:10697  IERC20(tokenOut).balanceOf(address(this)) */\n      dup11\n      gas\n      staticcall\n      swap4\n      dup5\n      iszero\n      tag_207\n      jumpi\n        /* \"contracts/KipuBankV3.sol\":1105:22487  contract KipuBankV3 is Ownable{... */\n      0x00\n        /* \"contracts/KipuBankV3.sol\":10656:10697  IERC20(tokenOut).balanceOf(address(this)) */\n      swap5\n      tag_200\n      jumpi\n        /* \"contracts/KipuBankV3.sol\":10176:10213  token0IsTokenIn ? reserve1 : reserve0 */\n    tag_201:\n      pop\n        /* \"contracts/KipuBankV3.sol\":10810:11009  if (token0IsTokenIn) {... */\n      iszero\n      tag_202\n      jumpi\n        /* \"contracts/KipuBankV3.sol\":1105:22487  contract KipuBankV3 is Ownable{... */\n      0x00\n        /* \"contracts/KipuBankV3.sol\":10875:10905  amount1Out = amountOutExpected */\n      swap1\n        /* \"contracts/KipuBankV3.sol\":10810:11009  if (token0IsTokenIn) {... */\n    tag_204:\n        /* \"contracts/KipuBankV3.sol\":11021:11089  IUniswapV2Pair(pair).swap(amount0Out, amount1Out, address(this), \"\") */\n      dup3\n      extcodesize\n      iszero\n      tag_224\n      jumpi\n      0xa4\n        /* \"contracts/KipuBankV3.sol\":1105:22487  contract KipuBankV3 is Ownable{... */\n      0x00\n      swap3\n      dup4\n      mload(0x40)\n      swap6\n      dup7\n      swap5\n      dup6\n      swap4\n      shl(0xe0, 0x022c0d9f)\n        /* \"contracts/KipuBankV3.sol\":11021:11089  IUniswapV2Pair(pair).swap(amount0Out, amount1Out, address(this), \"\") */\n      dup6\n      mstore\n        /* \"contracts/KipuBankV3.sol\":1105:22487  contract KipuBankV3 is Ownable{... */\n      0x04\n        /* \"contracts/KipuBankV3.sol\":11021:11089  IUniswapV2Pair(pair).swap(amount0Out, amount1Out, address(this), \"\") */\n      dup6\n      add\n        /* \"contracts/KipuBankV3.sol\":1105:22487  contract KipuBankV3 is Ownable{... */\n      mstore\n      0x24\n      dup5\n      add\n      mstore\n        /* \"contracts/KipuBankV3.sol\":10691:10695  this */\n      address\n        /* \"contracts/KipuBankV3.sol\":1105:22487  contract KipuBankV3 is Ownable{... */\n      0x44\n      dup5\n      add\n      mstore\n      0x80\n      0x64\n      dup5\n      add\n      mstore\n      dup2\n      0x84\n      dup5\n      add\n      mstore\n        /* \"contracts/KipuBankV3.sol\":11021:11089  IUniswapV2Pair(pair).swap(amount0Out, amount1Out, address(this), \"\") */\n      gas\n      call\n      dup1\n      iszero\n      tag_207\n      jumpi\n      tag_209\n      jumpi\n        /* \"contracts/KipuBankV3.sol\":10810:11009  if (token0IsTokenIn) {... */\n    tag_210:\n      pop\n        /* \"contracts/KipuBankV3.sol\":1105:22487  contract KipuBankV3 is Ownable{... */\n      mload(0x40)\n      shl(0xe0, 0x70a08231)\n        /* \"contracts/KipuBankV3.sol\":11200:11241  IERC20(tokenOut).balanceOf(address(this)) */\n      dup2\n      mstore\n        /* \"contracts/KipuBankV3.sol\":10691:10695  this */\n      address\n        /* \"contracts/KipuBankV3.sol\":1105:22487  contract KipuBankV3 is Ownable{... */\n      0x04\n        /* \"contracts/KipuBankV3.sol\":11200:11241  IERC20(tokenOut).balanceOf(address(this)) */\n      dup3\n      add\n        /* \"contracts/KipuBankV3.sol\":1105:22487  contract KipuBankV3 is Ownable{... */\n      mstore\n      swap1\n      0x20\n      dup3\n      0x24\n      dup2\n        /* \"contracts/KipuBankV3.sol\":11200:11241  IERC20(tokenOut).balanceOf(address(this)) */\n      dup9\n      gas\n      staticcall\n      dup1\n      iszero\n      tag_211\n      jumpi\n      dup8\n      swap1\n      tag_213\n      jumpi\n        /* \"contracts/KipuBankV3.sol\":10810:11009  if (token0IsTokenIn) {... */\n    tag_214:\n        /* \"contracts/KipuBankV3.sol\":11264:11292  balanceAfter - balanceBefore */\n      tag_215\n      swap3\n      pop\n      tag_12\n      jump\t// in\n    tag_215:\n        /* \"contracts/KipuBankV3.sol\":11395:11419  amountOut < amountOutMin */\n      swap4\n      dup5\n      lt\n        /* \"contracts/KipuBankV3.sol\":11391:11492  if (amountOut < amountOutMin) {... */\n      tag_216\n      jumpi\n        /* \"contracts/KipuBankV3.sol\":1105:22487  contract KipuBankV3 is Ownable{... */\n      mload(0x40)\n      shl(0xe0, 0xa9059cbb)\n      0x20\n        /* \"@openzeppelin/contracts/token/ERC20/utils/SafeERC20.sol\":1328:1371  abi.encodeCall(token.transfer, (to, value)) */\n      dup1\n      dup4\n      add\n      swap2\n      swap1\n      swap2\n      mstore\n        /* \"contracts/KipuBankV3.sol\":10525:10535  msg.sender */\n      caller\n        /* \"contracts/KipuBankV3.sol\":1105:22487  contract KipuBankV3 is Ownable{... */\n      0x24\n        /* \"@openzeppelin/contracts/token/ERC20/utils/SafeERC20.sol\":1328:1371  abi.encodeCall(token.transfer, (to, value)) */\n      dup4\n      add\n        /* \"contracts/KipuBankV3.sol\":1105:22487  contract KipuBankV3 is Ownable{... */\n      mstore\n      0x44\n      dup1\n      dup4\n      add\n      dup8\n      swap1\n      mstore\n        /* \"@openzeppelin/contracts/token/ERC20/utils/SafeERC20.sol\":1328:1371  abi.encodeCall(token.transfer, (to, value)) */\n      dup3\n      mstore\n        /* \"contracts/KipuBankV3.sol\":1105:22487  contract KipuBankV3 is Ownable{... */\n      swap6\n      pop\n        /* \"@openzeppelin/contracts/token/ERC20/utils/SafeERC20.sol\":1328:1371  abi.encodeCall(token.transfer, (to, value)) */\n      tag_218\n      swap1\n      tag_219\n        /* \"contracts/KipuBankV3.sol\":1105:22487  contract KipuBankV3 is Ownable{... */\n      0x64\n      dup3\n        /* \"@openzeppelin/contracts/token/ERC20/utils/SafeERC20.sol\":1328:1371  abi.encodeCall(token.transfer, (to, value)) */\n      tag_13\n      jump\t// in\n    tag_219:\n      dup5\n      tag_22\n      jump\t// in\n    tag_218:\n        /* \"contracts/KipuBankV3.sol\":1105:22487  contract KipuBankV3 is Ownable{... */\n      mload(0x40)\n      swap1\n      dup2\n      mstore\n      dup4\n      dup6\n      dup3\n      add\n      mstore\n        /* \"contracts/KipuBankV3.sol\":11645:11720  SwapModule_SwapExecuted(msg.sender, tokenIn, tokenOut, amountIn, amountOut) */\n      0xbd2aae55ffcd1c593bdb2daa466be5e1ed5bcb86b7d4da90ae3ecea741551724\n        /* \"contracts/KipuBankV3.sol\":1105:22487  contract KipuBankV3 is Ownable{... */\n      0x40\n        /* \"contracts/KipuBankV3.sol\":10525:10535  msg.sender */\n      caller\n        /* \"contracts/KipuBankV3.sol\":11645:11720  SwapModule_SwapExecuted(msg.sender, tokenIn, tokenOut, amountIn, amountOut) */\n      swap3\n      log4\n        /* \"contracts/KipuBankV3.sol\":1105:22487  contract KipuBankV3 is Ownable{... */\n      mload(0x40)\n      swap1\n      dup2\n      mstore\n      return\n        /* \"contracts/KipuBankV3.sol\":11391:11492  if (amountOut < amountOutMin) {... */\n    tag_216:\n      shl(0xe4, 0x05225ced)\n        /* \"contracts/KipuBankV3.sol\":11443:11480  SwapModule_InsufficientOutputAmount() */\n      dup6\n      mstore\n        /* \"contracts/KipuBankV3.sol\":1105:22487  contract KipuBankV3 is Ownable{... */\n      0x04\n        /* \"contracts/KipuBankV3.sol\":10362:10399  SwapModule_InsufficientOutputAmount() */\n      dup6\n        /* \"contracts/KipuBankV3.sol\":11443:11480  SwapModule_InsufficientOutputAmount() */\n      revert\n        /* \"contracts/KipuBankV3.sol\":11200:11241  IERC20(tokenOut).balanceOf(address(this)) */\n    tag_213:\n      pop\n        /* \"contracts/KipuBankV3.sol\":1105:22487  contract KipuBankV3 is Ownable{... */\n      0x20\n        /* \"contracts/KipuBankV3.sol\":11200:11241  IERC20(tokenOut).balanceOf(address(this)) */\n      dup3\n      returndatasize\n        /* \"contracts/KipuBankV3.sol\":1105:22487  contract KipuBankV3 is Ownable{... */\n      0x20\n        /* \"contracts/KipuBankV3.sol\":11200:11241  IERC20(tokenOut).balanceOf(address(this)) */\n      gt\n      tag_221\n      jumpi\n    tag_222:\n      dup2\n      tag_223\n        /* \"contracts/KipuBankV3.sol\":1105:22487  contract KipuBankV3 is Ownable{... */\n      0x20\n        /* \"contracts/KipuBankV3.sol\":11200:11241  IERC20(tokenOut).balanceOf(address(this)) */\n      swap4\n      dup4\n      tag_13\n      jump\t// in\n    tag_223:\n      dup2\n      add\n        /* \"contracts/KipuBankV3.sol\":1105:22487  contract KipuBankV3 is Ownable{... */\n      sub\n      slt\n      tag_224\n      jumpi\n        /* \"contracts/KipuBankV3.sol\":11264:11292  balanceAfter - balanceBefore */\n      tag_215\n        /* \"contracts/KipuBankV3.sol\":1105:22487  contract KipuBankV3 is Ownable{... */\n      swap2\n      mload\n        /* \"contracts/KipuBankV3.sol\":11200:11241  IERC20(tokenOut).balanceOf(address(this)) */\n      jump(tag_214)\n        /* \"contracts/KipuBankV3.sol\":1105:22487  contract KipuBankV3 is Ownable{... */\n    tag_224:\n      0x00\n      dup1\n      revert\n        /* \"contracts/KipuBankV3.sol\":11200:11241  IERC20(tokenOut).balanceOf(address(this)) */\n    tag_221:\n      returndatasize\n      swap2\n      pop\n      jump(tag_222)\n    tag_211:\n        /* \"contracts/KipuBankV3.sol\":1105:22487  contract KipuBankV3 is Ownable{... */\n      mload(0x40)\n      returndatasize\n      dup10\n      dup3\n      returndatacopy\n      returndatasize\n      swap1\n      revert\n        /* \"contracts/KipuBankV3.sol\":11021:11089  IUniswapV2Pair(pair).swap(amount0Out, amount1Out, address(this), \"\") */\n    tag_209:\n      tag_226\n      swap2\n      swap7\n      pop\n        /* \"contracts/KipuBankV3.sol\":1105:22487  contract KipuBankV3 is Ownable{... */\n      0x00\n        /* \"contracts/KipuBankV3.sol\":11021:11089  IUniswapV2Pair(pair).swap(amount0Out, amount1Out, address(this), \"\") */\n      swap1\n      tag_13\n      jump\t// in\n    tag_226:\n        /* \"contracts/KipuBankV3.sol\":1105:22487  contract KipuBankV3 is Ownable{... */\n      0x00\n        /* \"contracts/KipuBankV3.sol\":11021:11089  IUniswapV2Pair(pair).swap(amount0Out, amount1Out, address(this), \"\") */\n      swap5\n      0x00\n      jump(tag_210)\n    tag_207:\n        /* \"contracts/KipuBankV3.sol\":1105:22487  contract KipuBankV3 is Ownable{... */\n      mload(0x40)\n      returndatasize\n      0x00\n      dup3\n      returndatacopy\n      returndatasize\n      swap1\n      revert\n        /* \"contracts/KipuBankV3.sol\":10810:11009  if (token0IsTokenIn) {... */\n    tag_202:\n        /* \"contracts/KipuBankV3.sol\":1105:22487  contract KipuBankV3 is Ownable{... */\n      0x00\n        /* \"contracts/KipuBankV3.sol\":10810:11009  if (token0IsTokenIn) {... */\n      jump(tag_204)\n        /* \"contracts/KipuBankV3.sol\":10656:10697  IERC20(tokenOut).balanceOf(address(this)) */\n    tag_200:\n      swap1\n      swap4\n      pop\n        /* \"contracts/KipuBankV3.sol\":1105:22487  contract KipuBankV3 is Ownable{... */\n      0x20\n        /* \"contracts/KipuBankV3.sol\":10656:10697  IERC20(tokenOut).balanceOf(address(this)) */\n      dup2\n      returndatasize\n        /* \"contracts/KipuBankV3.sol\":1105:22487  contract KipuBankV3 is Ownable{... */\n      0x20\n        /* \"contracts/KipuBankV3.sol\":10656:10697  IERC20(tokenOut).balanceOf(address(this)) */\n      gt\n      tag_227\n      jumpi\n    tag_228:\n      dup2\n      tag_229\n        /* \"contracts/KipuBankV3.sol\":1105:22487  contract KipuBankV3 is Ownable{... */\n      0x20\n        /* \"contracts/KipuBankV3.sol\":10656:10697  IERC20(tokenOut).balanceOf(address(this)) */\n      swap4\n      dup4\n      tag_13\n      jump\t// in\n    tag_229:\n      dup2\n      add\n        /* \"contracts/KipuBankV3.sol\":1105:22487  contract KipuBankV3 is Ownable{... */\n      sub\n      slt\n      tag_224\n      jumpi\n      mload\n        /* \"contracts/KipuBankV3.sol\":10656:10697  IERC20(tokenOut).balanceOf(address(this)) */\n      swap3\n      0x00\n      jump(tag_201)\n    tag_227:\n      returndatasize\n      swap2\n      pop\n      jump(tag_228)\n        /* \"contracts/KipuBankV3.sol\":10302:10411  if (amountOutExpected < amountOutMin) {... */\n    tag_195:\n        /* \"contracts/KipuBankV3.sol\":10362:10399  SwapModule_InsufficientOutputAmount() */\n      shl(0xe4, 0x05225ced)\n        /* \"contracts/KipuBankV3.sol\":1105:22487  contract KipuBankV3 is Ownable{... */\n      0x00\n        /* \"contracts/KipuBankV3.sol\":10362:10399  SwapModule_InsufficientOutputAmount() */\n      mstore\n        /* \"contracts/KipuBankV3.sol\":1105:22487  contract KipuBankV3 is Ownable{... */\n      0x04\n      0x00\n        /* \"contracts/KipuBankV3.sol\":10362:10399  SwapModule_InsufficientOutputAmount() */\n      revert\n        /* \"contracts/KipuBankV3.sol\":10176:10213  token0IsTokenIn ? reserve1 : reserve0 */\n    tag_192:\n      swap1\n      pop\n      swap1\n      jump(tag_194)\n        /* \"contracts/KipuBankV3.sol\":10137:10174  token0IsTokenIn ? reserve0 : reserve1 */\n    tag_189:\n      dup1\n      swap2\n      jump(tag_191)\n        /* \"contracts/KipuBankV3.sol\":9938:9967  IUniswapV2Pair(pair).token0() */\n    tag_187:\n      tag_232\n      swap2\n      pop\n        /* \"contracts/KipuBankV3.sol\":1105:22487  contract KipuBankV3 is Ownable{... */\n      0x20\n        /* \"contracts/KipuBankV3.sol\":9938:9967  IUniswapV2Pair(pair).token0() */\n      returndatasize\n        /* \"contracts/KipuBankV3.sol\":1105:22487  contract KipuBankV3 is Ownable{... */\n      0x20\n        /* \"contracts/KipuBankV3.sol\":9938:9967  IUniswapV2Pair(pair).token0() */\n      gt\n      tag_117\n      jumpi\n      tag_119\n      dup2\n      dup4\n      tag_13\n      jump\t// in\n    tag_232:\n      0x00\n      jump(tag_188)\n        /* \"contracts/KipuBankV3.sol\":9820:9854  IUniswapV2Pair(pair).getReserves() */\n    tag_182:\n      swap4\n      pop\n      pop\n        /* \"contracts/KipuBankV3.sol\":1105:22487  contract KipuBankV3 is Ownable{... */\n      0x60\n        /* \"contracts/KipuBankV3.sol\":9820:9854  IUniswapV2Pair(pair).getReserves() */\n      dup4\n      returndatasize\n        /* \"contracts/KipuBankV3.sol\":1105:22487  contract KipuBankV3 is Ownable{... */\n      0x60\n        /* \"contracts/KipuBankV3.sol\":9820:9854  IUniswapV2Pair(pair).getReserves() */\n      gt\n      tag_236\n      jumpi\n    tag_237:\n      dup2\n      tag_238\n        /* \"contracts/KipuBankV3.sol\":1105:22487  contract KipuBankV3 is Ownable{... */\n      0x60\n        /* \"contracts/KipuBankV3.sol\":9820:9854  IUniswapV2Pair(pair).getReserves() */\n      swap4\n      dup4\n      tag_13\n      jump\t// in\n    tag_238:\n      dup2\n      add\n        /* \"contracts/KipuBankV3.sol\":1105:22487  contract KipuBankV3 is Ownable{... */\n      sub\n      slt\n      tag_224\n      jumpi\n      tag_241\n      dup4\n      tag_16\n      jump\t// in\n    tag_241:\n      0x40\n      tag_242\n      0x20\n      dup7\n      add\n      tag_16\n      jump\t// in\n    tag_242:\n      swap5\n      add\n      mload\n      0xffffffff\n      dup2\n      and\n      sub\n      tag_224\n      jumpi\n      sub(shl(0x70, 0x01), 0x01)\n        /* \"contracts/KipuBankV3.sol\":9820:9854  IUniswapV2Pair(pair).getReserves() */\n      jump(tag_183)\n    tag_236:\n      returndatasize\n      swap2\n      pop\n      jump(tag_237)\n        /* \"contracts/KipuBankV3.sol\":9669:9703  FACTORY.getPair(tokenIn, tokenOut) */\n    tag_178:\n      tag_245\n      swap2\n      pop\n        /* \"contracts/KipuBankV3.sol\":1105:22487  contract KipuBankV3 is Ownable{... */\n      0x20\n        /* \"contracts/KipuBankV3.sol\":9669:9703  FACTORY.getPair(tokenIn, tokenOut) */\n      returndatasize\n        /* \"contracts/KipuBankV3.sol\":1105:22487  contract KipuBankV3 is Ownable{... */\n      0x20\n        /* \"contracts/KipuBankV3.sol\":9669:9703  FACTORY.getPair(tokenIn, tokenOut) */\n      gt\n      tag_117\n      jumpi\n      tag_119\n      dup2\n      dup4\n      tag_13\n      jump\t// in\n    tag_245:\n      0x00\n      jump(tag_179)\n        /* \"contracts/KipuBankV3.sol\":6588:6675  if (pair == address(0)) {... */\n    tag_173:\n        /* \"contracts/KipuBankV3.sol\":6634:6663  SwapModule_PairDoesNotExist() */\n      shl(0xe0, 0xaaaf18ff)\n        /* \"contracts/KipuBankV3.sol\":1105:22487  contract KipuBankV3 is Ownable{... */\n      0x00\n        /* \"contracts/KipuBankV3.sol\":6634:6663  SwapModule_PairDoesNotExist() */\n      mstore\n        /* \"contracts/KipuBankV3.sol\":1105:22487  contract KipuBankV3 is Ownable{... */\n      0x04\n      0x00\n        /* \"contracts/KipuBankV3.sol\":6634:6663  SwapModule_PairDoesNotExist() */\n      revert\n        /* \"contracts/KipuBankV3.sol\":6546:6577  FACTORY.getPair(tokenA, tokenB) */\n    tag_171:\n      tag_249\n      swap2\n      pop\n        /* \"contracts/KipuBankV3.sol\":1105:22487  contract KipuBankV3 is Ownable{... */\n      0x20\n        /* \"contracts/KipuBankV3.sol\":6546:6577  FACTORY.getPair(tokenA, tokenB) */\n      returndatasize\n        /* \"contracts/KipuBankV3.sol\":1105:22487  contract KipuBankV3 is Ownable{... */\n      0x20\n        /* \"contracts/KipuBankV3.sol\":6546:6577  FACTORY.getPair(tokenA, tokenB) */\n      gt\n      tag_117\n      jumpi\n      tag_119\n      dup2\n      dup4\n      tag_13\n      jump\t// in\n    tag_249:\n      0x00\n      jump(tag_172)\n        /* \"contracts/KipuBankV3.sol\":6225:6302  if (amount == 0) {... */\n    tag_166:\n        /* \"contracts/KipuBankV3.sol\":6264:6290  SwapModule_InvalidAmount() */\n      shl(0xe2, 0x36190de5)\n        /* \"contracts/KipuBankV3.sol\":1105:22487  contract KipuBankV3 is Ownable{... */\n      0x00\n        /* \"contracts/KipuBankV3.sol\":6264:6290  SwapModule_InvalidAmount() */\n      mstore\n        /* \"contracts/KipuBankV3.sol\":1105:22487  contract KipuBankV3 is Ownable{... */\n      0x04\n      0x00\n        /* \"contracts/KipuBankV3.sol\":6264:6290  SwapModule_InvalidAmount() */\n      revert\n        /* \"contracts/KipuBankV3.sol\":5968:6051  if (tokenA == tokenB) {... */\n    tag_164:\n        /* \"contracts/KipuBankV3.sol\":5919:5946  SwapModule_InvalidAddress() */\n      shl(0xe1, 0x206e9db1)\n        /* \"contracts/KipuBankV3.sol\":1105:22487  contract KipuBankV3 is Ownable{... */\n      0x00\n        /* \"contracts/KipuBankV3.sol\":6012:6039  SwapModule_InvalidAddress() */\n      mstore\n        /* \"contracts/KipuBankV3.sol\":1105:22487  contract KipuBankV3 is Ownable{... */\n      0x04\n      0x00\n        /* \"contracts/KipuBankV3.sol\":6012:6039  SwapModule_InvalidAddress() */\n      revert\n        /* \"contracts/KipuBankV3.sol\":5851:5895  tokenA == address(0) || tokenB == address(0) */\n    tag_160:\n      pop\n      sub(shl(0xa0, 0x01), 0x01)\n        /* \"contracts/KipuBankV3.sol\":1105:22487  contract KipuBankV3 is Ownable{... */\n      dup2\n      and\n        /* \"contracts/KipuBankV3.sol\":5875:5895  tokenB == address(0) */\n      iszero\n        /* \"contracts/KipuBankV3.sol\":5851:5895  tokenA == address(0) || tokenB == address(0) */\n      jump(tag_161)\n        /* \"contracts/KipuBankV3.sol\":1105:22487  contract KipuBankV3 is Ownable{... */\n    tag_66:\n      jumpi(tag_224, callvalue)\n      jumpi(tag_224, slt(add(not(0x03), calldatasize), 0x20))\n      tag_257\n      tag_1\n      jump\t// in\n    tag_257:\n        /* \"contracts/KipuBankV3.sol\":14494:14504  msg.sender */\n      caller\n        /* \"contracts/KipuBankV3.sol\":1105:22487  contract KipuBankV3 is Ownable{... */\n      0x00\n      mstore\n        /* \"contracts/KipuBankV3.sol\":14483:14493  s_balances */\n      0x02\n        /* \"contracts/KipuBankV3.sol\":1105:22487  contract KipuBankV3 is Ownable{... */\n      0x20\n      mstore\n      keccak256(0x00, 0x40)\n        /* \"contracts/KipuBankV3.sol\":14483:14520  s_balances[msg.sender][_tokenAddress] */\n      swap1\n        /* \"contracts/KipuBankV3.sol\":1105:22487  contract KipuBankV3 is Ownable{... */\n      0x01\n      dup1\n      0xa0\n      shl\n      sub\n      and\n      0x00\n      mstore\n      0x20\n      mstore\n      0x20\n      sload(keccak256(0x00, 0x40))\n      mload(0x40)\n      swap1\n      dup2\n      mstore\n      return\n    tag_64:\n      jumpi(tag_224, callvalue)\n      jumpi(tag_224, slt(add(not(0x03), calldatasize), 0x20))\n      tag_262\n      tag_1\n      jump\t// in\n    tag_262:\n        /* \"contracts/KipuBankV3.sol\":14866:14876  msg.sender */\n      caller\n        /* \"contracts/KipuBankV3.sol\":1105:22487  contract KipuBankV3 is Ownable{... */\n      0x00\n      mstore\n        /* \"contracts/KipuBankV3.sol\":14855:14865  s_deposits */\n      0x03\n        /* \"contracts/KipuBankV3.sol\":1105:22487  contract KipuBankV3 is Ownable{... */\n      0x20\n      mstore\n      keccak256(0x00, 0x40)\n        /* \"contracts/KipuBankV3.sol\":14855:14892  s_deposits[msg.sender][_tokenAddress] */\n      swap1\n        /* \"contracts/KipuBankV3.sol\":1105:22487  contract KipuBankV3 is Ownable{... */\n      0x01\n      dup1\n      0xa0\n      shl\n      sub\n      and\n      0x00\n      mstore\n      0x20\n      mstore\n      0x20\n      and(sload(keccak256(0x00, 0x40)), 0xffffffff)\n      mload(0x40)\n      swap1\n      dup2\n      mstore\n      return\n    tag_62:\n      jumpi(tag_224, callvalue)\n      jumpi(tag_224, slt(add(not(0x03), calldatasize), 0x40))\n        /* \"contracts/KipuBankV3.sol\":20571:20621  ERC20Extracted(msg.sender, _tokenAddress, _amount) */\n      0xd0164496e26f9675acaea59fb065313e45d71d1d3e09d3681765773cd4aa1918\n        /* \"contracts/KipuBankV3.sol\":1105:22487  contract KipuBankV3 is Ownable{... */\n      tag_267\n      tag_1\n      jump\t// in\n    tag_267:\n      calldataload(0x24)\n        /* \"contracts/KipuBankV3.sol\":20206:20216  msg.sender */\n      swap1\n        /* \"contracts/KipuBankV3.sol\":20159:20242  require(_amount > 0, ERC20ExtractionNotAllowed(msg.sender, _tokenAddress, _amount)) */\n      tag_268\n        /* \"contracts/KipuBankV3.sol\":20206:20216  msg.sender */\n      dup3\n      dup3\n      caller\n        /* \"contracts/KipuBankV3.sol\":20167:20178  _amount > 0 */\n      dup3\n      iszero\n      iszero\n        /* \"contracts/KipuBankV3.sol\":20159:20242  require(_amount > 0, ERC20ExtractionNotAllowed(msg.sender, _tokenAddress, _amount)) */\n      tag_11\n      jump\t// in\n    tag_268:\n        /* \"contracts/KipuBankV3.sol\":20206:20216  msg.sender */\n      caller\n        /* \"contracts/KipuBankV3.sol\":1105:22487  contract KipuBankV3 is Ownable{... */\n      0x00\n      mstore\n        /* \"contracts/KipuBankV3.sol\":20272:20282  s_balances */\n      0x02\n        /* \"contracts/KipuBankV3.sol\":1105:22487  contract KipuBankV3 is Ownable{... */\n      0x20\n      mstore\n      keccak256(0x00, 0x40)\n      0x01\n      dup1\n      0xa0\n      shl\n      sub\n      dup3\n      and\n      0x00\n      mstore\n      0x20\n      mstore\n        /* \"contracts/KipuBankV3.sol\":20253:20373  require(_amount <= s_balances[msg.sender][_tokenAddress], ERC20ExtractionNotAllowed(msg.sender, _tokenAddress, _amount)) */\n      tag_269\n        /* \"contracts/KipuBankV3.sol\":1105:22487  contract KipuBankV3 is Ownable{... */\n      dup3\n      dup3\n      keccak256(0x00, 0x40)\n        /* \"contracts/KipuBankV3.sol\":20206:20216  msg.sender */\n      caller\n        /* \"contracts/KipuBankV3.sol\":1105:22487  contract KipuBankV3 is Ownable{... */\n      swap1\n      sload\n        /* \"contracts/KipuBankV3.sol\":20261:20309  _amount <= s_balances[msg.sender][_tokenAddress] */\n      dup4\n      gt\n      iszero\n        /* \"contracts/KipuBankV3.sol\":20253:20373  require(_amount <= s_balances[msg.sender][_tokenAddress], ERC20ExtractionNotAllowed(msg.sender, _tokenAddress, _amount)) */\n      tag_11\n      jump\t// in\n    tag_269:\n        /* \"contracts/KipuBankV3.sol\":20206:20216  msg.sender */\n      caller\n        /* \"contracts/KipuBankV3.sol\":1105:22487  contract KipuBankV3 is Ownable{... */\n      0x00\n      mstore\n        /* \"contracts/KipuBankV3.sol\":20272:20282  s_balances */\n      0x02\n        /* \"contracts/KipuBankV3.sol\":1105:22487  contract KipuBankV3 is Ownable{... */\n      0x20\n      mstore\n      keccak256(0x00, 0x40)\n      0x01\n      dup1\n      0xa0\n      shl\n      sub\n      dup3\n      and\n      0x00\n      mstore\n      0x20\n      mstore\n      keccak256(0x00, 0x40)\n        /* \"contracts/KipuBankV3.sol\":20386:20434  s_balances[msg.sender][_tokenAddress] -= _amount */\n      tag_270\n        /* \"contracts/KipuBankV3.sol\":1105:22487  contract KipuBankV3 is Ownable{... */\n      dup4\n      dup3\n      sload\n        /* \"contracts/KipuBankV3.sol\":20386:20434  s_balances[msg.sender][_tokenAddress] -= _amount */\n      tag_12\n      jump\t// in\n    tag_270:\n        /* \"contracts/KipuBankV3.sol\":1105:22487  contract KipuBankV3 is Ownable{... */\n      swap1\n      sstore\n        /* \"contracts/KipuBankV3.sol\":20206:20216  msg.sender */\n      caller\n        /* \"contracts/KipuBankV3.sol\":1105:22487  contract KipuBankV3 is Ownable{... */\n      0x00\n      mstore\n      mstore(0x20, 0x04)\n      keccak256(0x00, 0x40)\n      0x01\n      dup1\n      0xa0\n      shl\n      sub\n      dup3\n      and\n      0x00\n      mstore\n      0x20\n      mstore\n      keccak256(0x00, 0x40)\n      0xffffffff\n        /* \"contracts/KipuBankV3.sol\":20445:20487  s_withdrawals[msg.sender][_tokenAddress]++ */\n      tag_271\n        /* \"contracts/KipuBankV3.sol\":1105:22487  contract KipuBankV3 is Ownable{... */\n      dup2\n      dup4\n      sload\n      and\n        /* \"contracts/KipuBankV3.sol\":20445:20487  s_withdrawals[msg.sender][_tokenAddress]++ */\n      tag_8\n      jump\t// in\n    tag_271:\n        /* \"contracts/KipuBankV3.sol\":1105:22487  contract KipuBankV3 is Ownable{... */\n      dup3\n      sload\n      not(0xffffffff)\n      and\n      swap2\n      and\n      or\n      swap1\n      sstore\n        /* \"contracts/KipuBankV3.sol\":22460:22467  _amount */\n      tag_272\n        /* \"contracts/KipuBankV3.sol\":20206:20216  msg.sender */\n      dup3\n      caller\n        /* \"contracts/KipuBankV3.sol\":22441:22445  this */\n      address\n      sub(shl(0xa0, 0x01), 0x01)\n        /* \"contracts/KipuBankV3.sol\":1105:22487  contract KipuBankV3 is Ownable{... */\n      dup6\n      and\n        /* \"contracts/KipuBankV3.sol\":22460:22467  _amount */\n      tag_20\n      jump\t// in\n    tag_272:\n        /* \"contracts/KipuBankV3.sol\":1105:22487  contract KipuBankV3 is Ownable{... */\n      0x40\n      dup1\n      mload\n        /* \"contracts/KipuBankV3.sol\":20206:20216  msg.sender */\n      caller\n        /* \"contracts/KipuBankV3.sol\":1105:22487  contract KipuBankV3 is Ownable{... */\n      dup2\n      mstore\n      sub(shl(0xa0, 0x01), 0x01)\n      swap3\n      swap1\n      swap3\n      and\n      0x20\n      dup4\n      add\n      mstore\n      dup2\n      add\n      swap2\n      swap1\n      swap2\n      mstore\n      0x60\n      swap1\n        /* \"contracts/KipuBankV3.sol\":20571:20621  ERC20Extracted(msg.sender, _tokenAddress, _amount) */\n      log1\n        /* \"contracts/KipuBankV3.sol\":1105:22487  contract KipuBankV3 is Ownable{... */\n      stop\n    tag_60:\n      jumpi(tag_224, callvalue)\n      jumpi(tag_224, slt(add(not(0x03), calldatasize), 0x40))\n        /* \"contracts/KipuBankV3.sol\":8722:8729  _amount */\n      tag_27\n        /* \"contracts/KipuBankV3.sol\":1105:22487  contract KipuBankV3 is Ownable{... */\n      tag_279\n      tag_1\n      jump\t// in\n    tag_279:\n      calldataload(0x24)\n        /* \"contracts/KipuBankV3.sol\":8446:8456  msg.sender */\n      swap1\n        /* \"contracts/KipuBankV3.sol\":8407:8466  require(_amount > 0, DepositNotAllowed(msg.sender,_amount)) */\n      tag_280\n        /* \"contracts/KipuBankV3.sol\":8446:8456  msg.sender */\n      dup3\n      caller\n        /* \"contracts/KipuBankV3.sol\":8415:8426  _amount > 0 */\n      dup2\n      iszero\n      iszero\n        /* \"contracts/KipuBankV3.sol\":8407:8466  require(_amount > 0, DepositNotAllowed(msg.sender,_amount)) */\n      tag_7\n      jump\t// in\n    tag_280:\n        /* \"contracts/KipuBankV3.sol\":8446:8456  msg.sender */\n      caller\n        /* \"contracts/KipuBankV3.sol\":1105:22487  contract KipuBankV3 is Ownable{... */\n      0x00\n      mstore\n        /* \"contracts/KipuBankV3.sol\":8477:8487  s_balances */\n      0x02\n        /* \"contracts/KipuBankV3.sol\":1105:22487  contract KipuBankV3 is Ownable{... */\n      0x20\n      mstore\n      keccak256(0x00, 0x40)\n      0x01\n      dup1\n      0xa0\n      shl\n      sub\n      dup3\n      and\n      0x00\n      mstore\n      0x20\n      mstore\n      keccak256(0x00, 0x40)\n        /* \"contracts/KipuBankV3.sol\":8477:8525  s_balances[msg.sender][_tokenAddress] += _amount */\n      tag_281\n        /* \"contracts/KipuBankV3.sol\":1105:22487  contract KipuBankV3 is Ownable{... */\n      dup4\n      dup3\n      sload\n        /* \"contracts/KipuBankV3.sol\":8477:8525  s_balances[msg.sender][_tokenAddress] += _amount */\n      tag_4\n      jump\t// in\n    tag_281:\n        /* \"contracts/KipuBankV3.sol\":1105:22487  contract KipuBankV3 is Ownable{... */\n      swap1\n      sstore\n        /* \"contracts/KipuBankV3.sol\":8446:8456  msg.sender */\n      caller\n        /* \"contracts/KipuBankV3.sol\":1105:22487  contract KipuBankV3 is Ownable{... */\n      0x00\n      mstore\n        /* \"contracts/KipuBankV3.sol\":8536:8546  s_deposits */\n      0x03\n        /* \"contracts/KipuBankV3.sol\":1105:22487  contract KipuBankV3 is Ownable{... */\n      0x20\n      mstore\n      keccak256(0x00, 0x40)\n      0x01\n      dup1\n      0xa0\n      shl\n      sub\n      dup3\n      and\n      0x00\n      mstore\n      0x20\n      mstore\n      keccak256(0x00, 0x40)\n      0xffffffff\n        /* \"contracts/KipuBankV3.sol\":8536:8575  s_deposits[msg.sender][_tokenAddress]++ */\n      tag_282\n        /* \"contracts/KipuBankV3.sol\":1105:22487  contract KipuBankV3 is Ownable{... */\n      dup2\n      dup4\n      sload\n      and\n        /* \"contracts/KipuBankV3.sol\":8536:8575  s_deposits[msg.sender][_tokenAddress]++ */\n      tag_8\n      jump\t// in\n    tag_282:\n        /* \"contracts/KipuBankV3.sol\":1105:22487  contract KipuBankV3 is Ownable{... */\n      dup3\n      sload\n      not(0xffffffff)\n      and\n      swap2\n      and\n      or\n      swap1\n      sstore\n      0x40\n      dup1\n      mload\n        /* \"contracts/KipuBankV3.sol\":8446:8456  msg.sender */\n      caller\n        /* \"contracts/KipuBankV3.sol\":1105:22487  contract KipuBankV3 is Ownable{... */\n      dup2\n      mstore\n      sub(shl(0xa0, 0x01), 0x01)\n      dup4\n      and\n      0x20\n      dup3\n      add\n      mstore\n      swap1\n      dup2\n      add\n      dup4\n      swap1\n      mstore\n        /* \"contracts/KipuBankV3.sol\":8593:8643  ERC20Deposited(msg.sender, _tokenAddress, _amount) */\n      0xe33e9822e3317b004d587136bab2627ea1ecfbba4eb79abddd0a56cfdd09c0e1\n      swap1\n        /* \"contracts/KipuBankV3.sol\":1105:22487  contract KipuBankV3 is Ownable{... */\n      0x60\n      swap1\n        /* \"contracts/KipuBankV3.sol\":8593:8643  ERC20Deposited(msg.sender, _tokenAddress, _amount) */\n      log1\n        /* \"contracts/KipuBankV3.sol\":8715:8719  this */\n      address\n      swap1\n        /* \"contracts/KipuBankV3.sol\":8446:8456  msg.sender */\n      caller\n      swap1\n      sub(shl(0xa0, 0x01), 0x01)\n        /* \"contracts/KipuBankV3.sol\":1105:22487  contract KipuBankV3 is Ownable{... */\n      and\n        /* \"contracts/KipuBankV3.sol\":8722:8729  _amount */\n      tag_20\n      jump\t// in\n        /* \"contracts/KipuBankV3.sol\":1105:22487  contract KipuBankV3 is Ownable{... */\n    tag_58:\n      jumpi(tag_224, callvalue)\n      jumpi(tag_224, slt(add(not(0x03), calldatasize), 0x40))\n      tag_288\n      tag_1\n      jump\t// in\n    tag_288:\n      tag_289\n      tag_2\n      jump\t// in\n    tag_289:\n        /* \"@openzeppelin/contracts/access/Ownable.sol\":1500:1562  modifier onlyOwner() {... */\n      swap1\n      tag_290\n      tag_19\n      jump\t// in\n    tag_290:\n        /* \"contracts/KipuBankV3.sol\":1105:22487  contract KipuBankV3 is Ownable{... */\n      0x01\n      dup1\n      0xa0\n      shl\n      sub\n      and\n      0x00\n      mstore\n      mstore(0x20, 0x04)\n      keccak256(0x00, 0x40)\n        /* \"contracts/KipuBankV3.sol\":18474:18509  s_withdrawals[user_][_tokenAddress] */\n      swap1\n        /* \"contracts/KipuBankV3.sol\":1105:22487  contract KipuBankV3 is Ownable{... */\n      0x01\n      dup1\n      0xa0\n      shl\n      sub\n      and\n      0x00\n      mstore\n      0x20\n      mstore\n      0x20\n      and(sload(keccak256(0x00, 0x40)), 0xffffffff)\n      mload(0x40)\n      swap1\n      dup2\n      mstore\n      return\n    tag_56:\n      jumpi(tag_224, callvalue)\n      jumpi(tag_224, slt(add(not(0x03), calldatasize), 0x20))\n      tag_295\n      tag_1\n      jump\t// in\n    tag_295:\n        /* \"@openzeppelin/contracts/access/Ownable.sol\":1500:1562  modifier onlyOwner() {... */\n      tag_296\n      tag_19\n      jump\t// in\n    tag_296:\n        /* \"contracts/KipuBankV3.sol\":1105:22487  contract KipuBankV3 is Ownable{... */\n      0x01\n      dup1\n      0xa0\n      shl\n      sub\n      and\n      0x00\n      mstore\n        /* \"contracts/KipuBankV3.sol\":16515:16525  s_deposits */\n      0x03\n        /* \"contracts/KipuBankV3.sol\":1105:22487  contract KipuBankV3 is Ownable{... */\n      0x20\n      mstore\n      keccak256(0x00, 0x40)\n      0x00\n      dup1\n      mstore\n      0x20\n      mstore\n      0x20\n      and(sload(keccak256(0x00, 0x40)), 0xffffffff)\n      mload(0x40)\n      swap1\n      dup2\n      mstore\n      return\n    tag_54:\n      jumpi(tag_224, callvalue)\n      jumpi(tag_224, slt(add(not(0x03), calldatasize), 0x00))\n      sload(0x00)\n      mload(0x40)\n      sub(shl(0xa0, 0x01), 0x01)\n      swap1\n      swap2\n      and\n      dup2\n      mstore\n      0x20\n      swap1\n      return\n    tag_52:\n      jumpi(tag_224, callvalue)\n      jumpi(tag_224, slt(add(not(0x03), calldatasize), 0x00))\n      0x20\n      mload(0x40)\n      sub(shl(0x80, 0x01), 0x01)\n        /* \"contracts/KipuBankV3.sol\":2658:2692  uint128 public immutable s_bankCap */\n      immutable(\"0xd2f7726eb1d129c4ce63d49cbf6bc48740d44f5a10e2fb1f680386f1a976123a\")\n        /* \"contracts/KipuBankV3.sol\":1105:22487  contract KipuBankV3 is Ownable{... */\n      and\n      dup2\n      mstore\n      return\n    tag_50:\n      jumpi(tag_224, callvalue)\n      jumpi(tag_224, slt(add(not(0x03), calldatasize), 0x00))\n      0x20\n      mload(0x40)\n      sub(shl(0x80, 0x01), 0x01)\n        /* \"contracts/KipuBankV3.sol\":2749:2800  uint128 public immutable s_withdrawLimit = 1*10**18 */\n      immutable(\"0xf5e5f362c88d870042340181c8ba3c810faeaf69b620e2b6c1b44f2a54634680\")\n        /* \"contracts/KipuBankV3.sol\":1105:22487  contract KipuBankV3 is Ownable{... */\n      and\n      dup2\n      mstore\n      return\n    tag_48:\n      jumpi(tag_224, callvalue)\n      jumpi(tag_224, slt(add(not(0x03), calldatasize), 0x20))\n      tag_313\n      tag_1\n      jump\t// in\n    tag_313:\n        /* \"@openzeppelin/contracts/access/Ownable.sol\":1500:1562  modifier onlyOwner() {... */\n      tag_314\n      tag_19\n      jump\t// in\n    tag_314:\n        /* \"contracts/KipuBankV3.sol\":18822:18829  s_feeds */\n      0x01\n        /* \"contracts/KipuBankV3.sol\":1105:22487  contract KipuBankV3 is Ownable{... */\n      sload\n      0x40\n      dup1\n      mload\n      sub(shl(0xa0, 0x01), 0x01)\n      dup1\n      dup5\n      and\n      dup3\n      mstore\n      swap1\n      swap4\n      and\n      0x20\n      dup5\n      add\n      dup2\n      swap1\n      mstore\n      swap3\n        /* \"contracts/KipuBankV3.sol\":18801:18860  ChainlinkFeedUpdated(s_feeds, AggregatorV3Interface(_feed)) */\n      0x3be680563c528780d5a9cd763a27b4a48ab5f9dc10e4083a2fa55b6fc5ff33e6\n      swap2\n        /* \"contracts/KipuBankV3.sol\":1105:22487  contract KipuBankV3 is Ownable{... */\n      swap1\n        /* \"contracts/KipuBankV3.sol\":18801:18860  ChainlinkFeedUpdated(s_feeds, AggregatorV3Interface(_feed)) */\n      log1\n      not(sub(shl(0xa0, 0x01), 0x01))\n        /* \"contracts/KipuBankV3.sol\":1105:22487  contract KipuBankV3 is Ownable{... */\n      and\n      or\n        /* \"contracts/KipuBankV3.sol\":18822:18829  s_feeds */\n      0x01\n        /* \"contracts/KipuBankV3.sol\":1105:22487  contract KipuBankV3 is Ownable{... */\n      sstore\n      stop\n    tag_46:\n      jumpi(tag_224, callvalue)\n      jumpi(tag_224, slt(add(not(0x03), calldatasize), 0x00))\n        /* \"@openzeppelin/contracts/access/Ownable.sol\":1500:1562  modifier onlyOwner() {... */\n      tag_319\n      tag_19\n      jump\t// in\n    tag_319:\n        /* \"contracts/KipuBankV3.sol\":1105:22487  contract KipuBankV3 is Ownable{... */\n      0x00\n      dup1\n      sload\n      not(sub(shl(0xa0, 0x01), 0x01))\n      dup2\n      and\n      dup3\n      sstore\n      sub(shl(0xa0, 0x01), 0x01)\n      and\n        /* \"@openzeppelin/contracts/access/Ownable.sol\":3052:3092  OwnershipTransferred(oldOwner, newOwner) */\n      0x8be0079c531659141344cd1fd0a4f28419497f9722a3daafe3b4186f6b6457e0\n        /* \"contracts/KipuBankV3.sol\":1105:22487  contract KipuBankV3 is Ownable{... */\n      dup3\n      dup1\n        /* \"@openzeppelin/contracts/access/Ownable.sol\":3052:3092  OwnershipTransferred(oldOwner, newOwner) */\n      log3\n        /* \"contracts/KipuBankV3.sol\":1105:22487  contract KipuBankV3 is Ownable{... */\n      stop\n    tag_44:\n      jumpi(tag_224, callvalue)\n      jumpi(tag_224, slt(add(not(0x03), calldatasize), 0x00))\n        /* \"contracts/KipuBankV3.sol\":13882:13892  msg.sender */\n      caller\n        /* \"contracts/KipuBankV3.sol\":1105:22487  contract KipuBankV3 is Ownable{... */\n      0x00\n      mstore\n        /* \"contracts/KipuBankV3.sol\":13871:13881  s_deposits */\n      0x03\n        /* \"contracts/KipuBankV3.sol\":1105:22487  contract KipuBankV3 is Ownable{... */\n      0x20\n      mstore\n      keccak256(0x00, 0x40)\n      0x00\n      dup1\n      mstore\n      0x20\n      mstore\n      0x20\n      and(sload(keccak256(0x00, 0x40)), 0xffffffff)\n      mload(0x40)\n      swap1\n      dup2\n      mstore\n      return\n    tag_42:\n      jumpi(tag_224, callvalue)\n      jumpi(tag_224, slt(add(not(0x03), calldatasize), 0x00))\n        /* \"contracts/KipuBankV3.sol\":14136:14146  msg.sender */\n      caller\n        /* \"contracts/KipuBankV3.sol\":1105:22487  contract KipuBankV3 is Ownable{... */\n      0x00\n      mstore\n      mstore(0x20, 0x04)\n      keccak256(0x00, 0x40)\n      0x00\n      dup1\n      mstore\n      0x20\n      mstore\n      0x20\n      and(sload(keccak256(0x00, 0x40)), 0xffffffff)\n      mload(0x40)\n      swap1\n      dup2\n      mstore\n      return\n    tag_40:\n      jumpi(tag_224, slt(add(not(0x03), calldatasize), 0x00))\n      tag_27\n      tag_9\n      jump\t// in\n    tag_38:\n      jumpi(tag_224, callvalue)\n      jumpi(tag_224, slt(add(not(0x03), calldatasize), 0x20))\n      tag_335\n      tag_1\n      jump\t// in\n    tag_335:\n        /* \"@openzeppelin/contracts/access/Ownable.sol\":1500:1562  modifier onlyOwner() {... */\n      tag_336\n      tag_19\n      jump\t// in\n    tag_336:\n        /* \"contracts/KipuBankV3.sol\":1105:22487  contract KipuBankV3 is Ownable{... */\n      0x01\n      dup1\n      0xa0\n      shl\n      sub\n      and\n      0x00\n      mstore\n      mstore(0x20, 0x04)\n      keccak256(0x00, 0x40)\n      0x00\n      dup1\n      mstore\n      0x20\n      mstore\n      0x20\n      and(sload(keccak256(0x00, 0x40)), 0xffffffff)\n      mload(0x40)\n      swap1\n      dup2\n      mstore\n      return\n    tag_36:\n      jumpi(tag_224, callvalue)\n      jumpi(tag_224, slt(add(not(0x03), calldatasize), 0x00))\n      mload(0x40)\n        /* \"contracts/KipuBankV3.sol\":1844:1886  IUniswapV2Factory public immutable FACTORY */\n      immutable(\"0x8ab194f5003348d2cd0d4b61d744b75b908a68a30dccd1d09f9663c874063bc9\")\n      sub(shl(0xa0, 0x01), 0x01)\n        /* \"contracts/KipuBankV3.sol\":1105:22487  contract KipuBankV3 is Ownable{... */\n      and\n      dup2\n      mstore\n      0x20\n      swap1\n      return\n    tag_34:\n      jumpi(tag_224, callvalue)\n      jumpi(tag_224, slt(add(not(0x03), calldatasize), 0x40))\n      tag_345\n      tag_1\n      jump\t// in\n    tag_345:\n      tag_346\n      tag_2\n      jump\t// in\n    tag_346:\n        /* \"@openzeppelin/contracts/access/Ownable.sol\":1500:1562  modifier onlyOwner() {... */\n      swap1\n      tag_347\n      tag_19\n      jump\t// in\n    tag_347:\n        /* \"contracts/KipuBankV3.sol\":1105:22487  contract KipuBankV3 is Ownable{... */\n      0x01\n      dup1\n      0xa0\n      shl\n      sub\n      and\n      0x00\n      mstore\n        /* \"contracts/KipuBankV3.sol\":17943:17953  s_deposits */\n      0x03\n        /* \"contracts/KipuBankV3.sol\":1105:22487  contract KipuBankV3 is Ownable{... */\n      0x20\n      mstore\n      keccak256(0x00, 0x40)\n        /* \"contracts/KipuBankV3.sol\":17943:17975  s_deposits[user_][_tokenAddress] */\n      swap1\n        /* \"contracts/KipuBankV3.sol\":1105:22487  contract KipuBankV3 is Ownable{... */\n      0x01\n      dup1\n      0xa0\n      shl\n      sub\n      and\n      0x00\n      mstore\n      0x20\n      mstore\n      0x20\n      and(sload(keccak256(0x00, 0x40)), 0xffffffff)\n      mload(0x40)\n      swap1\n      dup2\n      mstore\n      return\n    tag_32:\n      jumpi(tag_224, callvalue)\n      jumpi(tag_224, slt(add(not(0x03), calldatasize), 0x20))\n      sub(shl(0xa0, 0x01), 0x01)\n      tag_352\n      tag_1\n      jump\t// in\n    tag_352:\n      and\n      0x00\n      mstore\n        /* \"contracts/KipuBankV3.sol\":16120:16130  s_balances */\n      0x02\n        /* \"contracts/KipuBankV3.sol\":1105:22487  contract KipuBankV3 is Ownable{... */\n      0x20\n      mstore\n      keccak256(0x00, 0x40)\n      0x00\n      dup1\n      mstore\n      0x20\n      mstore\n      0x20\n        /* \"contracts/KipuBankV3.sol\":16104:16150  convertEthInUSD(s_balances[user_][address(0)]) */\n      tag_104\n        /* \"contracts/KipuBankV3.sol\":1105:22487  contract KipuBankV3 is Ownable{... */\n      sload(keccak256(0x00, 0x40))\n        /* \"contracts/KipuBankV3.sol\":16104:16150  convertEthInUSD(s_balances[user_][address(0)]) */\n      tag_18\n      jump\t// in\n        /* \"contracts/KipuBankV3.sol\":1105:22487  contract KipuBankV3 is Ownable{... */\n    tag_30:\n      jumpi(tag_224, callvalue)\n      jumpi(tag_224, slt(add(not(0x03), calldatasize), 0x00))\n        /* \"contracts/KipuBankV3.sol\":13384:13394  msg.sender */\n      caller\n        /* \"contracts/KipuBankV3.sol\":1105:22487  contract KipuBankV3 is Ownable{... */\n      0x00\n      mstore\n        /* \"contracts/KipuBankV3.sol\":13373:13383  s_balances */\n      0x02\n        /* \"contracts/KipuBankV3.sol\":1105:22487  contract KipuBankV3 is Ownable{... */\n      0x20\n      mstore\n      keccak256(0x00, 0x40)\n      0x00\n      dup1\n      mstore\n      0x20\n      mstore\n      0x20\n      sload(keccak256(0x00, 0x40))\n      mload(0x40)\n      swap1\n      dup2\n      mstore\n      return\n    tag_28:\n      jumpi(tag_224, callvalue)\n      jumpi(tag_224, slt(add(not(0x03), calldatasize), 0x60))\n      0x20\n      tag_104\n      calldataload(0x44)\n      calldataload(0x24)\n      calldataload(0x04)\n      tag_5\n      jump\t// in\n    tag_1:\n      calldataload(0x04)\n      swap1\n      sub(shl(0xa0, 0x01), 0x01)\n      dup3\n      and\n      dup3\n      sub\n      tag_224\n      jumpi\n      jump\t// out\n    tag_2:\n      calldataload(0x24)\n      swap1\n      sub(shl(0xa0, 0x01), 0x01)\n      dup3\n      and\n      dup3\n      sub\n      tag_224\n      jumpi\n      jump\t// out\n    tag_3:\n      dup2\n      dup2\n      mul\n      swap3\n      swap2\n      dup2\n      iszero\n      swap2\n      dup5\n      div\n      eq\n      or\n      iszero\n      tag_367\n      jumpi\n      jump\t// out\n    tag_367:\n      mstore(0x00, shl(0xe0, 0x4e487b71))\n      mstore(0x04, 0x11)\n      revert(0x00, 0x24)\n    tag_4:\n      swap2\n      swap1\n      dup3\n      add\n      dup1\n      swap3\n      gt\n      tag_367\n      jumpi\n      jump\t// out\n        /* \"contracts/KipuBankV3.sol\":12195:12845  function getAmountOut(uint256 amountIn, uint256 reserveIn, uint256 reserveOut ) public pure returns (uint256 amountOut) {... */\n    tag_5:\n      swap2\n        /* \"contracts/KipuBankV3.sol\":12330:12343  amountIn == 0 */\n      dup3\n      iszero\n      dup1\n        /* \"contracts/KipuBankV3.sol\":12330:12361  amountIn == 0 || reserveIn == 0 */\n      dup1\n      iszero\n      tag_371\n      jumpi\n        /* \"contracts/KipuBankV3.sol\":12195:12845  function getAmountOut(uint256 amountIn, uint256 reserveIn, uint256 reserveOut ) public pure returns (uint256 amountOut) {... */\n    tag_372:\n        /* \"contracts/KipuBankV3.sol\":12330:12380  amountIn == 0 || reserveIn == 0 || reserveOut == 0 */\n      dup1\n      iszero\n      tag_373\n      jumpi\n        /* \"contracts/KipuBankV3.sol\":12195:12845  function getAmountOut(uint256 amountIn, uint256 reserveIn, uint256 reserveOut ) public pure returns (uint256 amountOut) {... */\n    tag_374:\n        /* \"contracts/KipuBankV3.sol\":12326:12450  if (amountIn == 0 || reserveIn == 0 || reserveOut == 0) {... */\n      tag_375\n      jumpi\n        /* \"contracts/KipuBankV3.sol\":12608:12611  997 */\n      0x03e5\n        /* \"contracts/KipuBankV3.sol\":1105:22487  contract KipuBankV3 is Ownable{... */\n      dup5\n      mul\n      swap4\n      dup5\n      div\n        /* \"contracts/KipuBankV3.sol\":12608:12611  997 */\n      0x03e5\n        /* \"contracts/KipuBankV3.sol\":1105:22487  contract KipuBankV3 is Ownable{... */\n      eq\n      or\n      iszero\n      tag_367\n      jumpi\n        /* \"contracts/KipuBankV3.sol\":12692:12720  amountInWithFee * reserveOut */\n      tag_379\n      swap1\n      dup4\n      tag_3\n      jump\t// in\n    tag_379:\n        /* \"contracts/KipuBankV3.sol\":1105:22487  contract KipuBankV3 is Ownable{... */\n      swap2\n        /* \"contracts/KipuBankV3.sol\":12766:12770  1000 */\n      0x03e8\n        /* \"contracts/KipuBankV3.sol\":1105:22487  contract KipuBankV3 is Ownable{... */\n      dup3\n      mul\n      swap2\n      dup1\n      dup4\n      div\n        /* \"contracts/KipuBankV3.sol\":12766:12770  1000 */\n      0x03e8\n        /* \"contracts/KipuBankV3.sol\":1105:22487  contract KipuBankV3 is Ownable{... */\n      eq\n      swap1\n      iszero\n      or\n      iszero\n      tag_367\n      jumpi\n        /* \"contracts/KipuBankV3.sol\":12753:12789  (reserveIn * 1000) + amountInWithFee */\n      tag_382\n      swap2\n      tag_4\n      jump\t// in\n    tag_382:\n        /* \"contracts/KipuBankV3.sol\":12814:12837  numerator / denominator */\n      swap1\n        /* \"contracts/KipuBankV3.sol\":1105:22487  contract KipuBankV3 is Ownable{... */\n      dup2\n      iszero\n      tag_383\n      jumpi\n      div\n        /* \"contracts/KipuBankV3.sol\":12195:12845  function getAmountOut(uint256 amountIn, uint256 reserveIn, uint256 reserveOut ) public pure returns (uint256 amountOut) {... */\n      swap1\n      jump\t// out\n        /* \"contracts/KipuBankV3.sol\":1105:22487  contract KipuBankV3 is Ownable{... */\n    tag_383:\n      shl(0xe0, 0x4e487b71)\n        /* \"contracts/KipuBankV3.sol\":12342:12343  0 */\n      0x00\n        /* \"contracts/KipuBankV3.sol\":1105:22487  contract KipuBankV3 is Ownable{... */\n      mstore\n      mstore(0x04, 0x12)\n      0x24\n        /* \"contracts/KipuBankV3.sol\":12342:12343  0 */\n      0x00\n        /* \"contracts/KipuBankV3.sol\":1105:22487  contract KipuBankV3 is Ownable{... */\n      revert\n        /* \"contracts/KipuBankV3.sol\":12326:12450  if (amountIn == 0 || reserveIn == 0 || reserveOut == 0) {... */\n    tag_375:\n        /* \"contracts/KipuBankV3.sol\":12404:12438  SwapModule_InsufficientLiquidity() */\n      shl(0xe0, 0x4532da63)\n        /* \"contracts/KipuBankV3.sol\":12342:12343  0 */\n      0x00\n        /* \"contracts/KipuBankV3.sol\":12404:12438  SwapModule_InsufficientLiquidity() */\n      mstore\n      0x04\n        /* \"contracts/KipuBankV3.sol\":12342:12343  0 */\n      0x00\n        /* \"contracts/KipuBankV3.sol\":12404:12438  SwapModule_InsufficientLiquidity() */\n      revert\n        /* \"contracts/KipuBankV3.sol\":12330:12380  amountIn == 0 || reserveIn == 0 || reserveOut == 0 */\n    tag_373:\n        /* \"contracts/KipuBankV3.sol\":12365:12380  reserveOut == 0 */\n      pop\n      dup2\n      iszero\n        /* \"contracts/KipuBankV3.sol\":12330:12380  amountIn == 0 || reserveIn == 0 || reserveOut == 0 */\n      jump(tag_374)\n        /* \"contracts/KipuBankV3.sol\":12330:12361  amountIn == 0 || reserveIn == 0 */\n    tag_371:\n        /* \"contracts/KipuBankV3.sol\":12347:12361  reserveIn == 0 */\n      pop\n      dup3\n      iszero\n        /* \"contracts/KipuBankV3.sol\":12330:12361  amountIn == 0 || reserveIn == 0 */\n      jump(tag_372)\n        /* \"contracts/KipuBankV3.sol\":1105:22487  contract KipuBankV3 is Ownable{... */\n    tag_7:\n      iszero\n      tag_385\n      jumpi\n      pop\n      pop\n      jump\t// out\n    tag_385:\n      mstore(0x00, shl(0xe1, 0x565936c7))\n      0x01\n      dup1\n      0xa0\n      shl\n      sub\n      and\n      0x04\n      mstore\n      0x24\n      mstore\n      revert(0x00, 0x44)\n    tag_8:\n      0xffffffff\n      and\n      0xffffffff\n      dup2\n      eq\n      tag_367\n      jumpi\n      0x01\n      add\n      swap1\n      jump\t// out\n        /* \"contracts/KipuBankV3.sol\":7612:8014  function depositEth() public payable {... */\n    tag_9:\n        /* \"contracts/KipuBankV3.sol\":7660:7723  require(msg.value > 0, DepositNotAllowed(msg.sender,msg.value)) */\n      tag_389\n        /* \"contracts/KipuBankV3.sol\":7668:7677  msg.value */\n      callvalue\n        /* \"contracts/KipuBankV3.sol\":7701:7711  msg.sender */\n      caller\n        /* \"contracts/KipuBankV3.sol\":7668:7677  msg.value */\n      callvalue\n        /* \"contracts/KipuBankV3.sol\":7668:7681  msg.value > 0 */\n      iszero\n      iszero\n        /* \"contracts/KipuBankV3.sol\":7660:7723  require(msg.value > 0, DepositNotAllowed(msg.sender,msg.value)) */\n      tag_7\n      jump\t// in\n    tag_389:\n        /* \"contracts/KipuBankV3.sol\":7701:7711  msg.sender */\n      caller\n        /* \"contracts/KipuBankV3.sol\":7680:7681  0 */\n      0x00\n        /* \"contracts/KipuBankV3.sol\":1105:22487  contract KipuBankV3 is Ownable{... */\n      mstore\n        /* \"contracts/KipuBankV3.sol\":7752:7762  s_balances */\n      0x02\n        /* \"contracts/KipuBankV3.sol\":1105:22487  contract KipuBankV3 is Ownable{... */\n      0x20\n      mstore\n      0x40\n        /* \"contracts/KipuBankV3.sol\":7680:7681  0 */\n      0x00\n        /* \"contracts/KipuBankV3.sol\":1105:22487  contract KipuBankV3 is Ownable{... */\n      keccak256\n      0x00\n      dup1\n      mstore\n      0x20\n      mstore\n        /* \"contracts/KipuBankV3.sol\":7734:7841  require(msg.value+s_balances[msg.sender][address(0)] <= s_bankCap, DepositNotAllowed(msg.sender,msg.value)) */\n      tag_390\n        /* \"contracts/KipuBankV3.sol\":7742:7786  msg.value+s_balances[msg.sender][address(0)] */\n      tag_391\n        /* \"contracts/KipuBankV3.sol\":1105:22487  contract KipuBankV3 is Ownable{... */\n      sload(keccak256(0x00, 0x40))\n        /* \"contracts/KipuBankV3.sol\":7668:7677  msg.value */\n      callvalue\n        /* \"contracts/KipuBankV3.sol\":7742:7786  msg.value+s_balances[msg.sender][address(0)] */\n      tag_4\n      jump\t// in\n    tag_391:\n        /* \"contracts/KipuBankV3.sol\":7668:7677  msg.value */\n      callvalue\n        /* \"contracts/KipuBankV3.sol\":7701:7711  msg.sender */\n      swap1\n      caller\n        /* \"contracts/KipuBankV3.sol\":7790:7799  s_bankCap */\n      swap1\n      sub(shl(0x80, 0x01), 0x01)\n      immutable(\"0xd2f7726eb1d129c4ce63d49cbf6bc48740d44f5a10e2fb1f680386f1a976123a\")\n        /* \"contracts/KipuBankV3.sol\":1105:22487  contract KipuBankV3 is Ownable{... */\n      and\n      lt\n        /* \"contracts/KipuBankV3.sol\":7742:7799  msg.value+s_balances[msg.sender][address(0)] <= s_bankCap */\n      iszero\n        /* \"contracts/KipuBankV3.sol\":7734:7841  require(msg.value+s_balances[msg.sender][address(0)] <= s_bankCap, DepositNotAllowed(msg.sender,msg.value)) */\n      tag_7\n      jump\t// in\n    tag_390:\n        /* \"contracts/KipuBankV3.sol\":7701:7711  msg.sender */\n      caller\n        /* \"contracts/KipuBankV3.sol\":7680:7681  0 */\n      0x00\n        /* \"contracts/KipuBankV3.sol\":1105:22487  contract KipuBankV3 is Ownable{... */\n      mstore\n        /* \"contracts/KipuBankV3.sol\":7752:7762  s_balances */\n      0x02\n        /* \"contracts/KipuBankV3.sol\":1105:22487  contract KipuBankV3 is Ownable{... */\n      0x20\n      mstore\n      0x40\n        /* \"contracts/KipuBankV3.sol\":7680:7681  0 */\n      0x00\n        /* \"contracts/KipuBankV3.sol\":1105:22487  contract KipuBankV3 is Ownable{... */\n      keccak256\n      0x00\n      dup1\n      mstore\n      0x20\n      mstore\n      keccak256(0x00, 0x40)\n        /* \"contracts/KipuBankV3.sol\":7854:7901  s_balances[msg.sender][address(0)] += msg.value */\n      tag_392\n        /* \"contracts/KipuBankV3.sol\":7668:7677  msg.value */\n      callvalue\n        /* \"contracts/KipuBankV3.sol\":1105:22487  contract KipuBankV3 is Ownable{... */\n      dup3\n      sload\n        /* \"contracts/KipuBankV3.sol\":7854:7901  s_balances[msg.sender][address(0)] += msg.value */\n      tag_4\n      jump\t// in\n    tag_392:\n        /* \"contracts/KipuBankV3.sol\":1105:22487  contract KipuBankV3 is Ownable{... */\n      swap1\n      sstore\n        /* \"contracts/KipuBankV3.sol\":7701:7711  msg.sender */\n      caller\n        /* \"contracts/KipuBankV3.sol\":7680:7681  0 */\n      0x00\n        /* \"contracts/KipuBankV3.sol\":1105:22487  contract KipuBankV3 is Ownable{... */\n      mstore\n        /* \"contracts/KipuBankV3.sol\":7912:7922  s_deposits */\n      0x03\n        /* \"contracts/KipuBankV3.sol\":1105:22487  contract KipuBankV3 is Ownable{... */\n      0x20\n      mstore\n      0x40\n        /* \"contracts/KipuBankV3.sol\":7680:7681  0 */\n      0x00\n        /* \"contracts/KipuBankV3.sol\":1105:22487  contract KipuBankV3 is Ownable{... */\n      keccak256\n      0x00\n      dup1\n      mstore\n      0x20\n      mstore\n      keccak256(0x00, 0x40)\n      0xffffffff\n        /* \"contracts/KipuBankV3.sol\":7912:7948  s_deposits[msg.sender][address(0)]++ */\n      tag_393\n        /* \"contracts/KipuBankV3.sol\":1105:22487  contract KipuBankV3 is Ownable{... */\n      dup2\n      dup4\n      sload\n      and\n        /* \"contracts/KipuBankV3.sol\":7912:7948  s_deposits[msg.sender][address(0)]++ */\n      tag_8\n      jump\t// in\n    tag_393:\n        /* \"contracts/KipuBankV3.sol\":1105:22487  contract KipuBankV3 is Ownable{... */\n      dup3\n      sload\n      not(0xffffffff)\n      and\n      swap2\n      and\n      or\n      swap1\n      sstore\n      0x40\n      dup1\n      mload\n        /* \"contracts/KipuBankV3.sol\":7701:7711  msg.sender */\n      caller\n        /* \"contracts/KipuBankV3.sol\":1105:22487  contract KipuBankV3 is Ownable{... */\n      dup2\n      mstore\n        /* \"contracts/KipuBankV3.sol\":7668:7677  msg.value */\n      callvalue\n        /* \"contracts/KipuBankV3.sol\":1105:22487  contract KipuBankV3 is Ownable{... */\n      0x20\n      dup3\n      add\n      mstore\n        /* \"contracts/KipuBankV3.sol\":7974:8006  Deposited(msg.sender, msg.value) */\n      0x2da466a7b24304f47e87fa2e1e5a81b9831ce54fec19055ce277ca2f39ba42c4\n      swap2\n        /* \"contracts/KipuBankV3.sol\":1105:22487  contract KipuBankV3 is Ownable{... */\n      swap1\n        /* \"contracts/KipuBankV3.sol\":7974:8006  Deposited(msg.sender, msg.value) */\n      log1\n        /* \"contracts/KipuBankV3.sol\":7612:8014  function depositEth() public payable {... */\n      jump\t// out\n        /* \"contracts/KipuBankV3.sol\":1105:22487  contract KipuBankV3 is Ownable{... */\n    tag_11:\n      iszero\n      tag_395\n      jumpi\n      pop\n      pop\n      pop\n      jump\t// out\n    tag_395:\n      shl(0xe0, 0xb4e4601d)\n      0x00\n      swap1\n      dup2\n      mstore\n      sub(shl(0xa0, 0x01), 0x01)\n      swap2\n      dup3\n      and\n      0x04\n      mstore\n      swap2\n      and\n      0x24\n      mstore\n      0x44\n      swap2\n      swap1\n      swap2\n      mstore\n      0x64\n      swap1\n      revert\n    tag_12:\n      swap2\n      swap1\n      dup3\n      sub\n      swap2\n      dup3\n      gt\n      tag_367\n      jumpi\n      jump\t// out\n    tag_13:\n      swap1\n      0x1f\n        /* \"@openzeppelin/contracts/token/ERC20/utils/SafeERC20.sol\":1328:1371  abi.encodeCall(token.transfer, (to, value)) */\n      dup1\n      not\n        /* \"contracts/KipuBankV3.sol\":1105:22487  contract KipuBankV3 is Ownable{... */\n      swap2\n      add\n      and\n      dup2\n      add\n      swap1\n      dup2\n      lt\n      0xffffffffffffffff\n      dup3\n      gt\n      or\n      tag_399\n      jumpi\n      0x40\n      mstore\n      jump\t// out\n    tag_399:\n      mstore(0x00, shl(0xe0, 0x4e487b71))\n      mstore(0x04, 0x41)\n      revert(0x00, 0x24)\n    tag_14:\n      swap1\n      dup2\n      0x20\n      swap2\n      sub\n      slt\n      tag_224\n      jumpi\n      mload\n      sub(shl(0xa0, 0x01), 0x01)\n      dup2\n      and\n      dup2\n      sub\n      tag_224\n      jumpi\n      swap1\n      jump\t// out\n    tag_16:\n      mload\n      swap1\n      sub(shl(0x70, 0x01), 0x01)\n      dup3\n      and\n      dup3\n      sub\n      tag_224\n      jumpi\n      jump\t// out\n    tag_17:\n      iszero\n      tag_407\n      jumpi\n      pop\n      pop\n      jump\t// out\n    tag_407:\n      mstore(0x00, shl(0xe0, 0xf6074107))\n      0x01\n      dup1\n      0xa0\n      shl\n      sub\n      and\n      0x04\n      mstore\n      0x24\n      mstore\n      revert(0x00, 0x44)\n        /* \"contracts/KipuBankV3.sol\":20878:21057  function convertEthInUSD(uint256 _ethAmount) internal view returns (uint256 convertedAmount_) {... */\n    tag_18:\n        /* \"contracts/KipuBankV3.sol\":1105:22487  contract KipuBankV3 is Ownable{... */\n      sload(0x01)\n      mload(0x40)\n      shl(0xe2, 0x3fabe5a3)\n        /* \"contracts/KipuBankV3.sol\":21343:21368  s_feeds.latestRoundData() */\n      dup2\n      mstore\n        /* \"contracts/KipuBankV3.sol\":1105:22487  contract KipuBankV3 is Ownable{... */\n      swap2\n        /* \"contracts/KipuBankV3.sol\":20878:21057  function convertEthInUSD(uint256 _ethAmount) internal view returns (uint256 convertedAmount_) {... */\n      swap1\n        /* \"contracts/KipuBankV3.sol\":21343:21368  s_feeds.latestRoundData() */\n      0xa0\n      swap1\n        /* \"contracts/KipuBankV3.sol\":1105:22487  contract KipuBankV3 is Ownable{... */\n      dup4\n      swap1\n        /* \"contracts/KipuBankV3.sol\":21343:21368  s_feeds.latestRoundData() */\n      0x04\n      swap1\n        /* \"contracts/KipuBankV3.sol\":1105:22487  contract KipuBankV3 is Ownable{... */\n      dup3\n      swap1\n      sub(shl(0xa0, 0x01), 0x01)\n      and\n        /* \"contracts/KipuBankV3.sol\":21343:21368  s_feeds.latestRoundData() */\n      gas\n      staticcall\n      dup1\n      iszero\n      tag_207\n      jumpi\n      0x00\n      swap3\n      0x00\n      swap2\n      tag_411\n      jumpi\n        /* \"contracts/KipuBankV3.sol\":20878:21057  function convertEthInUSD(uint256 _ethAmount) internal view returns (uint256 convertedAmount_) {... */\n    tag_412:\n        /* \"contracts/KipuBankV3.sol\":21389:21405  ethUSDPrice != 0 */\n      pop\n      dup3\n      iszero\n        /* \"contracts/KipuBankV3.sol\":1105:22487  contract KipuBankV3 is Ownable{... */\n      tag_413\n      jumpi\n        /* \"contracts/KipuBankV3.sol\":21447:21474  block.timestamp - updatedAt */\n      tag_415\n        /* \"contracts/KipuBankV3.sol\":1464:1468  3600 */\n      0x0e10\n        /* \"contracts/KipuBankV3.sol\":21447:21462  block.timestamp */\n      swap2\n      timestamp\n        /* \"contracts/KipuBankV3.sol\":21447:21474  block.timestamp - updatedAt */\n      tag_12\n      jump\t// in\n    tag_415:\n        /* \"contracts/KipuBankV3.sol\":21446:21494  (block.timestamp - updatedAt) > ORACLE_HEARTBEAT */\n      gt\n        /* \"contracts/KipuBankV3.sol\":1464:1468  3600 */\n      iszero\n      tag_416\n      jumpi\n        /* \"contracts/KipuBankV3.sol\":1582:1594  1 * 10 ** 20 */\n      0x056bc75e2d63100000\n        /* \"contracts/KipuBankV3.sol\":21003:21031  _ethAmount * chainlinkFeed() */\n      swap2\n      tag_418\n      swap2\n      tag_3\n      jump\t// in\n    tag_418:\n        /* \"contracts/KipuBankV3.sol\":1105:22487  contract KipuBankV3 is Ownable{... */\n      div\n        /* \"contracts/KipuBankV3.sol\":20878:21057  function convertEthInUSD(uint256 _ethAmount) internal view returns (uint256 convertedAmount_) {... */\n      swap1\n      jump\t// out\n        /* \"contracts/KipuBankV3.sol\":1464:1468  3600 */\n    tag_416:\n      mstore(0x00, shl(0xe1, 0x0cd5fa07))\n        /* \"contracts/KipuBankV3.sol\":21343:21368  s_feeds.latestRoundData() */\n      0x04\n      0x00\n        /* \"contracts/KipuBankV3.sol\":1464:1468  3600 */\n      revert\n        /* \"contracts/KipuBankV3.sol\":1105:22487  contract KipuBankV3 is Ownable{... */\n    tag_413:\n      mstore(0x00, shl(0xe0, 0x144c1d95))\n        /* \"contracts/KipuBankV3.sol\":21343:21368  s_feeds.latestRoundData() */\n      0x04\n      0x00\n        /* \"contracts/KipuBankV3.sol\":1105:22487  contract KipuBankV3 is Ownable{... */\n      revert\n        /* \"contracts/KipuBankV3.sol\":21343:21368  s_feeds.latestRoundData() */\n    tag_411:\n      swap3\n      pop\n      pop\n      0xa0\n      dup3\n      jumpi(tag_419, gt(0xa0, returndatasize))\n    tag_420:\n      dup2\n      tag_421\n      0xa0\n      swap4\n      dup4\n      tag_13\n      jump\t// in\n    tag_421:\n      dup2\n      add\n        /* \"contracts/KipuBankV3.sol\":1105:22487  contract KipuBankV3 is Ownable{... */\n      sub\n      slt\n      tag_224\n      jumpi\n      tag_424\n      dup3\n      tag_21\n      jump\t// in\n    tag_424:\n      pop\n      0x20\n      dup3\n      add\n      mload\n      tag_425\n      0x80\n      0x60\n      dup6\n      add\n      mload\n      swap5\n      add\n      tag_21\n      jump\t// in\n    tag_425:\n      pop\n        /* \"contracts/KipuBankV3.sol\":21343:21368  s_feeds.latestRoundData() */\n      swap2\n      0x00\n      jump(tag_412)\n    tag_419:\n      returndatasize\n      swap2\n      pop\n      jump(tag_420)\n        /* \"@openzeppelin/contracts/access/Ownable.sol\":1796:1958  function _checkOwner() internal view virtual {... */\n    tag_19:\n        /* \"@openzeppelin/contracts/access/Ownable.sol\":1710:1716  _owner */\n      0x00\n        /* \"contracts/KipuBankV3.sol\":1105:22487  contract KipuBankV3 is Ownable{... */\n      sload\n      sub(shl(0xa0, 0x01), 0x01)\n      and\n        /* \"@openzeppelin/contracts/utils/Context.sol\":735:745  msg.sender */\n      caller\n        /* \"@openzeppelin/contracts/access/Ownable.sol\":1855:1878  owner() != _msgSender() */\n      sub\n        /* \"@openzeppelin/contracts/access/Ownable.sol\":1851:1952  if (owner() != _msgSender()) {... */\n      tag_426\n      jumpi\n        /* \"@openzeppelin/contracts/access/Ownable.sol\":1796:1958  function _checkOwner() internal view virtual {... */\n      jump\t// out\n        /* \"@openzeppelin/contracts/access/Ownable.sol\":1851:1952  if (owner() != _msgSender()) {... */\n    tag_426:\n        /* \"@openzeppelin/contracts/access/Ownable.sol\":1901:1941  OwnableUnauthorizedAccount(_msgSender()) */\n      shl(0xe0, 0x118cdaa7)\n        /* \"@openzeppelin/contracts/access/Ownable.sol\":1710:1716  _owner */\n      0x00\n        /* \"@openzeppelin/contracts/access/Ownable.sol\":1901:1941  OwnableUnauthorizedAccount(_msgSender()) */\n      mstore\n        /* \"@openzeppelin/contracts/utils/Context.sol\":735:745  msg.sender */\n      caller\n        /* \"@openzeppelin/contracts/access/Ownable.sol\":1901:1941  OwnableUnauthorizedAccount(_msgSender()) */\n      0x04\n        /* \"contracts/KipuBankV3.sol\":1105:22487  contract KipuBankV3 is Ownable{... */\n      mstore\n      0x24\n        /* \"@openzeppelin/contracts/access/Ownable.sol\":1710:1716  _owner */\n      0x00\n        /* \"@openzeppelin/contracts/access/Ownable.sol\":1901:1941  OwnableUnauthorizedAccount(_msgSender()) */\n      revert\n        /* \"@openzeppelin/contracts/token/ERC20/utils/SafeERC20.sol\":1618:1806  function safeTransferFrom(IERC20 token, address from, address to, uint256 value) internal {... */\n    tag_20:\n        /* \"contracts/KipuBankV3.sol\":1105:22487  contract KipuBankV3 is Ownable{... */\n      mload(0x40)\n      shl(0xe0, 0x23b872dd)\n        /* \"@openzeppelin/contracts/token/ERC20/utils/SafeERC20.sol\":1745:1798  abi.encodeCall(token.transferFrom, (from, to, value)) */\n      0x20\n      dup3\n      add\n      mstore\n      sub(shl(0xa0, 0x01), 0x01)\n        /* \"contracts/KipuBankV3.sol\":1105:22487  contract KipuBankV3 is Ownable{... */\n      swap3\n      dup4\n      and\n        /* \"@openzeppelin/contracts/token/ERC20/utils/SafeERC20.sol\":1745:1798  abi.encodeCall(token.transferFrom, (from, to, value)) */\n      0x24\n      dup3\n      add\n        /* \"contracts/KipuBankV3.sol\":1105:22487  contract KipuBankV3 is Ownable{... */\n      mstore\n      swap3\n      swap1\n      swap2\n      and\n      0x44\n      dup4\n      add\n      mstore\n      0x64\n      dup1\n      dup4\n      add\n      swap4\n      swap1\n      swap4\n      mstore\n        /* \"@openzeppelin/contracts/token/ERC20/utils/SafeERC20.sol\":1745:1798  abi.encodeCall(token.transferFrom, (from, to, value)) */\n      swap2\n      dup2\n      mstore\n      tag_430\n      swap2\n      tag_428\n        /* \"contracts/KipuBankV3.sol\":1105:22487  contract KipuBankV3 is Ownable{... */\n      0x84\n      dup4\n        /* \"@openzeppelin/contracts/token/ERC20/utils/SafeERC20.sol\":1745:1798  abi.encodeCall(token.transferFrom, (from, to, value)) */\n      tag_13\n      jump\t// in\n    tag_428:\n      tag_22\n      jump\t// in\n    tag_430:\n        /* \"@openzeppelin/contracts/token/ERC20/utils/SafeERC20.sol\":1618:1806  function safeTransferFrom(IERC20 token, address from, address to, uint256 value) internal {... */\n      jump\t// out\n        /* \"contracts/KipuBankV3.sol\":1105:22487  contract KipuBankV3 is Ownable{... */\n    tag_21:\n      mload\n      swap1\n      0xffffffffffffffffffff\n      dup3\n      and\n      dup3\n      sub\n      tag_224\n      jumpi\n      jump\t// out\n        /* \"@openzeppelin/contracts/token/ERC20/utils/SafeERC20.sol\":8370:9090  function _callOptionalReturn(IERC20 token, bytes memory data) private {... */\n    tag_22:\n      swap1\n      0x00\n        /* \"@openzeppelin/contracts/token/ERC20/utils/SafeERC20.sol\":8507:8928  assembly (\"memory-safe\") {... */\n      0x20\n        /* \"@openzeppelin/contracts/token/ERC20/utils/SafeERC20.sol\":8370:9090  function _callOptionalReturn(IERC20 token, bytes memory data) private {... */\n      swap2\n        /* \"@openzeppelin/contracts/token/ERC20/utils/SafeERC20.sol\":8507:8928  assembly (\"memory-safe\") {... */\n      dup3\n      dup2\n      mload\n      swap2\n      add\n      dup3\n      dup6\n      gas\n      call\n      iszero\n      tag_207\n      jumpi\n      mload(0x00)\n      returndatasize\n        /* \"@openzeppelin/contracts/token/ERC20/utils/SafeERC20.sol\":8942:8957  returnSize == 0 */\n      tag_435\n      jumpi\n      pop\n      sub(shl(0xa0, 0x01), 0x01)\n        /* \"contracts/KipuBankV3.sol\":1105:22487  contract KipuBankV3 is Ownable{... */\n      dup2\n      and\n        /* \"@openzeppelin/contracts/token/ERC20/utils/SafeERC20.sol\":8960:8986  address(token).code.length */\n      extcodesize\n        /* \"@openzeppelin/contracts/token/ERC20/utils/SafeERC20.sol\":8960:8991  address(token).code.length == 0 */\n      iszero\n        /* \"@openzeppelin/contracts/token/ERC20/utils/SafeERC20.sol\":8942:9010  returnSize == 0 ? address(token).code.length == 0 : returnValue != 1 */\n    tag_437:\n        /* \"@openzeppelin/contracts/token/ERC20/utils/SafeERC20.sol\":8938:9084  if (returnSize == 0 ? address(token).code.length == 0 : returnValue != 1) {... */\n      tag_438\n      jumpi\n        /* \"@openzeppelin/contracts/token/ERC20/utils/SafeERC20.sol\":8370:9090  function _callOptionalReturn(IERC20 token, bytes memory data) private {... */\n      pop\n      jump\t// out\n        /* \"@openzeppelin/contracts/token/ERC20/utils/SafeERC20.sol\":8938:9084  if (returnSize == 0 ? address(token).code.length == 0 : returnValue != 1) {... */\n    tag_438:\n      shl(0xe0, 0x5274afe7)\n      0x00\n        /* \"@openzeppelin/contracts/token/ERC20/utils/SafeERC20.sol\":9033:9073  SafeERC20FailedOperation(address(token)) */\n      swap1\n      dup2\n      mstore\n      sub(shl(0xa0, 0x01), 0x01)\n        /* \"contracts/KipuBankV3.sol\":1105:22487  contract KipuBankV3 is Ownable{... */\n      swap2\n      swap1\n      swap2\n      and\n        /* \"@openzeppelin/contracts/token/ERC20/utils/SafeERC20.sol\":9033:9073  SafeERC20FailedOperation(address(token)) */\n      0x04\n        /* \"contracts/KipuBankV3.sol\":1105:22487  contract KipuBankV3 is Ownable{... */\n      mstore\n      0x24\n      swap1\n        /* \"@openzeppelin/contracts/token/ERC20/utils/SafeERC20.sol\":9033:9073  SafeERC20FailedOperation(address(token)) */\n      revert\n        /* \"@openzeppelin/contracts/token/ERC20/utils/SafeERC20.sol\":8942:9010  returnSize == 0 ? address(token).code.length == 0 : returnValue != 1 */\n    tag_435:\n        /* \"@openzeppelin/contracts/token/ERC20/utils/SafeERC20.sol\":9009:9010  1 */\n      0x01\n        /* \"@openzeppelin/contracts/token/ERC20/utils/SafeERC20.sol\":8994:9010  returnValue != 1 */\n      eq\n      iszero\n        /* \"@openzeppelin/contracts/token/ERC20/utils/SafeERC20.sol\":8942:9010  returnSize == 0 ? address(token).code.length == 0 : returnValue != 1 */\n      jump(tag_437)\n\n    auxdata: 0xa2646970667358221220b110325b4a93321d181271324bf393598ac56f00f7e5fbe2572d742ecf9083a864736f6c634300081e0033\n}\n",
				"bytecode": {
					"linkReferences": {},
					"object": "60e03461014657601f61178a38819003918201601f19168301916001600160401b0383118484101761014a57808492606094604052833981010312610146578051906001600160801b03821682036101465761006960406100626020840161015e565b920161015e565b913315610133575f8054336001600160a01b0319821681178355604051959290916001600160a01b0316907f8be0079c531659141344cd1fd0a4f28419497f9722a3daafe3b4186f6b6457e09080a3670de0b6b3a764000060c0526001600160a01b0390811660805260a091909152600180546001600160a01b03191692909116919091179055611617908161017382396080518181816102d3015281816106600152611015015260a051818181610dfe01526112a5015260c05181818161047b0152610e410152f35b631e4fbdf760e01b5f525f60045260245ffd5b5f80fd5b634e487b7160e01b5f52604160045260245ffd5b51906001600160a01b03821682036101465756fe60806040526004361015610022575b3615610018575f80fd5b610020611267565b005b5f5f3560e01c8063054d50d41461111757806312065fe0146110e657806321d60805146110a4578063297beb3c146110445780632dd31000146110005780633a2b643a14610fb1578063439370b114610f9e57806350d6c1e814610f675780636b149d8714610f30578063715018a614610ed95780637dc532c514610e655780637f86ee4314610e2257806380ef10ed14610ddf5780638da5cb5b14610db857806394f649dd14610d69578063962b9bcc14610d0957806397feb92614610c20578063a1db978214610b05578063a2abecd314610abd578063b588d22514610a7b578063ba25d3e9146105de578063c311d04914610425578063c3a8962c146103ca578063c77e551b146103a1578063d2706c9114610358578063e6a4390514610278578063ef6492491461023e578063f2fde38b146101b85763f8b2cb4f1461016c575061000e565b346101b55760203660031901126101b55760409061018861113b565b610190611501565b60018060a01b031681526002602052205f8052602052602060405f2054604051908152f35b80fd5b50346101b55760203660031901126101b5576101d261113b565b6101da611501565b6001600160a01b0316801561022a5781546001600160a01b03198116821783556001600160a01b03167f8be0079c531659141344cd1fd0a4f28419497f9722a3daafe3b4186f6b6457e08380a380f35b631e4fbdf760e01b82526004829052602482fd5b50346101b557806003193601126101b5576040903381526002602052205f8052602052602061027060405f2054611427565b604051908152f35b50346101b55760403660031901126101b5576102cf602061029761113b565b61029f611151565b60405163e6a4390560e01b81526001600160a01b0392831660048201529116602482015291829081906044820190565b03817f00000000000000000000000000000000000000000000000000000000000000006001600160a01b03165afa90811561034d5760209291610320575b506040516001600160a01b039091168152f35b6103409150823d8411610346575b6103388183611398565b8101906113ce565b5f61030d565b503d61032e565b6040513d84823e3d90fd5b50346101b55760203660031901126101b557604061037461113b565b913381526004602052209060018060a01b03165f52602052602063ffffffff60405f205416604051908152f35b50346101b557806003193601126101b5576001546040516001600160a01b039091168152602090f35b50346101b55760403660031901126101b55760406103e661113b565b916103ef611151565b926103f8611501565b60018060a01b031681526002602052209060018060a01b03165f52602052602060405f2054604051908152f35b50346101b55760203660031901126101b5576004356104478133811515611401565b3382526002602052604082205f805260205261046c8160405f20339054821115611401565b6104a381336001600160801b037f000000000000000000000000000000000000000000000000000000000000000016821115611401565b3382526002602052604082205f805260205260405f206104c482825461138b565b90553382526004602052604082205f805260205260405f2063ffffffff6104ed81835416611250565b1663ffffffff198254161790558180808084335af13d156105d6573d9067ffffffffffffffff82116105c25760405191610531601f8201601f191660200184611398565b82523d84602084013e5b1561057657506040805133815260208101929092527f69c169e5c85af54e1ca7e16608ccc812437821387924fb3353a7d053264ddaa091a180f35b608482602085604051948593633fd18b8560e01b85523360048601526024850152606060448501528051928391826064870152018585015e828201840152601f01601f19168101030190fd5b634e487b7160e01b84526041600452602484fd5b60609061053b565b50346108f25760803660031901126108f2576105f861113b565b610600611151565b60643591906001600160a01b038216906044359082158015610a6a575b610a5b576001600160a01b03811693838514610a5b578215610a4c5760405163e6a4390560e01b81526001600160a01b03828116600483015283811660248301527f0000000000000000000000000000000000000000000000000000000000000000169290602081604481875afa90811561091e575f91610a2d575b506001600160a01b031615610a1e5760405163e6a4390560e01b81526001600160a01b0392831660048201529116602482015290602090829060449082905afa90811561091e575f916109ff575b50604051630240bc6b60e21b8152906001600160a01b03811690606083600481855afa92831561091e575f905f946109a0575b50604051630dfe168160e01b81526001600160701b0394851694909116602082600481875afa91821561091e576107779288915f91610981575b506001600160a01b03161494851561097a57815b86156109725750905b8661119b565b90878210610963578461078b913388611527565b6040516370a0823160e01b8152306004820152926020846024818a5afa93841561091e575f9461092f575b5015610929575f905b823b156108f25760a45f9283604051958694859363022c0d9f60e01b855260048501526024840152306044840152608060648401528160848401525af1801561091e57610909575b506040516370a0823160e01b815230600482015290602082602481885afa80156108fe5787906108c6575b61083c925061138b565b9384106108b75760405163a9059cbb60e01b60208083019190915233602483015260448083018790528252955061087e90610878606482611398565b84611589565b60405190815283858201527fbd2aae55ffcd1c593bdb2daa466be5e1ed5bcb86b7d4da90ae3ecea74155172460403392a4604051908152f35b6305225ced60e41b8552600485fd5b506020823d6020116108f6575b816108e060209383611398565b810103126108f25761083c9151610832565b5f80fd5b3d91506108d3565b6040513d89823e3d90fd5b6109169196505f90611398565b5f945f610807565b6040513d5f823e3d90fd5b5f6107bf565b9093506020813d60201161095b575b8161094b60209383611398565b810103126108f25751925f6107b6565b3d915061093e565b6305225ced60e41b5f5260045ffd5b905090610771565b8091610768565b61099a915060203d602011610346576103388183611398565b5f610754565b9350506060833d6060116109f7575b816109bc60609383611398565b810103126108f2576109cd836113ed565b60406109db602086016113ed565b94015163ffffffff8116036108f2576001600160701b0361071a565b3d91506109af565b610a18915060203d602011610346576103388183611398565b5f6106e7565b63aaaf18ff60e01b5f5260045ffd5b610a46915060203d602011610346576103388183611398565b5f610699565b6336190de560e21b5f5260045ffd5b63206e9db160e11b5f5260045ffd5b506001600160a01b0381161561061d565b346108f25760203660031901126108f257610a9461113b565b335f52600260205260405f209060018060a01b03165f52602052602060405f2054604051908152f35b346108f25760203660031901126108f257610ad661113b565b335f52600360205260405f209060018060a01b03165f52602052602063ffffffff60405f205416604051908152f35b346108f25760403660031901126108f2577fd0164496e26f9675acaea59fb065313e45d71d1d3e09d3681765773cd4aa1918610b3f61113b565b60243590610b51828233821515611357565b335f52600260205260405f2060018060a01b0382165f52602052610b7f828260405f20339054831115611357565b335f52600260205260405f2060018060a01b0382165f5260205260405f20610ba883825461138b565b9055335f52600460205260405f2060018060a01b0382165f5260205260405f2063ffffffff610bd981835416611250565b825463ffffffff19169116179055610bfc8233306001600160a01b038516611527565b604080513381526001600160a01b03929092166020830152810191909152606090a1005b346108f25760403660031901126108f257610020610c3c61113b565b60243590610c4d823381151561122a565b335f52600260205260405f2060018060a01b0382165f5260205260405f20610c7683825461118e565b9055335f52600360205260405f2060018060a01b0382165f5260205260405f2063ffffffff610ca781835416611250565b825463ffffffff19169116179055604080513381526001600160a01b03831660208201529081018390527fe33e9822e3317b004d587136bab2627ea1ecfbba4eb79abddd0a56cfdd09c0e190606090a1309033906001600160a01b0316611527565b346108f25760403660031901126108f257610d2261113b565b610d2a611151565b90610d33611501565b60018060a01b03165f52600460205260405f209060018060a01b03165f52602052602063ffffffff60405f205416604051908152f35b346108f25760203660031901126108f257610d8261113b565b610d8a611501565b60018060a01b03165f52600360205260405f205f8052602052602063ffffffff60405f205416604051908152f35b346108f2575f3660031901126108f2575f546040516001600160a01b039091168152602090f35b346108f2575f3660031901126108f25760206040516001600160801b037f0000000000000000000000000000000000000000000000000000000000000000168152f35b346108f2575f3660031901126108f25760206040516001600160801b037f0000000000000000000000000000000000000000000000000000000000000000168152f35b346108f25760203660031901126108f257610e7e61113b565b610e86611501565b600154604080516001600160a01b03808416825290931660208401819052927f3be680563c528780d5a9cd763a27b4a48ab5f9dc10e4083a2fa55b6fc5ff33e69190a16001600160a01b03191617600155005b346108f2575f3660031901126108f257610ef1611501565b5f80546001600160a01b0319811682556001600160a01b03167f8be0079c531659141344cd1fd0a4f28419497f9722a3daafe3b4186f6b6457e08280a3005b346108f2575f3660031901126108f257335f52600360205260405f205f8052602052602063ffffffff60405f205416604051908152f35b346108f2575f3660031901126108f257335f52600460205260405f205f8052602052602063ffffffff60405f205416604051908152f35b5f3660031901126108f257610020611267565b346108f25760203660031901126108f257610fca61113b565b610fd2611501565b60018060a01b03165f52600460205260405f205f8052602052602063ffffffff60405f205416604051908152f35b346108f2575f3660031901126108f2576040517f00000000000000000000000000000000000000000000000000000000000000006001600160a01b03168152602090f35b346108f25760403660031901126108f25761105d61113b565b611065611151565b9061106e611501565b60018060a01b03165f52600360205260405f209060018060a01b03165f52602052602063ffffffff60405f205416604051908152f35b346108f25760203660031901126108f2576001600160a01b036110c561113b565b165f52600260205260405f205f8052602052602061027060405f2054611427565b346108f2575f3660031901126108f257335f52600260205260405f205f8052602052602060405f2054604051908152f35b346108f25760603660031901126108f257602061027060443560243560043561119b565b600435906001600160a01b03821682036108f257565b602435906001600160a01b03821682036108f257565b8181029291811591840414171561117a57565b634e487b7160e01b5f52601160045260245ffd5b9190820180921161117a57565b918215808015611222575b801561121a575b61120b576103e584029384046103e514171561117a576111cd9083611167565b916103e88202918083046103e8149015171561117a576111ec9161118e565b9081156111f7570490565b634e487b7160e01b5f52601260045260245ffd5b634532da6360e01b5f5260045ffd5b5081156111ad565b5082156111a6565b15611233575050565b63565936c760e11b5f5260018060a01b031660045260245260445ffd5b63ffffffff1663ffffffff811461117a5760010190565b611274343334151561122a565b335f52600260205260405f205f80526020526112cc61129760405f20543461118e565b349033906001600160801b037f000000000000000000000000000000000000000000000000000000000000000016101561122a565b335f52600260205260405f205f805260205260405f206112ed34825461118e565b9055335f52600360205260405f205f805260205260405f2063ffffffff61131681835416611250565b825463ffffffff19169116179055604080513381523460208201527f2da466a7b24304f47e87fa2e1e5a81b9831ce54fec19055ce277ca2f39ba42c49190a1565b1561136157505050565b63b4e4601d60e01b5f9081526001600160a01b039182166004529116602452604491909152606490fd5b9190820391821161117a57565b90601f8019910116810190811067ffffffffffffffff8211176113ba57604052565b634e487b7160e01b5f52604160045260245ffd5b908160209103126108f257516001600160a01b03811681036108f25790565b51906001600160701b03821682036108f257565b1561140a575050565b63f607410760e01b5f5260018060a01b031660045260245260445ffd5b600154604051633fabe5a360e21b8152919060a090839060049082906001600160a01b03165afa801561091e575f925f916114ad575b50821561149e57611471610e10914261138b565b111561148f5768056bc75e2d631000009161148b91611167565b0490565b630cd5fa0760e11b5f5260045ffd5b63144c1d9560e01b5f5260045ffd5b92505060a0823d60a0116114f9575b816114c960a09383611398565b810103126108f2576114da82611572565b5060208201516114f1608060608501519401611572565b50915f61145d565b3d91506114bc565b5f546001600160a01b0316330361151457565b63118cdaa760e01b5f523360045260245ffd5b6040516323b872dd60e01b60208201526001600160a01b0392831660248201529290911660448301526064808301939093529181526115709161156b608483611398565b611589565b565b519069ffffffffffffffffffff821682036108f257565b905f602091828151910182855af11561091e575f513d6115d857506001600160a01b0381163b155b6115b85750565b635274afe760e01b5f9081526001600160a01b0391909116600452602490fd5b600114156115b156fea2646970667358221220b110325b4a93321d181271324bf393598ac56f00f7e5fbe2572d742ecf9083a864736f6c634300081e0033",
					"opcodes": "PUSH1 0xE0 CALLVALUE PUSH2 0x146 JUMPI PUSH1 0x1F PUSH2 0x178A CODESIZE DUP2 SWAP1 SUB SWAP2 DUP3 ADD PUSH1 0x1F NOT AND DUP4 ADD SWAP2 PUSH1 0x1 PUSH1 0x1 PUSH1 0x40 SHL SUB DUP4 GT DUP5 DUP5 LT OR PUSH2 0x14A JUMPI DUP1 DUP5 SWAP3 PUSH1 0x60 SWAP5 PUSH1 0x40 MSTORE DUP4 CODECOPY DUP2 ADD SUB SLT PUSH2 0x146 JUMPI DUP1 MLOAD SWAP1 PUSH1 0x1 PUSH1 0x1 PUSH1 0x80 SHL SUB DUP3 AND DUP3 SUB PUSH2 0x146 JUMPI PUSH2 0x69 PUSH1 0x40 PUSH2 0x62 PUSH1 0x20 DUP5 ADD PUSH2 0x15E JUMP JUMPDEST SWAP3 ADD PUSH2 0x15E JUMP JUMPDEST SWAP2 CALLER ISZERO PUSH2 0x133 JUMPI PUSH0 DUP1 SLOAD CALLER PUSH1 0x1 PUSH1 0x1 PUSH1 0xA0 SHL SUB NOT DUP3 AND DUP2 OR DUP4 SSTORE PUSH1 0x40 MLOAD SWAP6 SWAP3 SWAP1 SWAP2 PUSH1 0x1 PUSH1 0x1 PUSH1 0xA0 SHL SUB AND SWAP1 PUSH32 0x8BE0079C531659141344CD1FD0A4F28419497F9722A3DAAFE3B4186F6B6457E0 SWAP1 DUP1 LOG3 PUSH8 0xDE0B6B3A7640000 PUSH1 0xC0 MSTORE PUSH1 0x1 PUSH1 0x1 PUSH1 0xA0 SHL SUB SWAP1 DUP2 AND PUSH1 0x80 MSTORE PUSH1 0xA0 SWAP2 SWAP1 SWAP2 MSTORE PUSH1 0x1 DUP1 SLOAD PUSH1 0x1 PUSH1 0x1 PUSH1 0xA0 SHL SUB NOT AND SWAP3 SWAP1 SWAP2 AND SWAP2 SWAP1 SWAP2 OR SWAP1 SSTORE PUSH2 0x1617 SWAP1 DUP2 PUSH2 0x173 DUP3 CODECOPY PUSH1 0x80 MLOAD DUP2 DUP2 DUP2 PUSH2 0x2D3 ADD MSTORE DUP2 DUP2 PUSH2 0x660 ADD MSTORE PUSH2 0x1015 ADD MSTORE PUSH1 0xA0 MLOAD DUP2 DUP2 DUP2 PUSH2 0xDFE ADD MSTORE PUSH2 0x12A5 ADD MSTORE PUSH1 0xC0 MLOAD DUP2 DUP2 DUP2 PUSH2 0x47B ADD MSTORE PUSH2 0xE41 ADD MSTORE RETURN JUMPDEST PUSH4 0x1E4FBDF7 PUSH1 0xE0 SHL PUSH0 MSTORE PUSH0 PUSH1 0x4 MSTORE PUSH1 0x24 PUSH0 REVERT JUMPDEST PUSH0 DUP1 REVERT JUMPDEST PUSH4 0x4E487B71 PUSH1 0xE0 SHL PUSH0 MSTORE PUSH1 0x41 PUSH1 0x4 MSTORE PUSH1 0x24 PUSH0 REVERT JUMPDEST MLOAD SWAP1 PUSH1 0x1 PUSH1 0x1 PUSH1 0xA0 SHL SUB DUP3 AND DUP3 SUB PUSH2 0x146 JUMPI JUMP INVALID PUSH1 0x80 PUSH1 0x40 MSTORE PUSH1 0x4 CALLDATASIZE LT ISZERO PUSH2 0x22 JUMPI JUMPDEST CALLDATASIZE ISZERO PUSH2 0x18 JUMPI PUSH0 DUP1 REVERT JUMPDEST PUSH2 0x20 PUSH2 0x1267 JUMP JUMPDEST STOP JUMPDEST PUSH0 PUSH0 CALLDATALOAD PUSH1 0xE0 SHR DUP1 PUSH4 0x54D50D4 EQ PUSH2 0x1117 JUMPI DUP1 PUSH4 0x12065FE0 EQ PUSH2 0x10E6 JUMPI DUP1 PUSH4 0x21D60805 EQ PUSH2 0x10A4 JUMPI DUP1 PUSH4 0x297BEB3C EQ PUSH2 0x1044 JUMPI DUP1 PUSH4 0x2DD31000 EQ PUSH2 0x1000 JUMPI DUP1 PUSH4 0x3A2B643A EQ PUSH2 0xFB1 JUMPI DUP1 PUSH4 0x439370B1 EQ PUSH2 0xF9E JUMPI DUP1 PUSH4 0x50D6C1E8 EQ PUSH2 0xF67 JUMPI DUP1 PUSH4 0x6B149D87 EQ PUSH2 0xF30 JUMPI DUP1 PUSH4 0x715018A6 EQ PUSH2 0xED9 JUMPI DUP1 PUSH4 0x7DC532C5 EQ PUSH2 0xE65 JUMPI DUP1 PUSH4 0x7F86EE43 EQ PUSH2 0xE22 JUMPI DUP1 PUSH4 0x80EF10ED EQ PUSH2 0xDDF JUMPI DUP1 PUSH4 0x8DA5CB5B EQ PUSH2 0xDB8 JUMPI DUP1 PUSH4 0x94F649DD EQ PUSH2 0xD69 JUMPI DUP1 PUSH4 0x962B9BCC EQ PUSH2 0xD09 JUMPI DUP1 PUSH4 0x97FEB926 EQ PUSH2 0xC20 JUMPI DUP1 PUSH4 0xA1DB9782 EQ PUSH2 0xB05 JUMPI DUP1 PUSH4 0xA2ABECD3 EQ PUSH2 0xABD JUMPI DUP1 PUSH4 0xB588D225 EQ PUSH2 0xA7B JUMPI DUP1 PUSH4 0xBA25D3E9 EQ PUSH2 0x5DE JUMPI DUP1 PUSH4 0xC311D049 EQ PUSH2 0x425 JUMPI DUP1 PUSH4 0xC3A8962C EQ PUSH2 0x3CA JUMPI DUP1 PUSH4 0xC77E551B EQ PUSH2 0x3A1 JUMPI DUP1 PUSH4 0xD2706C91 EQ PUSH2 0x358 JUMPI DUP1 PUSH4 0xE6A43905 EQ PUSH2 0x278 JUMPI DUP1 PUSH4 0xEF649249 EQ PUSH2 0x23E JUMPI DUP1 PUSH4 0xF2FDE38B EQ PUSH2 0x1B8 JUMPI PUSH4 0xF8B2CB4F EQ PUSH2 0x16C JUMPI POP PUSH2 0xE JUMP JUMPDEST CALLVALUE PUSH2 0x1B5 JUMPI PUSH1 0x20 CALLDATASIZE PUSH1 0x3 NOT ADD SLT PUSH2 0x1B5 JUMPI PUSH1 0x40 SWAP1 PUSH2 0x188 PUSH2 0x113B JUMP JUMPDEST PUSH2 0x190 PUSH2 0x1501 JUMP JUMPDEST PUSH1 0x1 DUP1 PUSH1 0xA0 SHL SUB AND DUP2 MSTORE PUSH1 0x2 PUSH1 0x20 MSTORE KECCAK256 PUSH0 DUP1 MSTORE PUSH1 0x20 MSTORE PUSH1 0x20 PUSH1 0x40 PUSH0 KECCAK256 SLOAD PUSH1 0x40 MLOAD SWAP1 DUP2 MSTORE RETURN JUMPDEST DUP1 REVERT JUMPDEST POP CALLVALUE PUSH2 0x1B5 JUMPI PUSH1 0x20 CALLDATASIZE PUSH1 0x3 NOT ADD SLT PUSH2 0x1B5 JUMPI PUSH2 0x1D2 PUSH2 0x113B JUMP JUMPDEST PUSH2 0x1DA PUSH2 0x1501 JUMP JUMPDEST PUSH1 0x1 PUSH1 0x1 PUSH1 0xA0 SHL SUB AND DUP1 ISZERO PUSH2 0x22A JUMPI DUP2 SLOAD PUSH1 0x1 PUSH1 0x1 PUSH1 0xA0 SHL SUB NOT DUP2 AND DUP3 OR DUP4 SSTORE PUSH1 0x1 PUSH1 0x1 PUSH1 0xA0 SHL SUB AND PUSH32 0x8BE0079C531659141344CD1FD0A4F28419497F9722A3DAAFE3B4186F6B6457E0 DUP4 DUP1 LOG3 DUP1 RETURN JUMPDEST PUSH4 0x1E4FBDF7 PUSH1 0xE0 SHL DUP3 MSTORE PUSH1 0x4 DUP3 SWAP1 MSTORE PUSH1 0x24 DUP3 REVERT JUMPDEST POP CALLVALUE PUSH2 0x1B5 JUMPI DUP1 PUSH1 0x3 NOT CALLDATASIZE ADD SLT PUSH2 0x1B5 JUMPI PUSH1 0x40 SWAP1 CALLER DUP2 MSTORE PUSH1 0x2 PUSH1 0x20 MSTORE KECCAK256 PUSH0 DUP1 MSTORE PUSH1 0x20 MSTORE PUSH1 0x20 PUSH2 0x270 PUSH1 0x40 PUSH0 KECCAK256 SLOAD PUSH2 0x1427 JUMP JUMPDEST PUSH1 0x40 MLOAD SWAP1 DUP2 MSTORE RETURN JUMPDEST POP CALLVALUE PUSH2 0x1B5 JUMPI PUSH1 0x40 CALLDATASIZE PUSH1 0x3 NOT ADD SLT PUSH2 0x1B5 JUMPI PUSH2 0x2CF PUSH1 0x20 PUSH2 0x297 PUSH2 0x113B JUMP JUMPDEST PUSH2 0x29F PUSH2 0x1151 JUMP JUMPDEST PUSH1 0x40 MLOAD PUSH4 0xE6A43905 PUSH1 0xE0 SHL DUP2 MSTORE PUSH1 0x1 PUSH1 0x1 PUSH1 0xA0 SHL SUB SWAP3 DUP4 AND PUSH1 0x4 DUP3 ADD MSTORE SWAP2 AND PUSH1 0x24 DUP3 ADD MSTORE SWAP2 DUP3 SWAP1 DUP2 SWAP1 PUSH1 0x44 DUP3 ADD SWAP1 JUMP JUMPDEST SUB DUP2 PUSH32 0x0 PUSH1 0x1 PUSH1 0x1 PUSH1 0xA0 SHL SUB AND GAS STATICCALL SWAP1 DUP2 ISZERO PUSH2 0x34D JUMPI PUSH1 0x20 SWAP3 SWAP2 PUSH2 0x320 JUMPI JUMPDEST POP PUSH1 0x40 MLOAD PUSH1 0x1 PUSH1 0x1 PUSH1 0xA0 SHL SUB SWAP1 SWAP2 AND DUP2 MSTORE RETURN JUMPDEST PUSH2 0x340 SWAP2 POP DUP3 RETURNDATASIZE DUP5 GT PUSH2 0x346 JUMPI JUMPDEST PUSH2 0x338 DUP2 DUP4 PUSH2 0x1398 JUMP JUMPDEST DUP2 ADD SWAP1 PUSH2 0x13CE JUMP JUMPDEST PUSH0 PUSH2 0x30D JUMP JUMPDEST POP RETURNDATASIZE PUSH2 0x32E JUMP JUMPDEST PUSH1 0x40 MLOAD RETURNDATASIZE DUP5 DUP3 RETURNDATACOPY RETURNDATASIZE SWAP1 REVERT JUMPDEST POP CALLVALUE PUSH2 0x1B5 JUMPI PUSH1 0x20 CALLDATASIZE PUSH1 0x3 NOT ADD SLT PUSH2 0x1B5 JUMPI PUSH1 0x40 PUSH2 0x374 PUSH2 0x113B JUMP JUMPDEST SWAP2 CALLER DUP2 MSTORE PUSH1 0x4 PUSH1 0x20 MSTORE KECCAK256 SWAP1 PUSH1 0x1 DUP1 PUSH1 0xA0 SHL SUB AND PUSH0 MSTORE PUSH1 0x20 MSTORE PUSH1 0x20 PUSH4 0xFFFFFFFF PUSH1 0x40 PUSH0 KECCAK256 SLOAD AND PUSH1 0x40 MLOAD SWAP1 DUP2 MSTORE RETURN JUMPDEST POP CALLVALUE PUSH2 0x1B5 JUMPI DUP1 PUSH1 0x3 NOT CALLDATASIZE ADD SLT PUSH2 0x1B5 JUMPI PUSH1 0x1 SLOAD PUSH1 0x40 MLOAD PUSH1 0x1 PUSH1 0x1 PUSH1 0xA0 SHL SUB SWAP1 SWAP2 AND DUP2 MSTORE PUSH1 0x20 SWAP1 RETURN JUMPDEST POP CALLVALUE PUSH2 0x1B5 JUMPI PUSH1 0x40 CALLDATASIZE PUSH1 0x3 NOT ADD SLT PUSH2 0x1B5 JUMPI PUSH1 0x40 PUSH2 0x3E6 PUSH2 0x113B JUMP JUMPDEST SWAP2 PUSH2 0x3EF PUSH2 0x1151 JUMP JUMPDEST SWAP3 PUSH2 0x3F8 PUSH2 0x1501 JUMP JUMPDEST PUSH1 0x1 DUP1 PUSH1 0xA0 SHL SUB AND DUP2 MSTORE PUSH1 0x2 PUSH1 0x20 MSTORE KECCAK256 SWAP1 PUSH1 0x1 DUP1 PUSH1 0xA0 SHL SUB AND PUSH0 MSTORE PUSH1 0x20 MSTORE PUSH1 0x20 PUSH1 0x40 PUSH0 KECCAK256 SLOAD PUSH1 0x40 MLOAD SWAP1 DUP2 MSTORE RETURN JUMPDEST POP CALLVALUE PUSH2 0x1B5 JUMPI PUSH1 0x20 CALLDATASIZE PUSH1 0x3 NOT ADD SLT PUSH2 0x1B5 JUMPI PUSH1 0x4 CALLDATALOAD PUSH2 0x447 DUP2 CALLER DUP2 ISZERO ISZERO PUSH2 0x1401 JUMP JUMPDEST CALLER DUP3 MSTORE PUSH1 0x2 PUSH1 0x20 MSTORE PUSH1 0x40 DUP3 KECCAK256 PUSH0 DUP1 MSTORE PUSH1 0x20 MSTORE PUSH2 0x46C DUP2 PUSH1 0x40 PUSH0 KECCAK256 CALLER SWAP1 SLOAD DUP3 GT ISZERO PUSH2 0x1401 JUMP JUMPDEST PUSH2 0x4A3 DUP2 CALLER PUSH1 0x1 PUSH1 0x1 PUSH1 0x80 SHL SUB PUSH32 0x0 AND DUP3 GT ISZERO PUSH2 0x1401 JUMP JUMPDEST CALLER DUP3 MSTORE PUSH1 0x2 PUSH1 0x20 MSTORE PUSH1 0x40 DUP3 KECCAK256 PUSH0 DUP1 MSTORE PUSH1 0x20 MSTORE PUSH1 0x40 PUSH0 KECCAK256 PUSH2 0x4C4 DUP3 DUP3 SLOAD PUSH2 0x138B JUMP JUMPDEST SWAP1 SSTORE CALLER DUP3 MSTORE PUSH1 0x4 PUSH1 0x20 MSTORE PUSH1 0x40 DUP3 KECCAK256 PUSH0 DUP1 MSTORE PUSH1 0x20 MSTORE PUSH1 0x40 PUSH0 KECCAK256 PUSH4 0xFFFFFFFF PUSH2 0x4ED DUP2 DUP4 SLOAD AND PUSH2 0x1250 JUMP JUMPDEST AND PUSH4 0xFFFFFFFF NOT DUP3 SLOAD AND OR SWAP1 SSTORE DUP2 DUP1 DUP1 DUP1 DUP5 CALLER GAS CALL RETURNDATASIZE ISZERO PUSH2 0x5D6 JUMPI RETURNDATASIZE SWAP1 PUSH8 0xFFFFFFFFFFFFFFFF DUP3 GT PUSH2 0x5C2 JUMPI PUSH1 0x40 MLOAD SWAP2 PUSH2 0x531 PUSH1 0x1F DUP3 ADD PUSH1 0x1F NOT AND PUSH1 0x20 ADD DUP5 PUSH2 0x1398 JUMP JUMPDEST DUP3 MSTORE RETURNDATASIZE DUP5 PUSH1 0x20 DUP5 ADD RETURNDATACOPY JUMPDEST ISZERO PUSH2 0x576 JUMPI POP PUSH1 0x40 DUP1 MLOAD CALLER DUP2 MSTORE PUSH1 0x20 DUP2 ADD SWAP3 SWAP1 SWAP3 MSTORE PUSH32 0x69C169E5C85AF54E1CA7E16608CCC812437821387924FB3353A7D053264DDAA0 SWAP2 LOG1 DUP1 RETURN JUMPDEST PUSH1 0x84 DUP3 PUSH1 0x20 DUP6 PUSH1 0x40 MLOAD SWAP5 DUP6 SWAP4 PUSH4 0x3FD18B85 PUSH1 0xE0 SHL DUP6 MSTORE CALLER PUSH1 0x4 DUP7 ADD MSTORE PUSH1 0x24 DUP6 ADD MSTORE PUSH1 0x60 PUSH1 0x44 DUP6 ADD MSTORE DUP1 MLOAD SWAP3 DUP4 SWAP2 DUP3 PUSH1 0x64 DUP8 ADD MSTORE ADD DUP6 DUP6 ADD MCOPY DUP3 DUP3 ADD DUP5 ADD MSTORE PUSH1 0x1F ADD PUSH1 0x1F NOT AND DUP2 ADD SUB ADD SWAP1 REVERT JUMPDEST PUSH4 0x4E487B71 PUSH1 0xE0 SHL DUP5 MSTORE PUSH1 0x41 PUSH1 0x4 MSTORE PUSH1 0x24 DUP5 REVERT JUMPDEST PUSH1 0x60 SWAP1 PUSH2 0x53B JUMP JUMPDEST POP CALLVALUE PUSH2 0x8F2 JUMPI PUSH1 0x80 CALLDATASIZE PUSH1 0x3 NOT ADD SLT PUSH2 0x8F2 JUMPI PUSH2 0x5F8 PUSH2 0x113B JUMP JUMPDEST PUSH2 0x600 PUSH2 0x1151 JUMP JUMPDEST PUSH1 0x64 CALLDATALOAD SWAP2 SWAP1 PUSH1 0x1 PUSH1 0x1 PUSH1 0xA0 SHL SUB DUP3 AND SWAP1 PUSH1 0x44 CALLDATALOAD SWAP1 DUP3 ISZERO DUP1 ISZERO PUSH2 0xA6A JUMPI JUMPDEST PUSH2 0xA5B JUMPI PUSH1 0x1 PUSH1 0x1 PUSH1 0xA0 SHL SUB DUP2 AND SWAP4 DUP4 DUP6 EQ PUSH2 0xA5B JUMPI DUP3 ISZERO PUSH2 0xA4C JUMPI PUSH1 0x40 MLOAD PUSH4 0xE6A43905 PUSH1 0xE0 SHL DUP2 MSTORE PUSH1 0x1 PUSH1 0x1 PUSH1 0xA0 SHL SUB DUP3 DUP2 AND PUSH1 0x4 DUP4 ADD MSTORE DUP4 DUP2 AND PUSH1 0x24 DUP4 ADD MSTORE PUSH32 0x0 AND SWAP3 SWAP1 PUSH1 0x20 DUP2 PUSH1 0x44 DUP2 DUP8 GAS STATICCALL SWAP1 DUP2 ISZERO PUSH2 0x91E JUMPI PUSH0 SWAP2 PUSH2 0xA2D JUMPI JUMPDEST POP PUSH1 0x1 PUSH1 0x1 PUSH1 0xA0 SHL SUB AND ISZERO PUSH2 0xA1E JUMPI PUSH1 0x40 MLOAD PUSH4 0xE6A43905 PUSH1 0xE0 SHL DUP2 MSTORE PUSH1 0x1 PUSH1 0x1 PUSH1 0xA0 SHL SUB SWAP3 DUP4 AND PUSH1 0x4 DUP3 ADD MSTORE SWAP2 AND PUSH1 0x24 DUP3 ADD MSTORE SWAP1 PUSH1 0x20 SWAP1 DUP3 SWAP1 PUSH1 0x44 SWAP1 DUP3 SWAP1 GAS STATICCALL SWAP1 DUP2 ISZERO PUSH2 0x91E JUMPI PUSH0 SWAP2 PUSH2 0x9FF JUMPI JUMPDEST POP PUSH1 0x40 MLOAD PUSH4 0x240BC6B PUSH1 0xE2 SHL DUP2 MSTORE SWAP1 PUSH1 0x1 PUSH1 0x1 PUSH1 0xA0 SHL SUB DUP2 AND SWAP1 PUSH1 0x60 DUP4 PUSH1 0x4 DUP2 DUP6 GAS STATICCALL SWAP3 DUP4 ISZERO PUSH2 0x91E JUMPI PUSH0 SWAP1 PUSH0 SWAP5 PUSH2 0x9A0 JUMPI JUMPDEST POP PUSH1 0x40 MLOAD PUSH4 0xDFE1681 PUSH1 0xE0 SHL DUP2 MSTORE PUSH1 0x1 PUSH1 0x1 PUSH1 0x70 SHL SUB SWAP5 DUP6 AND SWAP5 SWAP1 SWAP2 AND PUSH1 0x20 DUP3 PUSH1 0x4 DUP2 DUP8 GAS STATICCALL SWAP2 DUP3 ISZERO PUSH2 0x91E JUMPI PUSH2 0x777 SWAP3 DUP9 SWAP2 PUSH0 SWAP2 PUSH2 0x981 JUMPI JUMPDEST POP PUSH1 0x1 PUSH1 0x1 PUSH1 0xA0 SHL SUB AND EQ SWAP5 DUP6 ISZERO PUSH2 0x97A JUMPI DUP2 JUMPDEST DUP7 ISZERO PUSH2 0x972 JUMPI POP SWAP1 JUMPDEST DUP7 PUSH2 0x119B JUMP JUMPDEST SWAP1 DUP8 DUP3 LT PUSH2 0x963 JUMPI DUP5 PUSH2 0x78B SWAP2 CALLER DUP9 PUSH2 0x1527 JUMP JUMPDEST PUSH1 0x40 MLOAD PUSH4 0x70A08231 PUSH1 0xE0 SHL DUP2 MSTORE ADDRESS PUSH1 0x4 DUP3 ADD MSTORE SWAP3 PUSH1 0x20 DUP5 PUSH1 0x24 DUP2 DUP11 GAS STATICCALL SWAP4 DUP5 ISZERO PUSH2 0x91E JUMPI PUSH0 SWAP5 PUSH2 0x92F JUMPI JUMPDEST POP ISZERO PUSH2 0x929 JUMPI PUSH0 SWAP1 JUMPDEST DUP3 EXTCODESIZE ISZERO PUSH2 0x8F2 JUMPI PUSH1 0xA4 PUSH0 SWAP3 DUP4 PUSH1 0x40 MLOAD SWAP6 DUP7 SWAP5 DUP6 SWAP4 PUSH4 0x22C0D9F PUSH1 0xE0 SHL DUP6 MSTORE PUSH1 0x4 DUP6 ADD MSTORE PUSH1 0x24 DUP5 ADD MSTORE ADDRESS PUSH1 0x44 DUP5 ADD MSTORE PUSH1 0x80 PUSH1 0x64 DUP5 ADD MSTORE DUP2 PUSH1 0x84 DUP5 ADD MSTORE GAS CALL DUP1 ISZERO PUSH2 0x91E JUMPI PUSH2 0x909 JUMPI JUMPDEST POP PUSH1 0x40 MLOAD PUSH4 0x70A08231 PUSH1 0xE0 SHL DUP2 MSTORE ADDRESS PUSH1 0x4 DUP3 ADD MSTORE SWAP1 PUSH1 0x20 DUP3 PUSH1 0x24 DUP2 DUP9 GAS STATICCALL DUP1 ISZERO PUSH2 0x8FE JUMPI DUP8 SWAP1 PUSH2 0x8C6 JUMPI JUMPDEST PUSH2 0x83C SWAP3 POP PUSH2 0x138B JUMP JUMPDEST SWAP4 DUP5 LT PUSH2 0x8B7 JUMPI PUSH1 0x40 MLOAD PUSH4 0xA9059CBB PUSH1 0xE0 SHL PUSH1 0x20 DUP1 DUP4 ADD SWAP2 SWAP1 SWAP2 MSTORE CALLER PUSH1 0x24 DUP4 ADD MSTORE PUSH1 0x44 DUP1 DUP4 ADD DUP8 SWAP1 MSTORE DUP3 MSTORE SWAP6 POP PUSH2 0x87E SWAP1 PUSH2 0x878 PUSH1 0x64 DUP3 PUSH2 0x1398 JUMP JUMPDEST DUP5 PUSH2 0x1589 JUMP JUMPDEST PUSH1 0x40 MLOAD SWAP1 DUP2 MSTORE DUP4 DUP6 DUP3 ADD MSTORE PUSH32 0xBD2AAE55FFCD1C593BDB2DAA466BE5E1ED5BCB86B7D4DA90AE3ECEA741551724 PUSH1 0x40 CALLER SWAP3 LOG4 PUSH1 0x40 MLOAD SWAP1 DUP2 MSTORE RETURN JUMPDEST PUSH4 0x5225CED PUSH1 0xE4 SHL DUP6 MSTORE PUSH1 0x4 DUP6 REVERT JUMPDEST POP PUSH1 0x20 DUP3 RETURNDATASIZE PUSH1 0x20 GT PUSH2 0x8F6 JUMPI JUMPDEST DUP2 PUSH2 0x8E0 PUSH1 0x20 SWAP4 DUP4 PUSH2 0x1398 JUMP JUMPDEST DUP2 ADD SUB SLT PUSH2 0x8F2 JUMPI PUSH2 0x83C SWAP2 MLOAD PUSH2 0x832 JUMP JUMPDEST PUSH0 DUP1 REVERT JUMPDEST RETURNDATASIZE SWAP2 POP PUSH2 0x8D3 JUMP JUMPDEST PUSH1 0x40 MLOAD RETURNDATASIZE DUP10 DUP3 RETURNDATACOPY RETURNDATASIZE SWAP1 REVERT JUMPDEST PUSH2 0x916 SWAP2 SWAP7 POP PUSH0 SWAP1 PUSH2 0x1398 JUMP JUMPDEST PUSH0 SWAP5 PUSH0 PUSH2 0x807 JUMP JUMPDEST PUSH1 0x40 MLOAD RETURNDATASIZE PUSH0 DUP3 RETURNDATACOPY RETURNDATASIZE SWAP1 REVERT JUMPDEST PUSH0 PUSH2 0x7BF JUMP JUMPDEST SWAP1 SWAP4 POP PUSH1 0x20 DUP2 RETURNDATASIZE PUSH1 0x20 GT PUSH2 0x95B JUMPI JUMPDEST DUP2 PUSH2 0x94B PUSH1 0x20 SWAP4 DUP4 PUSH2 0x1398 JUMP JUMPDEST DUP2 ADD SUB SLT PUSH2 0x8F2 JUMPI MLOAD SWAP3 PUSH0 PUSH2 0x7B6 JUMP JUMPDEST RETURNDATASIZE SWAP2 POP PUSH2 0x93E JUMP JUMPDEST PUSH4 0x5225CED PUSH1 0xE4 SHL PUSH0 MSTORE PUSH1 0x4 PUSH0 REVERT JUMPDEST SWAP1 POP SWAP1 PUSH2 0x771 JUMP JUMPDEST DUP1 SWAP2 PUSH2 0x768 JUMP JUMPDEST PUSH2 0x99A SWAP2 POP PUSH1 0x20 RETURNDATASIZE PUSH1 0x20 GT PUSH2 0x346 JUMPI PUSH2 0x338 DUP2 DUP4 PUSH2 0x1398 JUMP JUMPDEST PUSH0 PUSH2 0x754 JUMP JUMPDEST SWAP4 POP POP PUSH1 0x60 DUP4 RETURNDATASIZE PUSH1 0x60 GT PUSH2 0x9F7 JUMPI JUMPDEST DUP2 PUSH2 0x9BC PUSH1 0x60 SWAP4 DUP4 PUSH2 0x1398 JUMP JUMPDEST DUP2 ADD SUB SLT PUSH2 0x8F2 JUMPI PUSH2 0x9CD DUP4 PUSH2 0x13ED JUMP JUMPDEST PUSH1 0x40 PUSH2 0x9DB PUSH1 0x20 DUP7 ADD PUSH2 0x13ED JUMP JUMPDEST SWAP5 ADD MLOAD PUSH4 0xFFFFFFFF DUP2 AND SUB PUSH2 0x8F2 JUMPI PUSH1 0x1 PUSH1 0x1 PUSH1 0x70 SHL SUB PUSH2 0x71A JUMP JUMPDEST RETURNDATASIZE SWAP2 POP PUSH2 0x9AF JUMP JUMPDEST PUSH2 0xA18 SWAP2 POP PUSH1 0x20 RETURNDATASIZE PUSH1 0x20 GT PUSH2 0x346 JUMPI PUSH2 0x338 DUP2 DUP4 PUSH2 0x1398 JUMP JUMPDEST PUSH0 PUSH2 0x6E7 JUMP JUMPDEST PUSH4 0xAAAF18FF PUSH1 0xE0 SHL PUSH0 MSTORE PUSH1 0x4 PUSH0 REVERT JUMPDEST PUSH2 0xA46 SWAP2 POP PUSH1 0x20 RETURNDATASIZE PUSH1 0x20 GT PUSH2 0x346 JUMPI PUSH2 0x338 DUP2 DUP4 PUSH2 0x1398 JUMP JUMPDEST PUSH0 PUSH2 0x699 JUMP JUMPDEST PUSH4 0x36190DE5 PUSH1 0xE2 SHL PUSH0 MSTORE PUSH1 0x4 PUSH0 REVERT JUMPDEST PUSH4 0x206E9DB1 PUSH1 0xE1 SHL PUSH0 MSTORE PUSH1 0x4 PUSH0 REVERT JUMPDEST POP PUSH1 0x1 PUSH1 0x1 PUSH1 0xA0 SHL SUB DUP2 AND ISZERO PUSH2 0x61D JUMP JUMPDEST CALLVALUE PUSH2 0x8F2 JUMPI PUSH1 0x20 CALLDATASIZE PUSH1 0x3 NOT ADD SLT PUSH2 0x8F2 JUMPI PUSH2 0xA94 PUSH2 0x113B JUMP JUMPDEST CALLER PUSH0 MSTORE PUSH1 0x2 PUSH1 0x20 MSTORE PUSH1 0x40 PUSH0 KECCAK256 SWAP1 PUSH1 0x1 DUP1 PUSH1 0xA0 SHL SUB AND PUSH0 MSTORE PUSH1 0x20 MSTORE PUSH1 0x20 PUSH1 0x40 PUSH0 KECCAK256 SLOAD PUSH1 0x40 MLOAD SWAP1 DUP2 MSTORE RETURN JUMPDEST CALLVALUE PUSH2 0x8F2 JUMPI PUSH1 0x20 CALLDATASIZE PUSH1 0x3 NOT ADD SLT PUSH2 0x8F2 JUMPI PUSH2 0xAD6 PUSH2 0x113B JUMP JUMPDEST CALLER PUSH0 MSTORE PUSH1 0x3 PUSH1 0x20 MSTORE PUSH1 0x40 PUSH0 KECCAK256 SWAP1 PUSH1 0x1 DUP1 PUSH1 0xA0 SHL SUB AND PUSH0 MSTORE PUSH1 0x20 MSTORE PUSH1 0x20 PUSH4 0xFFFFFFFF PUSH1 0x40 PUSH0 KECCAK256 SLOAD AND PUSH1 0x40 MLOAD SWAP1 DUP2 MSTORE RETURN JUMPDEST CALLVALUE PUSH2 0x8F2 JUMPI PUSH1 0x40 CALLDATASIZE PUSH1 0x3 NOT ADD SLT PUSH2 0x8F2 JUMPI PUSH32 0xD0164496E26F9675ACAEA59FB065313E45D71D1D3E09D3681765773CD4AA1918 PUSH2 0xB3F PUSH2 0x113B JUMP JUMPDEST PUSH1 0x24 CALLDATALOAD SWAP1 PUSH2 0xB51 DUP3 DUP3 CALLER DUP3 ISZERO ISZERO PUSH2 0x1357 JUMP JUMPDEST CALLER PUSH0 MSTORE PUSH1 0x2 PUSH1 0x20 MSTORE PUSH1 0x40 PUSH0 KECCAK256 PUSH1 0x1 DUP1 PUSH1 0xA0 SHL SUB DUP3 AND PUSH0 MSTORE PUSH1 0x20 MSTORE PUSH2 0xB7F DUP3 DUP3 PUSH1 0x40 PUSH0 KECCAK256 CALLER SWAP1 SLOAD DUP4 GT ISZERO PUSH2 0x1357 JUMP JUMPDEST CALLER PUSH0 MSTORE PUSH1 0x2 PUSH1 0x20 MSTORE PUSH1 0x40 PUSH0 KECCAK256 PUSH1 0x1 DUP1 PUSH1 0xA0 SHL SUB DUP3 AND PUSH0 MSTORE PUSH1 0x20 MSTORE PUSH1 0x40 PUSH0 KECCAK256 PUSH2 0xBA8 DUP4 DUP3 SLOAD PUSH2 0x138B JUMP JUMPDEST SWAP1 SSTORE CALLER PUSH0 MSTORE PUSH1 0x4 PUSH1 0x20 MSTORE PUSH1 0x40 PUSH0 KECCAK256 PUSH1 0x1 DUP1 PUSH1 0xA0 SHL SUB DUP3 AND PUSH0 MSTORE PUSH1 0x20 MSTORE PUSH1 0x40 PUSH0 KECCAK256 PUSH4 0xFFFFFFFF PUSH2 0xBD9 DUP2 DUP4 SLOAD AND PUSH2 0x1250 JUMP JUMPDEST DUP3 SLOAD PUSH4 0xFFFFFFFF NOT AND SWAP2 AND OR SWAP1 SSTORE PUSH2 0xBFC DUP3 CALLER ADDRESS PUSH1 0x1 PUSH1 0x1 PUSH1 0xA0 SHL SUB DUP6 AND PUSH2 0x1527 JUMP JUMPDEST PUSH1 0x40 DUP1 MLOAD CALLER DUP2 MSTORE PUSH1 0x1 PUSH1 0x1 PUSH1 0xA0 SHL SUB SWAP3 SWAP1 SWAP3 AND PUSH1 0x20 DUP4 ADD MSTORE DUP2 ADD SWAP2 SWAP1 SWAP2 MSTORE PUSH1 0x60 SWAP1 LOG1 STOP JUMPDEST CALLVALUE PUSH2 0x8F2 JUMPI PUSH1 0x40 CALLDATASIZE PUSH1 0x3 NOT ADD SLT PUSH2 0x8F2 JUMPI PUSH2 0x20 PUSH2 0xC3C PUSH2 0x113B JUMP JUMPDEST PUSH1 0x24 CALLDATALOAD SWAP1 PUSH2 0xC4D DUP3 CALLER DUP2 ISZERO ISZERO PUSH2 0x122A JUMP JUMPDEST CALLER PUSH0 MSTORE PUSH1 0x2 PUSH1 0x20 MSTORE PUSH1 0x40 PUSH0 KECCAK256 PUSH1 0x1 DUP1 PUSH1 0xA0 SHL SUB DUP3 AND PUSH0 MSTORE PUSH1 0x20 MSTORE PUSH1 0x40 PUSH0 KECCAK256 PUSH2 0xC76 DUP4 DUP3 SLOAD PUSH2 0x118E JUMP JUMPDEST SWAP1 SSTORE CALLER PUSH0 MSTORE PUSH1 0x3 PUSH1 0x20 MSTORE PUSH1 0x40 PUSH0 KECCAK256 PUSH1 0x1 DUP1 PUSH1 0xA0 SHL SUB DUP3 AND PUSH0 MSTORE PUSH1 0x20 MSTORE PUSH1 0x40 PUSH0 KECCAK256 PUSH4 0xFFFFFFFF PUSH2 0xCA7 DUP2 DUP4 SLOAD AND PUSH2 0x1250 JUMP JUMPDEST DUP3 SLOAD PUSH4 0xFFFFFFFF NOT AND SWAP2 AND OR SWAP1 SSTORE PUSH1 0x40 DUP1 MLOAD CALLER DUP2 MSTORE PUSH1 0x1 PUSH1 0x1 PUSH1 0xA0 SHL SUB DUP4 AND PUSH1 0x20 DUP3 ADD MSTORE SWAP1 DUP2 ADD DUP4 SWAP1 MSTORE PUSH32 0xE33E9822E3317B004D587136BAB2627EA1ECFBBA4EB79ABDDD0A56CFDD09C0E1 SWAP1 PUSH1 0x60 SWAP1 LOG1 ADDRESS SWAP1 CALLER SWAP1 PUSH1 0x1 PUSH1 0x1 PUSH1 0xA0 SHL SUB AND PUSH2 0x1527 JUMP JUMPDEST CALLVALUE PUSH2 0x8F2 JUMPI PUSH1 0x40 CALLDATASIZE PUSH1 0x3 NOT ADD SLT PUSH2 0x8F2 JUMPI PUSH2 0xD22 PUSH2 0x113B JUMP JUMPDEST PUSH2 0xD2A PUSH2 0x1151 JUMP JUMPDEST SWAP1 PUSH2 0xD33 PUSH2 0x1501 JUMP JUMPDEST PUSH1 0x1 DUP1 PUSH1 0xA0 SHL SUB AND PUSH0 MSTORE PUSH1 0x4 PUSH1 0x20 MSTORE PUSH1 0x40 PUSH0 KECCAK256 SWAP1 PUSH1 0x1 DUP1 PUSH1 0xA0 SHL SUB AND PUSH0 MSTORE PUSH1 0x20 MSTORE PUSH1 0x20 PUSH4 0xFFFFFFFF PUSH1 0x40 PUSH0 KECCAK256 SLOAD AND PUSH1 0x40 MLOAD SWAP1 DUP2 MSTORE RETURN JUMPDEST CALLVALUE PUSH2 0x8F2 JUMPI PUSH1 0x20 CALLDATASIZE PUSH1 0x3 NOT ADD SLT PUSH2 0x8F2 JUMPI PUSH2 0xD82 PUSH2 0x113B JUMP JUMPDEST PUSH2 0xD8A PUSH2 0x1501 JUMP JUMPDEST PUSH1 0x1 DUP1 PUSH1 0xA0 SHL SUB AND PUSH0 MSTORE PUSH1 0x3 PUSH1 0x20 MSTORE PUSH1 0x40 PUSH0 KECCAK256 PUSH0 DUP1 MSTORE PUSH1 0x20 MSTORE PUSH1 0x20 PUSH4 0xFFFFFFFF PUSH1 0x40 PUSH0 KECCAK256 SLOAD AND PUSH1 0x40 MLOAD SWAP1 DUP2 MSTORE RETURN JUMPDEST CALLVALUE PUSH2 0x8F2 JUMPI PUSH0 CALLDATASIZE PUSH1 0x3 NOT ADD SLT PUSH2 0x8F2 JUMPI PUSH0 SLOAD PUSH1 0x40 MLOAD PUSH1 0x1 PUSH1 0x1 PUSH1 0xA0 SHL SUB SWAP1 SWAP2 AND DUP2 MSTORE PUSH1 0x20 SWAP1 RETURN JUMPDEST CALLVALUE PUSH2 0x8F2 JUMPI PUSH0 CALLDATASIZE PUSH1 0x3 NOT ADD SLT PUSH2 0x8F2 JUMPI PUSH1 0x20 PUSH1 0x40 MLOAD PUSH1 0x1 PUSH1 0x1 PUSH1 0x80 SHL SUB PUSH32 0x0 AND DUP2 MSTORE RETURN JUMPDEST CALLVALUE PUSH2 0x8F2 JUMPI PUSH0 CALLDATASIZE PUSH1 0x3 NOT ADD SLT PUSH2 0x8F2 JUMPI PUSH1 0x20 PUSH1 0x40 MLOAD PUSH1 0x1 PUSH1 0x1 PUSH1 0x80 SHL SUB PUSH32 0x0 AND DUP2 MSTORE RETURN JUMPDEST CALLVALUE PUSH2 0x8F2 JUMPI PUSH1 0x20 CALLDATASIZE PUSH1 0x3 NOT ADD SLT PUSH2 0x8F2 JUMPI PUSH2 0xE7E PUSH2 0x113B JUMP JUMPDEST PUSH2 0xE86 PUSH2 0x1501 JUMP JUMPDEST PUSH1 0x1 SLOAD PUSH1 0x40 DUP1 MLOAD PUSH1 0x1 PUSH1 0x1 PUSH1 0xA0 SHL SUB DUP1 DUP5 AND DUP3 MSTORE SWAP1 SWAP4 AND PUSH1 0x20 DUP5 ADD DUP2 SWAP1 MSTORE SWAP3 PUSH32 0x3BE680563C528780D5A9CD763A27B4A48AB5F9DC10E4083A2FA55B6FC5FF33E6 SWAP2 SWAP1 LOG1 PUSH1 0x1 PUSH1 0x1 PUSH1 0xA0 SHL SUB NOT AND OR PUSH1 0x1 SSTORE STOP JUMPDEST CALLVALUE PUSH2 0x8F2 JUMPI PUSH0 CALLDATASIZE PUSH1 0x3 NOT ADD SLT PUSH2 0x8F2 JUMPI PUSH2 0xEF1 PUSH2 0x1501 JUMP JUMPDEST PUSH0 DUP1 SLOAD PUSH1 0x1 PUSH1 0x1 PUSH1 0xA0 SHL SUB NOT DUP2 AND DUP3 SSTORE PUSH1 0x1 PUSH1 0x1 PUSH1 0xA0 SHL SUB AND PUSH32 0x8BE0079C531659141344CD1FD0A4F28419497F9722A3DAAFE3B4186F6B6457E0 DUP3 DUP1 LOG3 STOP JUMPDEST CALLVALUE PUSH2 0x8F2 JUMPI PUSH0 CALLDATASIZE PUSH1 0x3 NOT ADD SLT PUSH2 0x8F2 JUMPI CALLER PUSH0 MSTORE PUSH1 0x3 PUSH1 0x20 MSTORE PUSH1 0x40 PUSH0 KECCAK256 PUSH0 DUP1 MSTORE PUSH1 0x20 MSTORE PUSH1 0x20 PUSH4 0xFFFFFFFF PUSH1 0x40 PUSH0 KECCAK256 SLOAD AND PUSH1 0x40 MLOAD SWAP1 DUP2 MSTORE RETURN JUMPDEST CALLVALUE PUSH2 0x8F2 JUMPI PUSH0 CALLDATASIZE PUSH1 0x3 NOT ADD SLT PUSH2 0x8F2 JUMPI CALLER PUSH0 MSTORE PUSH1 0x4 PUSH1 0x20 MSTORE PUSH1 0x40 PUSH0 KECCAK256 PUSH0 DUP1 MSTORE PUSH1 0x20 MSTORE PUSH1 0x20 PUSH4 0xFFFFFFFF PUSH1 0x40 PUSH0 KECCAK256 SLOAD AND PUSH1 0x40 MLOAD SWAP1 DUP2 MSTORE RETURN JUMPDEST PUSH0 CALLDATASIZE PUSH1 0x3 NOT ADD SLT PUSH2 0x8F2 JUMPI PUSH2 0x20 PUSH2 0x1267 JUMP JUMPDEST CALLVALUE PUSH2 0x8F2 JUMPI PUSH1 0x20 CALLDATASIZE PUSH1 0x3 NOT ADD SLT PUSH2 0x8F2 JUMPI PUSH2 0xFCA PUSH2 0x113B JUMP JUMPDEST PUSH2 0xFD2 PUSH2 0x1501 JUMP JUMPDEST PUSH1 0x1 DUP1 PUSH1 0xA0 SHL SUB AND PUSH0 MSTORE PUSH1 0x4 PUSH1 0x20 MSTORE PUSH1 0x40 PUSH0 KECCAK256 PUSH0 DUP1 MSTORE PUSH1 0x20 MSTORE PUSH1 0x20 PUSH4 0xFFFFFFFF PUSH1 0x40 PUSH0 KECCAK256 SLOAD AND PUSH1 0x40 MLOAD SWAP1 DUP2 MSTORE RETURN JUMPDEST CALLVALUE PUSH2 0x8F2 JUMPI PUSH0 CALLDATASIZE PUSH1 0x3 NOT ADD SLT PUSH2 0x8F2 JUMPI PUSH1 0x40 MLOAD PUSH32 0x0 PUSH1 0x1 PUSH1 0x1 PUSH1 0xA0 SHL SUB AND DUP2 MSTORE PUSH1 0x20 SWAP1 RETURN JUMPDEST CALLVALUE PUSH2 0x8F2 JUMPI PUSH1 0x40 CALLDATASIZE PUSH1 0x3 NOT ADD SLT PUSH2 0x8F2 JUMPI PUSH2 0x105D PUSH2 0x113B JUMP JUMPDEST PUSH2 0x1065 PUSH2 0x1151 JUMP JUMPDEST SWAP1 PUSH2 0x106E PUSH2 0x1501 JUMP JUMPDEST PUSH1 0x1 DUP1 PUSH1 0xA0 SHL SUB AND PUSH0 MSTORE PUSH1 0x3 PUSH1 0x20 MSTORE PUSH1 0x40 PUSH0 KECCAK256 SWAP1 PUSH1 0x1 DUP1 PUSH1 0xA0 SHL SUB AND PUSH0 MSTORE PUSH1 0x20 MSTORE PUSH1 0x20 PUSH4 0xFFFFFFFF PUSH1 0x40 PUSH0 KECCAK256 SLOAD AND PUSH1 0x40 MLOAD SWAP1 DUP2 MSTORE RETURN JUMPDEST CALLVALUE PUSH2 0x8F2 JUMPI PUSH1 0x20 CALLDATASIZE PUSH1 0x3 NOT ADD SLT PUSH2 0x8F2 JUMPI PUSH1 0x1 PUSH1 0x1 PUSH1 0xA0 SHL SUB PUSH2 0x10C5 PUSH2 0x113B JUMP JUMPDEST AND PUSH0 MSTORE PUSH1 0x2 PUSH1 0x20 MSTORE PUSH1 0x40 PUSH0 KECCAK256 PUSH0 DUP1 MSTORE PUSH1 0x20 MSTORE PUSH1 0x20 PUSH2 0x270 PUSH1 0x40 PUSH0 KECCAK256 SLOAD PUSH2 0x1427 JUMP JUMPDEST CALLVALUE PUSH2 0x8F2 JUMPI PUSH0 CALLDATASIZE PUSH1 0x3 NOT ADD SLT PUSH2 0x8F2 JUMPI CALLER PUSH0 MSTORE PUSH1 0x2 PUSH1 0x20 MSTORE PUSH1 0x40 PUSH0 KECCAK256 PUSH0 DUP1 MSTORE PUSH1 0x20 MSTORE PUSH1 0x20 PUSH1 0x40 PUSH0 KECCAK256 SLOAD PUSH1 0x40 MLOAD SWAP1 DUP2 MSTORE RETURN JUMPDEST CALLVALUE PUSH2 0x8F2 JUMPI PUSH1 0x60 CALLDATASIZE PUSH1 0x3 NOT ADD SLT PUSH2 0x8F2 JUMPI PUSH1 0x20 PUSH2 0x270 PUSH1 0x44 CALLDATALOAD PUSH1 0x24 CALLDATALOAD PUSH1 0x4 CALLDATALOAD PUSH2 0x119B JUMP JUMPDEST PUSH1 0x4 CALLDATALOAD SWAP1 PUSH1 0x1 PUSH1 0x1 PUSH1 0xA0 SHL SUB DUP3 AND DUP3 SUB PUSH2 0x8F2 JUMPI JUMP JUMPDEST PUSH1 0x24 CALLDATALOAD SWAP1 PUSH1 0x1 PUSH1 0x1 PUSH1 0xA0 SHL SUB DUP3 AND DUP3 SUB PUSH2 0x8F2 JUMPI JUMP JUMPDEST DUP2 DUP2 MUL SWAP3 SWAP2 DUP2 ISZERO SWAP2 DUP5 DIV EQ OR ISZERO PUSH2 0x117A JUMPI JUMP JUMPDEST PUSH4 0x4E487B71 PUSH1 0xE0 SHL PUSH0 MSTORE PUSH1 0x11 PUSH1 0x4 MSTORE PUSH1 0x24 PUSH0 REVERT JUMPDEST SWAP2 SWAP1 DUP3 ADD DUP1 SWAP3 GT PUSH2 0x117A JUMPI JUMP JUMPDEST SWAP2 DUP3 ISZERO DUP1 DUP1 ISZERO PUSH2 0x1222 JUMPI JUMPDEST DUP1 ISZERO PUSH2 0x121A JUMPI JUMPDEST PUSH2 0x120B JUMPI PUSH2 0x3E5 DUP5 MUL SWAP4 DUP5 DIV PUSH2 0x3E5 EQ OR ISZERO PUSH2 0x117A JUMPI PUSH2 0x11CD SWAP1 DUP4 PUSH2 0x1167 JUMP JUMPDEST SWAP2 PUSH2 0x3E8 DUP3 MUL SWAP2 DUP1 DUP4 DIV PUSH2 0x3E8 EQ SWAP1 ISZERO OR ISZERO PUSH2 0x117A JUMPI PUSH2 0x11EC SWAP2 PUSH2 0x118E JUMP JUMPDEST SWAP1 DUP2 ISZERO PUSH2 0x11F7 JUMPI DIV SWAP1 JUMP JUMPDEST PUSH4 0x4E487B71 PUSH1 0xE0 SHL PUSH0 MSTORE PUSH1 0x12 PUSH1 0x4 MSTORE PUSH1 0x24 PUSH0 REVERT JUMPDEST PUSH4 0x4532DA63 PUSH1 0xE0 SHL PUSH0 MSTORE PUSH1 0x4 PUSH0 REVERT JUMPDEST POP DUP2 ISZERO PUSH2 0x11AD JUMP JUMPDEST POP DUP3 ISZERO PUSH2 0x11A6 JUMP JUMPDEST ISZERO PUSH2 0x1233 JUMPI POP POP JUMP JUMPDEST PUSH4 0x565936C7 PUSH1 0xE1 SHL PUSH0 MSTORE PUSH1 0x1 DUP1 PUSH1 0xA0 SHL SUB AND PUSH1 0x4 MSTORE PUSH1 0x24 MSTORE PUSH1 0x44 PUSH0 REVERT JUMPDEST PUSH4 0xFFFFFFFF AND PUSH4 0xFFFFFFFF DUP2 EQ PUSH2 0x117A JUMPI PUSH1 0x1 ADD SWAP1 JUMP JUMPDEST PUSH2 0x1274 CALLVALUE CALLER CALLVALUE ISZERO ISZERO PUSH2 0x122A JUMP JUMPDEST CALLER PUSH0 MSTORE PUSH1 0x2 PUSH1 0x20 MSTORE PUSH1 0x40 PUSH0 KECCAK256 PUSH0 DUP1 MSTORE PUSH1 0x20 MSTORE PUSH2 0x12CC PUSH2 0x1297 PUSH1 0x40 PUSH0 KECCAK256 SLOAD CALLVALUE PUSH2 0x118E JUMP JUMPDEST CALLVALUE SWAP1 CALLER SWAP1 PUSH1 0x1 PUSH1 0x1 PUSH1 0x80 SHL SUB PUSH32 0x0 AND LT ISZERO PUSH2 0x122A JUMP JUMPDEST CALLER PUSH0 MSTORE PUSH1 0x2 PUSH1 0x20 MSTORE PUSH1 0x40 PUSH0 KECCAK256 PUSH0 DUP1 MSTORE PUSH1 0x20 MSTORE PUSH1 0x40 PUSH0 KECCAK256 PUSH2 0x12ED CALLVALUE DUP3 SLOAD PUSH2 0x118E JUMP JUMPDEST SWAP1 SSTORE CALLER PUSH0 MSTORE PUSH1 0x3 PUSH1 0x20 MSTORE PUSH1 0x40 PUSH0 KECCAK256 PUSH0 DUP1 MSTORE PUSH1 0x20 MSTORE PUSH1 0x40 PUSH0 KECCAK256 PUSH4 0xFFFFFFFF PUSH2 0x1316 DUP2 DUP4 SLOAD AND PUSH2 0x1250 JUMP JUMPDEST DUP3 SLOAD PUSH4 0xFFFFFFFF NOT AND SWAP2 AND OR SWAP1 SSTORE PUSH1 0x40 DUP1 MLOAD CALLER DUP2 MSTORE CALLVALUE PUSH1 0x20 DUP3 ADD MSTORE PUSH32 0x2DA466A7B24304F47E87FA2E1E5A81B9831CE54FEC19055CE277CA2F39BA42C4 SWAP2 SWAP1 LOG1 JUMP JUMPDEST ISZERO PUSH2 0x1361 JUMPI POP POP POP JUMP JUMPDEST PUSH4 0xB4E4601D PUSH1 0xE0 SHL PUSH0 SWAP1 DUP2 MSTORE PUSH1 0x1 PUSH1 0x1 PUSH1 0xA0 SHL SUB SWAP2 DUP3 AND PUSH1 0x4 MSTORE SWAP2 AND PUSH1 0x24 MSTORE PUSH1 0x44 SWAP2 SWAP1 SWAP2 MSTORE PUSH1 0x64 SWAP1 REVERT JUMPDEST SWAP2 SWAP1 DUP3 SUB SWAP2 DUP3 GT PUSH2 0x117A JUMPI JUMP JUMPDEST SWAP1 PUSH1 0x1F DUP1 NOT SWAP2 ADD AND DUP2 ADD SWAP1 DUP2 LT PUSH8 0xFFFFFFFFFFFFFFFF DUP3 GT OR PUSH2 0x13BA JUMPI PUSH1 0x40 MSTORE JUMP JUMPDEST PUSH4 0x4E487B71 PUSH1 0xE0 SHL PUSH0 MSTORE PUSH1 0x41 PUSH1 0x4 MSTORE PUSH1 0x24 PUSH0 REVERT JUMPDEST SWAP1 DUP2 PUSH1 0x20 SWAP2 SUB SLT PUSH2 0x8F2 JUMPI MLOAD PUSH1 0x1 PUSH1 0x1 PUSH1 0xA0 SHL SUB DUP2 AND DUP2 SUB PUSH2 0x8F2 JUMPI SWAP1 JUMP JUMPDEST MLOAD SWAP1 PUSH1 0x1 PUSH1 0x1 PUSH1 0x70 SHL SUB DUP3 AND DUP3 SUB PUSH2 0x8F2 JUMPI JUMP JUMPDEST ISZERO PUSH2 0x140A JUMPI POP POP JUMP JUMPDEST PUSH4 0xF6074107 PUSH1 0xE0 SHL PUSH0 MSTORE PUSH1 0x1 DUP1 PUSH1 0xA0 SHL SUB AND PUSH1 0x4 MSTORE PUSH1 0x24 MSTORE PUSH1 0x44 PUSH0 REVERT JUMPDEST PUSH1 0x1 SLOAD PUSH1 0x40 MLOAD PUSH4 0x3FABE5A3 PUSH1 0xE2 SHL DUP2 MSTORE SWAP2 SWAP1 PUSH1 0xA0 SWAP1 DUP4 SWAP1 PUSH1 0x4 SWAP1 DUP3 SWAP1 PUSH1 0x1 PUSH1 0x1 PUSH1 0xA0 SHL SUB AND GAS STATICCALL DUP1 ISZERO PUSH2 0x91E JUMPI PUSH0 SWAP3 PUSH0 SWAP2 PUSH2 0x14AD JUMPI JUMPDEST POP DUP3 ISZERO PUSH2 0x149E JUMPI PUSH2 0x1471 PUSH2 0xE10 SWAP2 TIMESTAMP PUSH2 0x138B JUMP JUMPDEST GT ISZERO PUSH2 0x148F JUMPI PUSH9 0x56BC75E2D63100000 SWAP2 PUSH2 0x148B SWAP2 PUSH2 0x1167 JUMP JUMPDEST DIV SWAP1 JUMP JUMPDEST PUSH4 0xCD5FA07 PUSH1 0xE1 SHL PUSH0 MSTORE PUSH1 0x4 PUSH0 REVERT JUMPDEST PUSH4 0x144C1D95 PUSH1 0xE0 SHL PUSH0 MSTORE PUSH1 0x4 PUSH0 REVERT JUMPDEST SWAP3 POP POP PUSH1 0xA0 DUP3 RETURNDATASIZE PUSH1 0xA0 GT PUSH2 0x14F9 JUMPI JUMPDEST DUP2 PUSH2 0x14C9 PUSH1 0xA0 SWAP4 DUP4 PUSH2 0x1398 JUMP JUMPDEST DUP2 ADD SUB SLT PUSH2 0x8F2 JUMPI PUSH2 0x14DA DUP3 PUSH2 0x1572 JUMP JUMPDEST POP PUSH1 0x20 DUP3 ADD MLOAD PUSH2 0x14F1 PUSH1 0x80 PUSH1 0x60 DUP6 ADD MLOAD SWAP5 ADD PUSH2 0x1572 JUMP JUMPDEST POP SWAP2 PUSH0 PUSH2 0x145D JUMP JUMPDEST RETURNDATASIZE SWAP2 POP PUSH2 0x14BC JUMP JUMPDEST PUSH0 SLOAD PUSH1 0x1 PUSH1 0x1 PUSH1 0xA0 SHL SUB AND CALLER SUB PUSH2 0x1514 JUMPI JUMP JUMPDEST PUSH4 0x118CDAA7 PUSH1 0xE0 SHL PUSH0 MSTORE CALLER PUSH1 0x4 MSTORE PUSH1 0x24 PUSH0 REVERT JUMPDEST PUSH1 0x40 MLOAD PUSH4 0x23B872DD PUSH1 0xE0 SHL PUSH1 0x20 DUP3 ADD MSTORE PUSH1 0x1 PUSH1 0x1 PUSH1 0xA0 SHL SUB SWAP3 DUP4 AND PUSH1 0x24 DUP3 ADD MSTORE SWAP3 SWAP1 SWAP2 AND PUSH1 0x44 DUP4 ADD MSTORE PUSH1 0x64 DUP1 DUP4 ADD SWAP4 SWAP1 SWAP4 MSTORE SWAP2 DUP2 MSTORE PUSH2 0x1570 SWAP2 PUSH2 0x156B PUSH1 0x84 DUP4 PUSH2 0x1398 JUMP JUMPDEST PUSH2 0x1589 JUMP JUMPDEST JUMP JUMPDEST MLOAD SWAP1 PUSH10 0xFFFFFFFFFFFFFFFFFFFF DUP3 AND DUP3 SUB PUSH2 0x8F2 JUMPI JUMP JUMPDEST SWAP1 PUSH0 PUSH1 0x20 SWAP2 DUP3 DUP2 MLOAD SWAP2 ADD DUP3 DUP6 GAS CALL ISZERO PUSH2 0x91E JUMPI PUSH0 MLOAD RETURNDATASIZE PUSH2 0x15D8 JUMPI POP PUSH1 0x1 PUSH1 0x1 PUSH1 0xA0 SHL SUB DUP2 AND EXTCODESIZE ISZERO JUMPDEST PUSH2 0x15B8 JUMPI POP JUMP JUMPDEST PUSH4 0x5274AFE7 PUSH1 0xE0 SHL PUSH0 SWAP1 DUP2 MSTORE PUSH1 0x1 PUSH1 0x1 PUSH1 0xA0 SHL SUB SWAP2 SWAP1 SWAP2 AND PUSH1 0x4 MSTORE PUSH1 0x24 SWAP1 REVERT JUMPDEST PUSH1 0x1 EQ ISZERO PUSH2 0x15B1 JUMP INVALID LOG2 PUSH5 0x6970667358 0x22 SLT KECCAK256 0xB1 LT ORIGIN JUMPDEST BLOBBASEFEE SWAP4 ORIGIN SAR XOR SLT PUSH18 0x324BF393598AC56F00F7E5FBE2572D742ECF SWAP1 DUP4 0xA8 PUSH5 0x736F6C6343 STOP ADDMOD 0x1E STOP CALLER "
				},
				"gasEstimates": {
					"creation": {
						"codeDepositCost": "1131000",
						"executionCost": "infinite",
						"totalCost": "infinite"
					},
					"external": {
						"FACTORY()": "infinite",
						"depositERC20(address,uint256)": "infinite",
						"depositEth()": "infinite",
						"getAmountOut(uint256,uint256,uint256)": "578",
						"getBalance()": "2393",
						"getBalance(address)": "5238",
						"getBalanceInUSD()": "infinite",
						"getBalanceInUSD(address)": "infinite",
						"getDeposits()": "2553",
						"getDeposits(address)": "4937",
						"getERC20Balance(address)": "2881",
						"getERC20Balance(address,address)": "5205",
						"getERC20Deposits(address)": "2865",
						"getERC20Deposits(address,address)": "4789",
						"getERC20Withdrawals(address)": "3001",
						"getERC20Withdrawals(address,address)": "5053",
						"getPair(address,address)": "infinite",
						"getWithdrawals()": "2531",
						"getWithdrawals(address)": "4739",
						"owner()": "2559",
						"renounceOwnership()": "28242",
						"s_bankCap()": "infinite",
						"s_feeds()": "2783",
						"s_withdrawLimit()": "infinite",
						"setFeeds(address)": "28158",
						"swapExactInputSingle(address,address,uint256,uint256)": "infinite",
						"transferOwnership(address)": "28758",
						"withdrawERC20(address,uint256)": "infinite",
						"withdrawEth(uint256)": "infinite"
					},
					"internal": {
						"chainlinkFeed()": "infinite",
						"convertEthInUSD(uint256)": "infinite",
						"transferERC20(address,uint256)": "infinite",
						"transferEth(uint256)": "infinite"
					}
				},
				"methodIdentifiers": {
					"FACTORY()": "2dd31000",
					"depositERC20(address,uint256)": "97feb926",
					"depositEth()": "439370b1",
					"getAmountOut(uint256,uint256,uint256)": "054d50d4",
					"getBalance()": "12065fe0",
					"getBalance(address)": "f8b2cb4f",
					"getBalanceInUSD()": "ef649249",
					"getBalanceInUSD(address)": "21d60805",
					"getDeposits()": "6b149d87",
					"getDeposits(address)": "94f649dd",
					"getERC20Balance(address)": "b588d225",
					"getERC20Balance(address,address)": "c3a8962c",
					"getERC20Deposits(address)": "a2abecd3",
					"getERC20Deposits(address,address)": "297beb3c",
					"getERC20Withdrawals(address)": "d2706c91",
					"getERC20Withdrawals(address,address)": "962b9bcc",
					"getPair(address,address)": "e6a43905",
					"getWithdrawals()": "50d6c1e8",
					"getWithdrawals(address)": "3a2b643a",
					"owner()": "8da5cb5b",
					"renounceOwnership()": "715018a6",
					"s_bankCap()": "80ef10ed",
					"s_feeds()": "c77e551b",
					"s_withdrawLimit()": "7f86ee43",
					"setFeeds(address)": "7dc532c5",
					"swapExactInputSingle(address,address,uint256,uint256)": "ba25d3e9",
					"transferOwnership(address)": "f2fde38b",
					"withdrawERC20(address,uint256)": "a1db9782",
					"withdrawEth(uint256)": "c311d049"
				}
			},
			"storageLayout": {
				"storage": [
					{
						"astId": 54,
						"contract": "contracts/KipuBankV3.sol:KipuBankV3",
						"label": "_owner",
						"offset": 0,
						"slot": "0",
						"type": "t_address"
					},
					{
						"astId": 1209,
						"contract": "contracts/KipuBankV3.sol:KipuBankV3",
						"label": "s_feeds",
						"offset": 0,
						"slot": "1",
						"type": "t_contract(AggregatorV3Interface)45"
					},
					{
						"astId": 1220,
						"contract": "contracts/KipuBankV3.sol:KipuBankV3",
						"label": "s_balances",
						"offset": 0,
						"slot": "2",
						"type": "t_mapping(t_address,t_mapping(t_address,t_uint256))"
					},
					{
						"astId": 1227,
						"contract": "contracts/KipuBankV3.sol:KipuBankV3",
						"label": "s_deposits",
						"offset": 0,
						"slot": "3",
						"type": "t_mapping(t_address,t_mapping(t_address,t_uint32))"
					},
					{
						"astId": 1234,
						"contract": "contracts/KipuBankV3.sol:KipuBankV3",
						"label": "s_withdrawals",
						"offset": 0,
						"slot": "4",
						"type": "t_mapping(t_address,t_mapping(t_address,t_uint32))"
					}
				],
				"types": {
					"t_address": {
						"encoding": "inplace",
						"label": "address",
						"numberOfBytes": "20"
					},
					"t_contract(AggregatorV3Interface)45": {
						"encoding": "inplace",
						"label": "contract AggregatorV3Interface",
						"numberOfBytes": "20"
					},
					"t_mapping(t_address,t_mapping(t_address,t_uint256))": {
						"encoding": "mapping",
						"key": "t_address",
						"label": "mapping(address => mapping(address => uint256))",
						"numberOfBytes": "32",
						"value": "t_mapping(t_address,t_uint256)"
					},
					"t_mapping(t_address,t_mapping(t_address,t_uint32))": {
						"encoding": "mapping",
						"key": "t_address",
						"label": "mapping(address => mapping(address => uint32))",
						"numberOfBytes": "32",
						"value": "t_mapping(t_address,t_uint32)"
					},
					"t_mapping(t_address,t_uint256)": {
						"encoding": "mapping",
						"key": "t_address",
						"label": "mapping(address => uint256)",
						"numberOfBytes": "32",
						"value": "t_uint256"
					},
					"t_mapping(t_address,t_uint32)": {
						"encoding": "mapping",
						"key": "t_address",
						"label": "mapping(address => uint32)",
						"numberOfBytes": "32",
						"value": "t_uint32"
					},
					"t_uint256": {
						"encoding": "inplace",
						"label": "uint256",
						"numberOfBytes": "32"
					},
					"t_uint32": {
						"encoding": "inplace",
						"label": "uint32",
						"numberOfBytes": "4"
					}
				}
			},
			"userdoc": {
				"errors": {
					"DepositNotAllowed(address,uint256)": [
						{
							"notice": "Error emitido cuando se intenta depositar una cantidad inválida (=0, o la cuenta superaría el bankCap)"
						}
					],
					"ERC20DepositNotAllowed(address,address,uint256)": [
						{
							"notice": "Error emitido cuando se intenta depositar una cantidad inválida de un token ERC20 (=0)"
						}
					],
					"ERC20ExtractionNotAllowed(address,address,uint256)": [
						{
							"notice": "Error emitido cuando se intenta extraer una cantidad inválda de un token ERC20 (<=0, >saldo)"
						}
					],
					"ExtractionNotAllowed(address,uint256)": [
						{
							"notice": "Error emitido cuando se intenta extraer una cantidad inválda (<=0, >saldo, >límite)"
						}
					],
					"ExtractionReverted(address,uint256,bytes)": [
						{
							"notice": "Error emitido cuando falla una extracción"
						}
					],
					"OracleCompromised()": [
						{
							"notice": "Error emitido cuando falla el oráculo"
						}
					],
					"StalePrice()": [
						{
							"notice": "Error emitido cuando la última actualización del oráculo supera el heartbeat"
						}
					],
					"SwapModule_InsufficientLiquidity()": [
						{
							"notice": "Error emitido cuando se intenta swapear un token sin liquidez"
						}
					],
					"SwapModule_InsufficientOutputAmount()": [
						{
							"notice": "Error emitido cuando se intenta swapear una cantidad insuficiente"
						}
					],
					"SwapModule_InvalidAddress()": [
						{
							"notice": "Error emitido cuando se intenta swapear con una dirección inválida"
						}
					],
					"SwapModule_InvalidAmount()": [
						{
							"notice": "Error emitido cuando se intenta swapear una cantidad inválida"
						}
					],
					"SwapModule_PairDoesNotExist()": [
						{
							"notice": "Error emitido cuando se intenta swapear un par que no existe"
						}
					]
				},
				"events": {
					"ChainlinkFeedUpdated(address,address)": {
						"notice": "Evento emitido al extraer USDC exitosamente"
					},
					"Deposited(address,uint256)": {
						"notice": "Evento emitido al depositar exitosamente"
					},
					"ERC20Deposited(address,address,uint256)": {
						"notice": "Evento emitido al depositar USDC exitosamente"
					},
					"ERC20Extracted(address,address,uint256)": {
						"notice": "Evento emitido al extraer USDC exitosamente"
					},
					"Extracted(address,uint256)": {
						"notice": "Evento emitido al extraer exitosamente"
					},
					"SwapModule_SwapExecuted(address,address,address,uint256,uint256)": {
						"notice": "Evento emitido al ejecutar un swap por UniSwap"
					}
				},
				"kind": "user",
				"methods": {
					"FACTORY()": {
						"notice": "Factory de Uniswap V2 para obtener pares"
					},
					"depositERC20(address,uint256)": {
						"notice": "Función externa para recibir depósitos de tokens ERC20Emite un evento cuando la transacción es exitosa."
					},
					"depositEth()": {
						"notice": "Función para hacer un depósitoSólo se puede depositar un valor mayor a 0, siempre que no se supere el bankCap"
					},
					"getAmountOut(uint256,uint256,uint256)": {
						"notice": "Función auxiliar para calcular la cantidad de salida"
					},
					"getBalance()": {
						"notice": "Función pública para ver el balance de ETH que uno mismo tiene"
					},
					"getBalance(address)": {
						"notice": "Función onlyOwner para ver el balance de ETH que algún usuario tiene"
					},
					"getBalanceInUSD()": {
						"notice": "Función pública para ver el balance de ETH que uno mismo tiene en USD"
					},
					"getBalanceInUSD(address)": {
						"notice": "Función onlyOwner para ver el balance de ETH que algún usuario tiene en USD"
					},
					"getDeposits()": {
						"notice": "Función pública para ver la cantidad de depósitos de ETH que uno hizo"
					},
					"getDeposits(address)": {
						"notice": "Función onlyOwner para ver la cantidad de depósitos de ETH que algún usuario hizo"
					},
					"getERC20Balance(address)": {
						"notice": "Función pública para ver el balance que uno mismo tiene de un token ERC20 específico"
					},
					"getERC20Balance(address,address)": {
						"notice": "Función onlyOwner para ver el balance que algún usuario tiene en algún token ERC20"
					},
					"getERC20Deposits(address)": {
						"notice": "Función pública para ver la cantidad de depósitos que uno hizo de un token ERC20 específico"
					},
					"getERC20Deposits(address,address)": {
						"notice": "Función onlyOwner para ver la cantidad de depósitos que algún usuario hizo de algún token ERC20"
					},
					"getERC20Withdrawals(address)": {
						"notice": "Función pública para ver la cantidad de extracciones que uno hizo de un token ERC20 específico"
					},
					"getERC20Withdrawals(address,address)": {
						"notice": "Función onlyOwner para ver la cantidad de extracciones que algún usuario hizo de algún token ERC20"
					},
					"getPair(address,address)": {
						"notice": "Función para obtener el par de tokens"
					},
					"getWithdrawals()": {
						"notice": "Función pública para ver la cantidad de extracciones de ETH que uno hizo"
					},
					"getWithdrawals(address)": {
						"notice": "Función onlyOwner para ver la cantidad de extracciones de ETH que algún usuario hizo"
					},
					"s_bankCap()": {
						"notice": "Límite de balance por cuenta"
					},
					"s_feeds()": {
						"notice": "variable para almacenar la dirección del Chainlink Feed"
					},
					"s_withdrawLimit()": {
						"notice": "Límite de extracción por cuenta"
					},
					"setFeeds(address)": {
						"notice": "Función para actualizar el Chainlink Price Feed"
					},
					"swapExactInputSingle(address,address,uint256,uint256)": {
						"notice": "Función para ejecutar swaps de inputs exactos en Uniswap V2Los outputs pueden variar según el valor mínimo amountOutMin"
					},
					"withdrawERC20(address,uint256)": {
						"notice": "Función para hacer un depósito"
					},
					"withdrawEth(uint256)": {
						"notice": "Función para hacer un depósito"
					}
				},
				"notice": "Contrato para el TP Final del Módulo 4 del curso de EthKipuEs una simulación de banco con depósitos y extracciones, auditable por el dueño del contrato, que además incorpora USDC al que se hizo previamente",
				"version": 1
			}
		}
	}
}